{
  "address": "0x958Df81951810B53A45f86481F25299587D7F08B",
  "abi": [
    {
      "inputs": [
        {
          "internalType": "address",
          "name": "spender",
          "type": "address"
        },
        {
          "internalType": "uint256",
          "name": "allowance",
          "type": "uint256"
        },
        {
          "internalType": "uint256",
          "name": "needed",
          "type": "uint256"
        }
      ],
      "name": "ERC20InsufficientAllowance",
      "type": "error"
    },
    {
      "inputs": [
        {
          "internalType": "address",
          "name": "sender",
          "type": "address"
        },
        {
          "internalType": "uint256",
          "name": "balance",
          "type": "uint256"
        },
        {
          "internalType": "uint256",
          "name": "needed",
          "type": "uint256"
        }
      ],
      "name": "ERC20InsufficientBalance",
      "type": "error"
    },
    {
      "inputs": [
        {
          "internalType": "address",
          "name": "approver",
          "type": "address"
        }
      ],
      "name": "ERC20InvalidApprover",
      "type": "error"
    },
    {
      "inputs": [
        {
          "internalType": "address",
          "name": "receiver",
          "type": "address"
        }
      ],
      "name": "ERC20InvalidReceiver",
      "type": "error"
    },
    {
      "inputs": [
        {
          "internalType": "address",
          "name": "sender",
          "type": "address"
        }
      ],
      "name": "ERC20InvalidSender",
      "type": "error"
    },
    {
      "inputs": [
        {
          "internalType": "address",
          "name": "spender",
          "type": "address"
        }
      ],
      "name": "ERC20InvalidSpender",
      "type": "error"
    },
    {
      "inputs": [],
      "name": "InvalidInitialization",
      "type": "error"
    },
    {
      "inputs": [],
      "name": "NotInitializing",
      "type": "error"
    },
    {
      "anonymous": false,
      "inputs": [
        {
          "indexed": true,
          "internalType": "address",
          "name": "owner",
          "type": "address"
        },
        {
          "indexed": true,
          "internalType": "address",
          "name": "spender",
          "type": "address"
        },
        {
          "indexed": false,
          "internalType": "uint256",
          "name": "value",
          "type": "uint256"
        }
      ],
      "name": "Approval",
      "type": "event"
    },
    {
      "anonymous": false,
      "inputs": [
        {
          "indexed": false,
          "internalType": "uint64",
          "name": "version",
          "type": "uint64"
        }
      ],
      "name": "Initialized",
      "type": "event"
    },
    {
      "anonymous": false,
      "inputs": [
        {
          "indexed": true,
          "internalType": "address",
          "name": "previousOwner",
          "type": "address"
        },
        {
          "indexed": true,
          "internalType": "address",
          "name": "newOwner",
          "type": "address"
        }
      ],
      "name": "OwnershipTransferred",
      "type": "event"
    },
    {
      "anonymous": false,
      "inputs": [
        {
          "indexed": true,
          "internalType": "address",
          "name": "from",
          "type": "address"
        },
        {
          "indexed": true,
          "internalType": "address",
          "name": "to",
          "type": "address"
        },
        {
          "indexed": false,
          "internalType": "uint256",
          "name": "value",
          "type": "uint256"
        }
      ],
      "name": "Transfer",
      "type": "event"
    },
    {
      "inputs": [
        {
          "internalType": "string",
          "name": "name_",
          "type": "string"
        },
        {
          "internalType": "string",
          "name": "symbol_",
          "type": "string"
        },
        {
          "internalType": "contract IERC20",
          "name": "_primary",
          "type": "address"
        },
        {
          "internalType": "contract IERC20",
          "name": "_secondary",
          "type": "address"
        },
        {
          "internalType": "contract IERC20",
          "name": "_reward",
          "type": "address"
        },
        {
          "components": [
            {
              "internalType": "contract TokanRouter",
              "name": "router",
              "type": "address"
            },
            {
              "internalType": "contract TokanPair",
              "name": "pair",
              "type": "address"
            },
            {
              "internalType": "contract TokanGauge",
              "name": "gauge",
              "type": "address"
            },
            {
              "internalType": "uint256",
              "name": "decimalsA",
              "type": "uint256"
            },
            {
              "internalType": "bool",
              "name": "stable",
              "type": "bool"
            },
            {
              "components": [
                {
                  "internalType": "address",
                  "name": "from",
                  "type": "address"
                },
                {
                  "internalType": "address",
                  "name": "to",
                  "type": "address"
                },
                {
                  "internalType": "bool",
                  "name": "stable",
                  "type": "bool"
                }
              ],
              "internalType": "struct TokanRouter.Route[]",
              "name": "rewardExchangeRoute",
              "type": "tuple[]"
            }
          ],
          "internalType": "struct TokanDexInvestment.TokanDexInvestmentConfig",
          "name": "config",
          "type": "tuple"
        }
      ],
      "name": "__TokanDexInvestment_init",
      "outputs": [],
      "stateMutability": "nonpayable",
      "type": "function"
    },
    {
      "inputs": [
        {
          "internalType": "uint256",
          "name": "minOut",
          "type": "uint256"
        },
        {
          "internalType": "uint256",
          "name": "maxOut",
          "type": "uint256"
        }
      ],
      "name": "alarm",
      "outputs": [
        {
          "internalType": "uint256",
          "name": "exchanged",
          "type": "uint256"
        }
      ],
      "stateMutability": "nonpayable",
      "type": "function"
    },
    {
      "inputs": [
        {
          "internalType": "address",
          "name": "owner",
          "type": "address"
        },
        {
          "internalType": "address",
          "name": "spender",
          "type": "address"
        }
      ],
      "name": "allowance",
      "outputs": [
        {
          "internalType": "uint256",
          "name": "",
          "type": "uint256"
        }
      ],
      "stateMutability": "view",
      "type": "function"
    },
    {
      "inputs": [
        {
          "internalType": "address",
          "name": "spender",
          "type": "address"
        },
        {
          "internalType": "uint256",
          "name": "value",
          "type": "uint256"
        }
      ],
      "name": "approve",
      "outputs": [
        {
          "internalType": "bool",
          "name": "",
          "type": "bool"
        }
      ],
      "stateMutability": "nonpayable",
      "type": "function"
    },
    {
      "inputs": [],
      "name": "approveAll",
      "outputs": [],
      "stateMutability": "nonpayable",
      "type": "function"
    },
    {
      "inputs": [
        {
          "internalType": "address",
          "name": "account",
          "type": "address"
        }
      ],
      "name": "balanceOf",
      "outputs": [
        {
          "internalType": "uint256",
          "name": "",
          "type": "uint256"
        }
      ],
      "stateMutability": "view",
      "type": "function"
    },
    {
      "inputs": [
        {
          "internalType": "address",
          "name": "wallet",
          "type": "address"
        }
      ],
      "name": "calculateValue",
      "outputs": [
        {
          "internalType": "uint256",
          "name": "value",
          "type": "uint256"
        }
      ],
      "stateMutability": "view",
      "type": "function"
    },
    {
      "inputs": [],
      "name": "claimOwner",
      "outputs": [],
      "stateMutability": "nonpayable",
      "type": "function"
    },
    {
      "inputs": [],
      "name": "decimals",
      "outputs": [
        {
          "internalType": "uint8",
          "name": "",
          "type": "uint8"
        }
      ],
      "stateMutability": "view",
      "type": "function"
    },
    {
      "inputs": [
        {
          "internalType": "uint256",
          "name": "amount",
          "type": "uint256"
        }
      ],
      "name": "deposit",
      "outputs": [
        {
          "internalType": "uint256",
          "name": "issued",
          "type": "uint256"
        }
      ],
      "stateMutability": "nonpayable",
      "type": "function"
    },
    {
      "inputs": [],
      "name": "gauge",
      "outputs": [
        {
          "internalType": "contract TokanGauge",
          "name": "",
          "type": "address"
        }
      ],
      "stateMutability": "view",
      "type": "function"
    },
    {
      "inputs": [],
      "name": "name",
      "outputs": [
        {
          "internalType": "string",
          "name": "",
          "type": "string"
        }
      ],
      "stateMutability": "view",
      "type": "function"
    },
    {
      "inputs": [],
      "name": "pair",
      "outputs": [
        {
          "internalType": "contract TokanPair",
          "name": "",
          "type": "address"
        }
      ],
      "stateMutability": "view",
      "type": "function"
    },
    {
      "inputs": [],
      "name": "primary",
      "outputs": [
        {
          "internalType": "contract IERC20",
          "name": "",
          "type": "address"
        }
      ],
      "stateMutability": "view",
      "type": "function"
    },
    {
      "inputs": [
        {
          "internalType": "bool",
          "name": "reinvestSecondary",
          "type": "bool"
        },
        {
          "internalType": "bool",
          "name": "reinvestRewards",
          "type": "bool"
        }
      ],
      "name": "reinvest",
      "outputs": [],
      "stateMutability": "nonpayable",
      "type": "function"
    },
    {
      "inputs": [],
      "name": "reward",
      "outputs": [
        {
          "internalType": "contract IERC20",
          "name": "",
          "type": "address"
        }
      ],
      "stateMutability": "view",
      "type": "function"
    },
    {
      "inputs": [],
      "name": "router",
      "outputs": [
        {
          "internalType": "contract TokanRouter",
          "name": "",
          "type": "address"
        }
      ],
      "stateMutability": "view",
      "type": "function"
    },
    {
      "inputs": [],
      "name": "secondary",
      "outputs": [
        {
          "internalType": "contract IERC20",
          "name": "",
          "type": "address"
        }
      ],
      "stateMutability": "view",
      "type": "function"
    },
    {
      "inputs": [
        {
          "internalType": "address",
          "name": "account",
          "type": "address"
        },
        {
          "internalType": "bool",
          "name": "_user",
          "type": "bool"
        }
      ],
      "name": "setUser",
      "outputs": [],
      "stateMutability": "nonpayable",
      "type": "function"
    },
    {
      "inputs": [],
      "name": "symbol",
      "outputs": [
        {
          "internalType": "string",
          "name": "",
          "type": "string"
        }
      ],
      "stateMutability": "view",
      "type": "function"
    },
    {
      "inputs": [],
      "name": "totalSupply",
      "outputs": [
        {
          "internalType": "uint256",
          "name": "",
          "type": "uint256"
        }
      ],
      "stateMutability": "view",
      "type": "function"
    },
    {
      "inputs": [
        {
          "internalType": "address",
          "name": "to",
          "type": "address"
        },
        {
          "internalType": "uint256",
          "name": "value",
          "type": "uint256"
        }
      ],
      "name": "transfer",
      "outputs": [
        {
          "internalType": "bool",
          "name": "",
          "type": "bool"
        }
      ],
      "stateMutability": "nonpayable",
      "type": "function"
    },
    {
      "inputs": [
        {
          "internalType": "address",
          "name": "from",
          "type": "address"
        },
        {
          "internalType": "address",
          "name": "to",
          "type": "address"
        },
        {
          "internalType": "uint256",
          "name": "value",
          "type": "uint256"
        }
      ],
      "name": "transferFrom",
      "outputs": [
        {
          "internalType": "bool",
          "name": "",
          "type": "bool"
        }
      ],
      "stateMutability": "nonpayable",
      "type": "function"
    },
    {
      "inputs": [
        {
          "internalType": "uint256",
          "name": "amount",
          "type": "uint256"
        }
      ],
      "name": "withdraw",
      "outputs": [
        {
          "internalType": "uint256",
          "name": "withdrawn",
          "type": "uint256"
        }
      ],
      "stateMutability": "nonpayable",
      "type": "function"
    }
  ],
  "transactionHash": "0x0fa87960c412fc4b71f629373dee13134fb9bf5d1056a2db5f648bb6cd6d83e8",
  "args": [],
  "numDeployments": 10,
  "solcInputHash": "036b182d690f81bc2bab131750451fb4",
  "bytecode": "0x608060405234801561001057600080fd5b5061574080620000216000396000f3fe608060405234801561001057600080fd5b50600436106101585760003560e01c806395d89b41116100c3578063b4d8b8c81161007c578063b4d8b8c8146103cd578063b6b55f25146103e9578063b7ae7e3914610419578063c6dbdf6114610435578063dd62ed3e14610453578063f887ea401461048357610158565b806395d89b41146102f55780639d3c8cc414610313578063a6f19c8414610331578063a8aa1b311461034f578063a9059cbb1461036d578063af79b2a61461039d57610158565b8063313ce56711610115578063313ce56714610247578063380d0c08146102655780633bd1adec1461026f57806370a08231146102795780637a57a984146102a95780637b634b01146102c557610158565b806306fdde031461015d578063095ea7b31461017b57806318160ddd146101ab578063228cb733146101c957806323b872dd146101e75780632e1a7d4d14610217575b600080fd5b6101656104a1565b6040516101729190613daa565b60405180910390f35b61019560048036038101906101909190613e74565b610542565b6040516101a29190613ecf565b60405180910390f35b6101b3610565565b6040516101c09190613ef9565b60405180910390f35b6101d161057d565b6040516101de9190613f73565b60405180910390f35b61020160048036038101906101fc9190613f8e565b6105a3565b60405161020e9190613ecf565b60405180910390f35b610231600480360381019061022c9190613fe1565b6105d2565b60405161023e9190613ef9565b60405180910390f35b61024f610777565b60405161025c919061402a565b60405180910390f35b61026d610780565b005b610277610bef565b005b610293600480360381019061028e9190614045565b610c77565b6040516102a09190613ef9565b60405180910390f35b6102c360048036038101906102be919061409e565b610cce565b005b6102df60048036038101906102da91906140de565b610da5565b6040516102ec9190613ef9565b60405180910390f35b6102fd610f4f565b60405161030a9190613daa565b60405180910390f35b61031b610ff0565b6040516103289190613f73565b60405180910390f35b610339611016565b604051610346919061413f565b60405180910390f35b61035761103c565b604051610364919061417b565b60405180910390f35b61038760048036038101906103829190613e74565b611062565b6040516103949190613ecf565b60405180910390f35b6103b760048036038101906103b29190614045565b611085565b6040516103c49190613ef9565b60405180910390f35b6103e760048036038101906103e291906145b5565b6110cc565b005b61040360048036038101906103fe9190613fe1565b61128d565b6040516104109190613ef9565b60405180910390f35b610433600480360381019061042e9190614696565b611426565b005b61043d6116ec565b60405161044a9190613f73565b60405180910390f35b61046d600480360381019061046891906146d6565b611710565b60405161047a9190613ef9565b60405180910390f35b61048b6117a5565b6040516104989190614737565b60405180910390f35b606060006104ad6117cb565b90508060030180546104be90614781565b80601f01602080910402602001604051908101604052809291908181526020018280546104ea90614781565b80156105375780601f1061050c57610100808354040283529160200191610537565b820191906000526020600020905b81548152906001019060200180831161051a57829003601f168201915b505050505091505090565b60008061054d6117f3565b905061055a8185856117fb565b600191505092915050565b6000806105706117cb565b9050806002015491505090565b600260009054906101000a900473ffffffffffffffffffffffffffffffffffffffff1681565b6000806105ae6117f3565b90506105bb85828561180d565b6105c68585856118a1565b60019150509392505050565b60006105dc611995565b61061b576040517f08c379a0000000000000000000000000000000000000000000000000000000008152600401610612906147fe565b60405180910390fd5b6000821161065e576040517f08c379a00000000000000000000000000000000000000000000000000000000081526004016106559061486a565b60405180910390fd5b6000610668610565565b905061067b6106756117f3565b846119f0565b60006106878483611a72565b905060008054906101000a900473ffffffffffffffffffffffffffffffffffffffff1673ffffffffffffffffffffffffffffffffffffffff1663a9059cbb6106cd6117f3565b836040518363ffffffff1660e01b81526004016106eb929190614899565b6020604051808303816000875af115801561070a573d6000803e3d6000fd5b505050506040513d601f19601f8201168201806040525081019061072e91906148d7565b61076d576040517f08c379a000000000000000000000000000000000000000000000000000000000815260040161076490614950565b60405180910390fd5b8092505050919050565b60006012905090565b60008054906101000a900473ffffffffffffffffffffffffffffffffffffffff1673ffffffffffffffffffffffffffffffffffffffff1663095ea7b3600360009054906101000a900473ffffffffffffffffffffffffffffffffffffffff167fffffffffffffffffffffffffffffffffffffffffffffffffffffffffffffffff6040518363ffffffff1660e01b815260040161081d929190614899565b6020604051808303816000875af115801561083c573d6000803e3d6000fd5b505050506040513d601f19601f8201168201806040525081019061086091906148d7565b50600160009054906101000a900473ffffffffffffffffffffffffffffffffffffffff1673ffffffffffffffffffffffffffffffffffffffff1663095ea7b3600360009054906101000a900473ffffffffffffffffffffffffffffffffffffffff167fffffffffffffffffffffffffffffffffffffffffffffffffffffffffffffffff6040518363ffffffff1660e01b8152600401610900929190614899565b6020604051808303816000875af115801561091f573d6000803e3d6000fd5b505050506040513d601f19601f8201168201806040525081019061094391906148d7565b50600460009054906101000a900473ffffffffffffffffffffffffffffffffffffffff1673ffffffffffffffffffffffffffffffffffffffff1663095ea7b3600560009054906101000a900473ffffffffffffffffffffffffffffffffffffffff167fffffffffffffffffffffffffffffffffffffffffffffffffffffffffffffffff6040518363ffffffff1660e01b81526004016109e3929190614899565b6020604051808303816000875af1158015610a02573d6000803e3d6000fd5b505050506040513d601f19601f82011682018060405250810190610a2691906148d7565b50600460009054906101000a900473ffffffffffffffffffffffffffffffffffffffff1673ffffffffffffffffffffffffffffffffffffffff1663095ea7b3600360009054906101000a900473ffffffffffffffffffffffffffffffffffffffff167fffffffffffffffffffffffffffffffffffffffffffffffffffffffffffffffff6040518363ffffffff1660e01b8152600401610ac6929190614899565b6020604051808303816000875af1158015610ae5573d6000803e3d6000fd5b505050506040513d601f19601f82011682018060405250810190610b0991906148d7565b50600260009054906101000a900473ffffffffffffffffffffffffffffffffffffffff1673ffffffffffffffffffffffffffffffffffffffff1663095ea7b3600360009054906101000a900473ffffffffffffffffffffffffffffffffffffffff167fffffffffffffffffffffffffffffffffffffffffffffffffffffffffffffffff6040518363ffffffff1660e01b8152600401610ba9929190614899565b6020604051808303816000875af1158015610bc8573d6000803e3d6000fd5b505050506040513d601f19601f82011682018060405250810190610bec91906148d7565b50565b600073ffffffffffffffffffffffffffffffffffffffff16610c0f611d59565b73ffffffffffffffffffffffffffffffffffffffff1614610c65576040517f08c379a0000000000000000000000000000000000000000000000000000000008152600401610c5c906149bc565b60405180910390fd5b610c75610c706117f3565b611d82565b565b600080610c826117cb565b90508060000160008473ffffffffffffffffffffffffffffffffffffffff1673ffffffffffffffffffffffffffffffffffffffff16815260200190815260200160002054915050919050565b610cd6611d59565b73ffffffffffffffffffffffffffffffffffffffff16610cf46117f3565b73ffffffffffffffffffffffffffffffffffffffff1614610d4a576040517f08c379a0000000000000000000000000000000000000000000000000000000008152600401610d4190614a28565b60405180910390fd5b80600860008473ffffffffffffffffffffffffffffffffffffffff1673ffffffffffffffffffffffffffffffffffffffff16815260200190815260200160002060006101000a81548160ff0219169083151502179055505050565b6000610daf611995565b610dee576040517f08c379a0000000000000000000000000000000000000000000000000000000008152600401610de5906147fe565b60405180910390fd5b610df9606480611e0f565b50506000600160009054906101000a900473ffffffffffffffffffffffffffffffffffffffff1673ffffffffffffffffffffffffffffffffffffffff166370a08231306040518263ffffffff1660e01b8152600401610e589190614a48565b602060405180830381865afa158015610e75573d6000803e3d6000fd5b505050506040513d601f19601f82011682018060405250810190610e999190614a78565b90506000610ea682612163565b9050818582610eb59190614ad4565b1015610ef6576040517f08c379a0000000000000000000000000000000000000000000000000000000008152600401610eed90614b62565b60405180910390fd5b818482610f039190614ad4565b1115610f44576040517f08c379a0000000000000000000000000000000000000000000000000000000008152600401610f3b90614bce565b60405180910390fd5b809250505092915050565b60606000610f5b6117cb565b9050806004018054610f6c90614781565b80601f0160208091040260200160405190810160405280929190818152602001828054610f9890614781565b8015610fe55780601f10610fba57610100808354040283529160200191610fe5565b820191906000526020600020905b815481529060010190602001808311610fc857829003601f168201915b505050505091505090565b600160009054906101000a900473ffffffffffffffffffffffffffffffffffffffff1681565b600560009054906101000a900473ffffffffffffffffffffffffffffffffffffffff1681565b600460009054906101000a900473ffffffffffffffffffffffffffffffffffffffff1681565b60008061106d6117f3565b905061107a8185856118a1565b600191505092915050565b600080611090610565565b9050600061109d84610c77565b905060006110a9612352565b90508282826110b89190614ad4565b6110c29190614c1d565b9350505050919050565b60006110d6612395565b905060008160000160089054906101000a900460ff1615905060008260000160009054906101000a900467ffffffffffffffff1690506000808267ffffffffffffffff161480156111245750825b9050600060018367ffffffffffffffff16148015611159575060003073ffffffffffffffffffffffffffffffffffffffff163b145b905081158015611167575080155b1561119e576040517ff92ee8a900000000000000000000000000000000000000000000000000000000815260040160405180910390fd5b60018560000160006101000a81548167ffffffffffffffff021916908367ffffffffffffffff16021790555083156111ee5760018560000160086101000a81548160ff0219169083151502179055505b6111f66123bd565b6112008b8b6123c7565b61120989612404565b611213888861244f565b61121c866124dd565b611224610780565b83156112805760008560000160086101000a81548160ff0219169083151502179055507fc7f505b2f371ae2175ee4913f4499e1f2633a7b5936321eed1cdaeb6115181d260016040516112779190614c9d565b60405180910390a15b5050505050505050505050565b6000611297611995565b6112d6576040517f08c379a00000000000000000000000000000000000000000000000000000000081526004016112cd906147fe565b60405180910390fd5b60008211611319576040517f08c379a00000000000000000000000000000000000000000000000000000000081526004016113109061486a565b60405180910390fd5b60008054906101000a900473ffffffffffffffffffffffffffffffffffffffff1673ffffffffffffffffffffffffffffffffffffffff166323b872dd61135d6117f3565b30856040518463ffffffff1660e01b815260040161137d93929190614cb8565b6020604051808303816000875af115801561139c573d6000803e3d6000fd5b505050506040513d601f19601f820116820180604052508101906113c091906148d7565b6113ff576040517f08c379a00000000000000000000000000000000000000000000000000000000081526004016113f690614950565b60405180910390fd5b600061140a836126fe565b905061141d6114176117f3565b826127c0565b80915050919050565b61142e611995565b61146d576040517f08c379a0000000000000000000000000000000000000000000000000000000008152600401611464906147fe565b60405180910390fd5b811561151f576000600160009054906101000a900473ffffffffffffffffffffffffffffffffffffffff1673ffffffffffffffffffffffffffffffffffffffff166370a08231306040518263ffffffff1660e01b81526004016114d09190614a48565b602060405180830381865afa1580156114ed573d6000803e3d6000fd5b505050506040513d601f19601f820116820180604052508101906115119190614a78565b905061151c81612163565b50505b80801561157b5750600073ffffffffffffffffffffffffffffffffffffffff16600260009054906101000a900473ffffffffffffffffffffffffffffffffffffffff1673ffffffffffffffffffffffffffffffffffffffff1614155b1561163d57611588612842565b6000600260009054906101000a900473ffffffffffffffffffffffffffffffffffffffff1673ffffffffffffffffffffffffffffffffffffffff166370a08231306040518263ffffffff1660e01b81526004016115e59190614a48565b602060405180830381865afa158015611602573d6000803e3d6000fd5b505050506040513d601f19601f820116820180604052508101906116269190614a78565b90506000811461163b57611639816128c6565b505b505b60008060009054906101000a900473ffffffffffffffffffffffffffffffffffffffff1673ffffffffffffffffffffffffffffffffffffffff166370a08231306040518263ffffffff1660e01b81526004016116999190614a48565b602060405180830381865afa1580156116b6573d6000803e3d6000fd5b505050506040513d601f19601f820116820180604052508101906116da9190614a78565b90506116e5816129ad565b5050505050565b60008054906101000a900473ffffffffffffffffffffffffffffffffffffffff1681565b60008061171b6117cb565b90508060010160008573ffffffffffffffffffffffffffffffffffffffff1673ffffffffffffffffffffffffffffffffffffffff16815260200190815260200160002060008473ffffffffffffffffffffffffffffffffffffffff1673ffffffffffffffffffffffffffffffffffffffff1681526020019081526020016000205491505092915050565b600360009054906101000a900473ffffffffffffffffffffffffffffffffffffffff1681565b60007f52c63247e1f47db19d5ce0460030c497f067ca4cebf71ba98eeadabe20bace00905090565b600033905090565b61180883838360016129f8565b505050565b60006118198484611710565b90507fffffffffffffffffffffffffffffffffffffffffffffffffffffffffffffffff811461189b578181101561188b578281836040517ffb8f41b200000000000000000000000000000000000000000000000000000000815260040161188293929190614cef565b60405180910390fd5b61189a848484840360006129f8565b5b50505050565b600073ffffffffffffffffffffffffffffffffffffffff168373ffffffffffffffffffffffffffffffffffffffff16036119135760006040517f96c6fd1e00000000000000000000000000000000000000000000000000000000815260040161190a9190614a48565b60405180910390fd5b600073ffffffffffffffffffffffffffffffffffffffff168273ffffffffffffffffffffffffffffffffffffffff16036119855760006040517fec442f0500000000000000000000000000000000000000000000000000000000815260040161197c9190614a48565b60405180910390fd5b611990838383612bde565b505050565b6000600860006119a36117f3565b73ffffffffffffffffffffffffffffffffffffffff1673ffffffffffffffffffffffffffffffffffffffff16815260200190815260200160002060009054906101000a900460ff16905090565b600073ffffffffffffffffffffffffffffffffffffffff168273ffffffffffffffffffffffffffffffffffffffff1603611a625760006040517f96c6fd1e000000000000000000000000000000000000000000000000000000008152600401611a599190614a48565b60405180910390fd5b611a6e82600083612bde565b5050565b600080828460008054906101000a900473ffffffffffffffffffffffffffffffffffffffff1673ffffffffffffffffffffffffffffffffffffffff166370a08231306040518263ffffffff1660e01b8152600401611ad09190614a48565b602060405180830381865afa158015611aed573d6000803e3d6000fd5b505050506040513d601f19601f82011682018060405250810190611b119190614a78565b611b1b9190614ad4565b611b259190614c1d565b905060008385600160009054906101000a900473ffffffffffffffffffffffffffffffffffffffff1673ffffffffffffffffffffffffffffffffffffffff166370a08231306040518263ffffffff1660e01b8152600401611b869190614a48565b602060405180830381865afa158015611ba3573d6000803e3d6000fd5b505050506040513d601f19601f82011682018060405250810190611bc79190614a78565b611bd19190614ad4565b611bdb9190614c1d565b9050600080611bea8787611e0f565b915091508184611bfa9190614d26565b9450611c108184611c0b9190614d26565b612163565b85611c1b9190614d26565b9450600073ffffffffffffffffffffffffffffffffffffffff16600260009054906101000a900473ffffffffffffffffffffffffffffffffffffffff1673ffffffffffffffffffffffffffffffffffffffff1614611d4f57611c7b612842565b6000600260009054906101000a900473ffffffffffffffffffffffffffffffffffffffff1673ffffffffffffffffffffffffffffffffffffffff166370a08231306040518263ffffffff1660e01b8152600401611cd89190614a48565b602060405180830381865afa158015611cf5573d6000803e3d6000fd5b505050506040513d601f19601f82011682018060405250810190611d199190614a78565b90506000878983611d2a9190614ad4565b611d349190614c1d565b9050611d3f816128c6565b87611d4a9190614d26565b965050505b5050505092915050565b60007fb53127684a568b3173ae13b9f8a6016e243e63b6e8ee1178d6a717850b5d610354905090565b6000611d8c611d59565b9050817fb53127684a568b3173ae13b9f8a6016e243e63b6e8ee1178d6a717850b5d6103558173ffffffffffffffffffffffffffffffffffffffff168173ffffffffffffffffffffffffffffffffffffffff167f8be0079c531659141344cd1fd0a4f28419497f9722a3daafe3b4186f6b6457e060405160405180910390a35050565b60008060008385600560009054906101000a900473ffffffffffffffffffffffffffffffffffffffff1673ffffffffffffffffffffffffffffffffffffffff166370a08231306040518263ffffffff1660e01b8152600401611e719190614a48565b602060405180830381865afa158015611e8e573d6000803e3d6000fd5b505050506040513d601f19601f82011682018060405250810190611eb29190614a78565b611ebc9190614ad4565b611ec69190614c1d565b9050600560009054906101000a900473ffffffffffffffffffffffffffffffffffffffff1673ffffffffffffffffffffffffffffffffffffffff16632e1a7d4d826040518263ffffffff1660e01b8152600401611f239190613ef9565b600060405180830381600087803b158015611f3d57600080fd5b505af1158015611f51573d6000803e3d6000fd5b50505050600080600360009054906101000a900473ffffffffffffffffffffffffffffffffffffffff1673ffffffffffffffffffffffffffffffffffffffff16634386e63c60008054906101000a900473ffffffffffffffffffffffffffffffffffffffff16600160009054906101000a900473ffffffffffffffffffffffffffffffffffffffff16600560149054906101000a900460ff16876040518563ffffffff1660e01b815260040161200a9493929190614d5a565b6040805180830381865afa158015612026573d6000803e3d6000fd5b505050506040513d601f19601f8201168201806040525081019061204a9190614d9f565b91509150600080600360009054906101000a900473ffffffffffffffffffffffffffffffffffffffff1673ffffffffffffffffffffffffffffffffffffffff16630dede6c460008054906101000a900473ffffffffffffffffffffffffffffffffffffffff16600160009054906101000a900473ffffffffffffffffffffffffffffffffffffffff16600560149054906101000a900460ff1689898930426040518963ffffffff1660e01b815260040161210b989796959493929190614ddf565b60408051808303816000875af1158015612129573d6000803e3d6000fd5b505050506040513d601f19601f8201168201806040525081019061214d9190614d9f565b9150915081965080955050505050509250929050565b600080600167ffffffffffffffff811115612181576121806141a0565b5b6040519080825280602002602001820160405280156121ba57816020015b6121a7613ccb565b81526020019060019003908161219f5790505b5090506040518060600160405280600160009054906101000a900473ffffffffffffffffffffffffffffffffffffffff1673ffffffffffffffffffffffffffffffffffffffff16815260200160008054906101000a900473ffffffffffffffffffffffffffffffffffffffff1673ffffffffffffffffffffffffffffffffffffffff168152602001600560149054906101000a900460ff1615158152508160008151811061226b5761226a614e5d565b5b60200260200101819052506000600360009054906101000a900473ffffffffffffffffffffffffffffffffffffffff1673ffffffffffffffffffffffffffffffffffffffff1663f41766d8856122c087612e1d565b8530426040518663ffffffff1660e01b81526004016122e3959493929190614f9b565b6000604051808303816000875af1158015612302573d6000803e3d6000fd5b505050506040513d6000823e3d601f19601f8201168201806040525081019061232b91906150b8565b90508060018151811061234157612340614e5d565b5b602002602001015192505050919050565b600080600080612360612ee6565b92509250925061236f8161307b565b61237883612e1d565b846123839190614d26565b61238d9190614d26565b935050505090565b60007ff0c57e16840df040f15088dc2f81fe391c3923bec73e23a9662efc9c229c6a00905090565b6123c5613154565b565b6123cf613154565b60006123d96117cb565b9050828160030190816123ec91906152a3565b50818160040190816123fe91906152a3565b50505050565b61240c613154565b806000806101000a81548173ffffffffffffffffffffffffffffffffffffffff021916908373ffffffffffffffffffffffffffffffffffffffff16021790555050565b612457613154565b81600160006101000a81548173ffffffffffffffffffffffffffffffffffffffff021916908373ffffffffffffffffffffffffffffffffffffffff16021790555080600260006101000a81548173ffffffffffffffffffffffffffffffffffffffff021916908373ffffffffffffffffffffffffffffffffffffffff1602179055505050565b6124e5613154565b8060000151600360006101000a81548173ffffffffffffffffffffffffffffffffffffffff021916908373ffffffffffffffffffffffffffffffffffffffff1602179055508060200151600460006101000a81548173ffffffffffffffffffffffffffffffffffffffff021916908373ffffffffffffffffffffffffffffffffffffffff1602179055508060400151600560006101000a81548173ffffffffffffffffffffffffffffffffffffffff021916908373ffffffffffffffffffffffffffffffffffffffff16021790555080606001516006819055508060800151600560146101000a81548160ff02191690831515021790555060005b8160a00151518110156126fa5760008260a00151828151811061260657612605614e5d565b5b60200260200101519050600781908060018154018082558091505060019003906000526020600020906002020160009091909190915060008201518160000160006101000a81548173ffffffffffffffffffffffffffffffffffffffff021916908373ffffffffffffffffffffffffffffffffffffffff16021790555060208201518160010160006101000a81548173ffffffffffffffffffffffffffffffffffffffff021916908373ffffffffffffffffffffffffffffffffffffffff16021790555060408201518160010160146101000a81548160ff02191690831515021790555050505080806001019150506125e0565b5050565b600080600061270c846129ad565b91509150600061271a610565565b9050600081036127515761272c613194565b670de0b6b3a7640000866127409190614ad4565b61274a9190614c1d565b93506127b8565b61275961319e565b50506000612765612352565b9050600061277284612e1d565b858861277e9190615375565b6127889190614d26565b905080826127969190615375565b61279e610565565b826127a99190614ad4565b6127b39190614c1d565b955050505b505050919050565b600073ffffffffffffffffffffffffffffffffffffffff168273ffffffffffffffffffffffffffffffffffffffff16036128325760006040517fec442f050000000000000000000000000000000000000000000000000000000081526004016128299190614a48565b60405180910390fd5b61283e60008383612bde565b5050565b600560009054906101000a900473ffffffffffffffffffffffffffffffffffffffff1673ffffffffffffffffffffffffffffffffffffffff16633d18b9126040518163ffffffff1660e01b8152600401600060405180830381600087803b1580156128ac57600080fd5b505af11580156128c0573d6000803e3d6000fd5b50505050565b6000806128d28361307b565b90506000600360009054906101000a900473ffffffffffffffffffffffffffffffffffffffff1673ffffffffffffffffffffffffffffffffffffffff1663f41766d88584600730426040518663ffffffff1660e01b815260040161293a959493929190615524565b6000604051808303816000875af1158015612959573d6000803e3d6000fd5b505050506040513d6000823e3d601f19601f8201168201806040525081019061298291906150b8565b9050806007805490508151811061299c5761299b614e5d565b5b602002602001015192505050919050565b600080600083146129ea576129c1836132b1565b91506129cc8261331d565b90506129e382846129dd9190615375565b8261350c565b50506129f3565b60009150600090505b915091565b6000612a026117cb565b9050600073ffffffffffffffffffffffffffffffffffffffff168573ffffffffffffffffffffffffffffffffffffffff1603612a765760006040517fe602df05000000000000000000000000000000000000000000000000000000008152600401612a6d9190614a48565b60405180910390fd5b600073ffffffffffffffffffffffffffffffffffffffff168473ffffffffffffffffffffffffffffffffffffffff1603612ae85760006040517f94280d62000000000000000000000000000000000000000000000000000000008152600401612adf9190614a48565b60405180910390fd5b828160010160008773ffffffffffffffffffffffffffffffffffffffff1673ffffffffffffffffffffffffffffffffffffffff16815260200190815260200160002060008673ffffffffffffffffffffffffffffffffffffffff1673ffffffffffffffffffffffffffffffffffffffff168152602001908152602001600020819055508115612bd7578373ffffffffffffffffffffffffffffffffffffffff168573ffffffffffffffffffffffffffffffffffffffff167f8c5be1e5ebec7d5bd14f71427d1e84f3dd0314c0f7b2291e5b200ac8c7c3b92585604051612bce9190613ef9565b60405180910390a35b5050505050565b6000612be86117cb565b9050600073ffffffffffffffffffffffffffffffffffffffff168473ffffffffffffffffffffffffffffffffffffffff1603612c3e5781816002016000828254612c329190614d26565b92505081905550612d17565b60008160000160008673ffffffffffffffffffffffffffffffffffffffff1673ffffffffffffffffffffffffffffffffffffffff16815260200190815260200160002054905082811015612ccd578481846040517fe450d38c000000000000000000000000000000000000000000000000000000008152600401612cc493929190614cef565b60405180910390fd5b8281038260000160008773ffffffffffffffffffffffffffffffffffffffff1673ffffffffffffffffffffffffffffffffffffffff16815260200190815260200160002081905550505b600073ffffffffffffffffffffffffffffffffffffffff168373ffffffffffffffffffffffffffffffffffffffff1603612d6257818160020160008282540392505081905550612db2565b818160000160008573ffffffffffffffffffffffffffffffffffffffff1673ffffffffffffffffffffffffffffffffffffffff168152602001908152602001600020600082825401925050819055505b8273ffffffffffffffffffffffffffffffffffffffff168473ffffffffffffffffffffffffffffffffffffffff167fddf252ad1be2c89b69c2b068fc378daa952ba7f163c4a11628f55a4df523b3ef84604051612e0f9190613ef9565b60405180910390a350505050565b6000600460009054906101000a900473ffffffffffffffffffffffffffffffffffffffff1673ffffffffffffffffffffffffffffffffffffffff1663f140a35a83600160009054906101000a900473ffffffffffffffffffffffffffffffffffffffff166040518363ffffffff1660e01b8152600401612e9e92919061557e565b602060405180830381865afa158015612ebb573d6000803e3d6000fd5b505050506040513d601f19601f82011682018060405250810190612edf9190614a78565b9050919050565b60008060008060008054906101000a900473ffffffffffffffffffffffffffffffffffffffff1673ffffffffffffffffffffffffffffffffffffffff166370a08231306040518263ffffffff1660e01b8152600401612f459190614a48565b602060405180830381865afa158015612f62573d6000803e3d6000fd5b505050506040513d601f19601f82011682018060405250810190612f869190614a78565b90506000600160009054906101000a900473ffffffffffffffffffffffffffffffffffffffff1673ffffffffffffffffffffffffffffffffffffffff166370a08231306040518263ffffffff1660e01b8152600401612fe59190614a48565b602060405180830381865afa158015613002573d6000803e3d6000fd5b505050506040513d601f19601f820116820180604052508101906130269190614a78565b90506000806130336137ac565b9150915060008061304261319e565b9150915083866130529190614d26565b985082856130609190614d26565b9750808261306e9190614d26565b9650505050505050909192565b600080600360009054906101000a900473ffffffffffffffffffffffffffffffffffffffff1673ffffffffffffffffffffffffffffffffffffffff16639881fcb48460076040518363ffffffff1660e01b81526004016130dc9291906155a7565b600060405180830381865afa1580156130f9573d6000803e3d6000fd5b505050506040513d6000823e3d601f19601f8201168201806040525081019061312291906150b8565b905080600182516131339190615375565b8151811061314457613143614e5d565b5b6020026020010151915050919050565b61315c613aa1565b613192576040517fd7e6bcf800000000000000000000000000000000000000000000000000000000815260040160405180910390fd5b565b6000600654905090565b600080600073ffffffffffffffffffffffffffffffffffffffff16600260009054906101000a900473ffffffffffffffffffffffffffffffffffffffff1673ffffffffffffffffffffffffffffffffffffffff16036132045760009150600090506132ad565b600260009054906101000a900473ffffffffffffffffffffffffffffffffffffffff1673ffffffffffffffffffffffffffffffffffffffff166370a08231306040518263ffffffff1660e01b815260040161325f9190614a48565b602060405180830381865afa15801561327c573d6000803e3d6000fd5b505050506040513d601f19601f820116820180604052508101906132a09190614a78565b91506132aa613ac1565b90505b9091565b6000806132bc613194565b905060006132c982613b63565b90506000806132d6613c2a565b91509150808484846132e89190614ad4565b6132f29190614c1d565b6132fc9190614d26565b81876133089190614ad4565b6133129190614c1d565b945050505050919050565b600080600167ffffffffffffffff81111561333b5761333a6141a0565b5b60405190808252806020026020018201604052801561337457816020015b613361613ccb565b8152602001906001900390816133595790505b509050604051806060016040528060008054906101000a900473ffffffffffffffffffffffffffffffffffffffff1673ffffffffffffffffffffffffffffffffffffffff168152602001600160009054906101000a900473ffffffffffffffffffffffffffffffffffffffff1673ffffffffffffffffffffffffffffffffffffffff168152602001600560149054906101000a900460ff1615158152508160008151811061342557613424614e5d565b5b60200260200101819052506000600360009054906101000a900473ffffffffffffffffffffffffffffffffffffffff1673ffffffffffffffffffffffffffffffffffffffff1663f41766d88561347a87613b63565b8530426040518663ffffffff1660e01b815260040161349d959493929190614f9b565b6000604051808303816000875af11580156134bc573d6000803e3d6000fd5b505050506040513d6000823e3d601f19601f820116820180604052508101906134e591906150b8565b9050806001815181106134fb576134fa614e5d565b5b602002602001015192505050919050565b6000806000600560149054906101000a900460ff169050600080600360009054906101000a900473ffffffffffffffffffffffffffffffffffffffff1673ffffffffffffffffffffffffffffffffffffffff166398a0fb3c60008054906101000a900473ffffffffffffffffffffffffffffffffffffffff16600160009054906101000a900473ffffffffffffffffffffffffffffffffffffffff16868b8b6040518663ffffffff1660e01b81526004016135cb9594939291906155d7565b606060405180830381865afa1580156135e8573d6000803e3d6000fd5b505050506040513d601f19601f8201168201806040525081019061360c919061562a565b50915091506000806000600360009054906101000a900473ffffffffffffffffffffffffffffffffffffffff1673ffffffffffffffffffffffffffffffffffffffff16635a47ddc360008054906101000a900473ffffffffffffffffffffffffffffffffffffffff16600160009054906101000a900473ffffffffffffffffffffffffffffffffffffffff168989898b8b30426040518a63ffffffff1660e01b81526004016136c39998979695949392919061567d565b6060604051808303816000875af11580156136e2573d6000803e3d6000fd5b505050506040513d601f19601f82011682018060405250810190613706919061562a565b925092509250829750819650600560009054906101000a900473ffffffffffffffffffffffffffffffffffffffff1673ffffffffffffffffffffffffffffffffffffffff1663b6b55f25826040518263ffffffff1660e01b815260040161376d9190613ef9565b600060405180830381600087803b15801561378757600080fd5b505af115801561379b573d6000803e3d6000fd5b505050505050505050509250929050565b6000806000600560009054906101000a900473ffffffffffffffffffffffffffffffffffffffff1673ffffffffffffffffffffffffffffffffffffffff166370a08231306040518263ffffffff1660e01b815260040161380c9190614a48565b602060405180830381865afa158015613829573d6000803e3d6000fd5b505050506040513d601f19601f8201168201806040525081019061384d9190614a78565b905060008060009054906101000a900473ffffffffffffffffffffffffffffffffffffffff1673ffffffffffffffffffffffffffffffffffffffff166370a08231600460009054906101000a900473ffffffffffffffffffffffffffffffffffffffff166040518263ffffffff1660e01b81526004016138cd9190614a48565b602060405180830381865afa1580156138ea573d6000803e3d6000fd5b505050506040513d601f19601f8201168201806040525081019061390e9190614a78565b90506000600160009054906101000a900473ffffffffffffffffffffffffffffffffffffffff1673ffffffffffffffffffffffffffffffffffffffff166370a08231600460009054906101000a900473ffffffffffffffffffffffffffffffffffffffff166040518263ffffffff1660e01b815260040161398f9190614a48565b602060405180830381865afa1580156139ac573d6000803e3d6000fd5b505050506040513d601f19601f820116820180604052508101906139d09190614a78565b90506000600460009054906101000a900473ffffffffffffffffffffffffffffffffffffffff1673ffffffffffffffffffffffffffffffffffffffff166318160ddd6040518163ffffffff1660e01b8152600401602060405180830381865afa158015613a41573d6000803e3d6000fd5b505050506040513d601f19601f82011682018060405250810190613a659190614a78565b9050808385613a749190614ad4565b613a7e9190614c1d565b9550808285613a8d9190614ad4565b613a979190614c1d565b9450505050509091565b6000613aab612395565b60000160089054906101000a900460ff16905090565b6000600560009054906101000a900473ffffffffffffffffffffffffffffffffffffffff1673ffffffffffffffffffffffffffffffffffffffff16628cc262306040518263ffffffff1660e01b8152600401613b1d9190614a48565b602060405180830381865afa158015613b3a573d6000803e3d6000fd5b505050506040513d601f19601f82011682018060405250810190613b5e9190614a78565b905090565b6000600460009054906101000a900473ffffffffffffffffffffffffffffffffffffffff1673ffffffffffffffffffffffffffffffffffffffff1663f140a35a8360008054906101000a900473ffffffffffffffffffffffffffffffffffffffff166040518363ffffffff1660e01b8152600401613be292919061557e565b602060405180830381865afa158015613bff573d6000803e3d6000fd5b505050506040513d601f19601f82011682018060405250810190613c239190614a78565b9050919050565b600080600460009054906101000a900473ffffffffffffffffffffffffffffffffffffffff1673ffffffffffffffffffffffffffffffffffffffff16630902f1ac6040518163ffffffff1660e01b8152600401606060405180830381865afa158015613c9a573d6000803e3d6000fd5b505050506040513d601f19601f82011682018060405250810190613cbe919061562a565b5080925081935050509091565b6040518060600160405280600073ffffffffffffffffffffffffffffffffffffffff168152602001600073ffffffffffffffffffffffffffffffffffffffff1681526020016000151581525090565b600081519050919050565b600082825260208201905092915050565b60005b83811015613d54578082015181840152602081019050613d39565b60008484015250505050565b6000601f19601f8301169050919050565b6000613d7c82613d1a565b613d868185613d25565b9350613d96818560208601613d36565b613d9f81613d60565b840191505092915050565b60006020820190508181036000830152613dc48184613d71565b905092915050565b6000604051905090565b600080fd5b600080fd5b600073ffffffffffffffffffffffffffffffffffffffff82169050919050565b6000613e0b82613de0565b9050919050565b613e1b81613e00565b8114613e2657600080fd5b50565b600081359050613e3881613e12565b92915050565b6000819050919050565b613e5181613e3e565b8114613e5c57600080fd5b50565b600081359050613e6e81613e48565b92915050565b60008060408385031215613e8b57613e8a613dd6565b5b6000613e9985828601613e29565b9250506020613eaa85828601613e5f565b9150509250929050565b60008115159050919050565b613ec981613eb4565b82525050565b6000602082019050613ee46000830184613ec0565b92915050565b613ef381613e3e565b82525050565b6000602082019050613f0e6000830184613eea565b92915050565b6000819050919050565b6000613f39613f34613f2f84613de0565b613f14565b613de0565b9050919050565b6000613f4b82613f1e565b9050919050565b6000613f5d82613f40565b9050919050565b613f6d81613f52565b82525050565b6000602082019050613f886000830184613f64565b92915050565b600080600060608486031215613fa757613fa6613dd6565b5b6000613fb586828701613e29565b9350506020613fc686828701613e29565b9250506040613fd786828701613e5f565b9150509250925092565b600060208284031215613ff757613ff6613dd6565b5b600061400584828501613e5f565b91505092915050565b600060ff82169050919050565b6140248161400e565b82525050565b600060208201905061403f600083018461401b565b92915050565b60006020828403121561405b5761405a613dd6565b5b600061406984828501613e29565b91505092915050565b61407b81613eb4565b811461408657600080fd5b50565b60008135905061409881614072565b92915050565b600080604083850312156140b5576140b4613dd6565b5b60006140c385828601613e29565b92505060206140d485828601614089565b9150509250929050565b600080604083850312156140f5576140f4613dd6565b5b600061410385828601613e5f565b925050602061411485828601613e5f565b9150509250929050565b600061412982613f40565b9050919050565b6141398161411e565b82525050565b60006020820190506141546000830184614130565b92915050565b600061416582613f40565b9050919050565b6141758161415a565b82525050565b6000602082019050614190600083018461416c565b92915050565b600080fd5b600080fd5b7f4e487b7100000000000000000000000000000000000000000000000000000000600052604160045260246000fd5b6141d882613d60565b810181811067ffffffffffffffff821117156141f7576141f66141a0565b5b80604052505050565b600061420a613dcc565b905061421682826141cf565b919050565b600067ffffffffffffffff821115614236576142356141a0565b5b61423f82613d60565b9050602081019050919050565b82818337600083830152505050565b600061426e6142698461421b565b614200565b90508281526020810184848401111561428a5761428961419b565b5b61429584828561424c565b509392505050565b600082601f8301126142b2576142b1614196565b5b81356142c284826020860161425b565b91505092915050565b60006142d682613e00565b9050919050565b6142e6816142cb565b81146142f157600080fd5b50565b600081359050614303816142dd565b92915050565b600080fd5b600080fd5b600061431e82613e00565b9050919050565b61432e81614313565b811461433957600080fd5b50565b60008135905061434b81614325565b92915050565b600061435c82613e00565b9050919050565b61436c81614351565b811461437757600080fd5b50565b60008135905061438981614363565b92915050565b600061439a82613e00565b9050919050565b6143aa8161438f565b81146143b557600080fd5b50565b6000813590506143c7816143a1565b92915050565b600067ffffffffffffffff8211156143e8576143e76141a0565b5b602082029050602081019050919050565b600080fd5b60006060828403121561441457614413614309565b5b61441e6060614200565b9050600061442e84828501613e29565b600083015250602061444284828501613e29565b602083015250604061445684828501614089565b60408301525092915050565b6000614475614470846143cd565b614200565b90508083825260208201905060608402830185811115614498576144976143f9565b5b835b818110156144c157806144ad88826143fe565b84526020840193505060608101905061449a565b5050509392505050565b600082601f8301126144e0576144df614196565b5b81356144f0848260208601614462565b91505092915050565b600060c0828403121561450f5761450e614309565b5b61451960c0614200565b905060006145298482850161433c565b600083015250602061453d8482850161437a565b6020830152506040614551848285016143b8565b604083015250606061456584828501613e5f565b606083015250608061457984828501614089565b60808301525060a082013567ffffffffffffffff81111561459d5761459c61430e565b5b6145a9848285016144cb565b60a08301525092915050565b60008060008060008060c087890312156145d2576145d1613dd6565b5b600087013567ffffffffffffffff8111156145f0576145ef613ddb565b5b6145fc89828a0161429d565b965050602087013567ffffffffffffffff81111561461d5761461c613ddb565b5b61462989828a0161429d565b955050604061463a89828a016142f4565b945050606061464b89828a016142f4565b935050608061465c89828a016142f4565b92505060a087013567ffffffffffffffff81111561467d5761467c613ddb565b5b61468989828a016144f9565b9150509295509295509295565b600080604083850312156146ad576146ac613dd6565b5b60006146bb85828601614089565b92505060206146cc85828601614089565b9150509250929050565b600080604083850312156146ed576146ec613dd6565b5b60006146fb85828601613e29565b925050602061470c85828601613e29565b9150509250929050565b600061472182613f40565b9050919050565b61473181614716565b82525050565b600060208201905061474c6000830184614728565b92915050565b7f4e487b7100000000000000000000000000000000000000000000000000000000600052602260045260246000fd5b6000600282049050600182168061479957607f821691505b6020821081036147ac576147ab614752565b5b50919050565b7f4e6f745573657200000000000000000000000000000000000000000000000000600082015250565b60006147e8600783613d25565b91506147f3826147b2565b602082019050919050565b60006020820190508181036000830152614817816147db565b9050919050565b7f5a65726f20616d6f756e74000000000000000000000000000000000000000000600082015250565b6000614854600b83613d25565b915061485f8261481e565b602082019050919050565b6000602082019050818103600083015261488381614847565b9050919050565b61489381613e00565b82525050565b60006040820190506148ae600083018561488a565b6148bb6020830184613eea565b9392505050565b6000815190506148d181614072565b92915050565b6000602082840312156148ed576148ec613dd6565b5b60006148fb848285016148c2565b91505092915050565b7f5472616e73666572206661696c65640000000000000000000000000000000000600082015250565b600061493a600f83613d25565b915061494582614904565b602082019050919050565b600060208201905081810360008301526149698161492d565b9050919050565b7f6f776e657220616c726561647920736574000000000000000000000000000000600082015250565b60006149a6601183613d25565b91506149b182614970565b602082019050919050565b600060208201905081810360008301526149d581614999565b9050919050565b7f4e4f545f415554484f52495a4544000000000000000000000000000000000000600082015250565b6000614a12600e83613d25565b9150614a1d826149dc565b602082019050919050565b60006020820190508181036000830152614a4181614a05565b9050919050565b6000602082019050614a5d600083018461488a565b92915050565b600081519050614a7281613e48565b92915050565b600060208284031215614a8e57614a8d613dd6565b5b6000614a9c84828501614a63565b91505092915050565b7f4e487b7100000000000000000000000000000000000000000000000000000000600052601160045260246000fd5b6000614adf82613e3e565b9150614aea83613e3e565b9250828202614af881613e3e565b91508282048414831517614b0f57614b0e614aa5565b5b5092915050565b7f6d696e696d616c20707269636500000000000000000000000000000000000000600082015250565b6000614b4c600d83613d25565b9150614b5782614b16565b602082019050919050565b60006020820190508181036000830152614b7b81614b3f565b9050919050565b7f6d6178696d616c20707269636500000000000000000000000000000000000000600082015250565b6000614bb8600d83613d25565b9150614bc382614b82565b602082019050919050565b60006020820190508181036000830152614be781614bab565b9050919050565b7f4e487b7100000000000000000000000000000000000000000000000000000000600052601260045260246000fd5b6000614c2882613e3e565b9150614c3383613e3e565b925082614c4357614c42614bee565b5b828204905092915050565b6000819050919050565b600067ffffffffffffffff82169050919050565b6000614c87614c82614c7d84614c4e565b613f14565b614c58565b9050919050565b614c9781614c6c565b82525050565b6000602082019050614cb26000830184614c8e565b92915050565b6000606082019050614ccd600083018661488a565b614cda602083018561488a565b614ce76040830184613eea565b949350505050565b6000606082019050614d04600083018661488a565b614d116020830185613eea565b614d1e6040830184613eea565b949350505050565b6000614d3182613e3e565b9150614d3c83613e3e565b9250828201905080821115614d5457614d53614aa5565b5b92915050565b6000608082019050614d6f600083018761488a565b614d7c602083018661488a565b614d896040830185613ec0565b614d966060830184613eea565b95945050505050565b60008060408385031215614db657614db5613dd6565b5b6000614dc485828601614a63565b9250506020614dd585828601614a63565b9150509250929050565b600061010082019050614df5600083018b61488a565b614e02602083018a61488a565b614e0f6040830189613ec0565b614e1c6060830188613eea565b614e296080830187613eea565b614e3660a0830186613eea565b614e4360c083018561488a565b614e5060e0830184613eea565b9998505050505050505050565b7f4e487b7100000000000000000000000000000000000000000000000000000000600052603260045260246000fd5b600081519050919050565b600082825260208201905092915050565b6000819050602082019050919050565b614ec181613e00565b82525050565b614ed081613eb4565b82525050565b606082016000820151614eec6000850182614eb8565b506020820151614eff6020850182614eb8565b506040820151614f126040850182614ec7565b50505050565b6000614f248383614ed6565b60608301905092915050565b6000602082019050919050565b6000614f4882614e8c565b614f528185614e97565b9350614f5d83614ea8565b8060005b83811015614f8e578151614f758882614f18565b9750614f8083614f30565b925050600181019050614f61565b5085935050505092915050565b600060a082019050614fb06000830188613eea565b614fbd6020830187613eea565b8181036040830152614fcf8186614f3d565b9050614fde606083018561488a565b614feb6080830184613eea565b9695505050505050565b600067ffffffffffffffff8211156150105761500f6141a0565b5b602082029050602081019050919050565b600061503461502f84614ff5565b614200565b90508083825260208201905060208402830185811115615057576150566143f9565b5b835b81811015615080578061506c8882614a63565b845260208401935050602081019050615059565b5050509392505050565b600082601f83011261509f5761509e614196565b5b81516150af848260208601615021565b91505092915050565b6000602082840312156150ce576150cd613dd6565b5b600082015167ffffffffffffffff8111156150ec576150eb613ddb565b5b6150f88482850161508a565b91505092915050565b60008190508160005260206000209050919050565b60006020601f8301049050919050565b600082821b905092915050565b6000600883026151637fffffffffffffffffffffffffffffffffffffffffffffffffffffffffffffffff82615126565b61516d8683615126565b95508019841693508086168417925050509392505050565b60006151a061519b61519684613e3e565b613f14565b613e3e565b9050919050565b6000819050919050565b6151ba83615185565b6151ce6151c6826151a7565b848454615133565b825550505050565b600090565b6151e36151d6565b6151ee8184846151b1565b505050565b5b81811015615212576152076000826151db565b6001810190506151f4565b5050565b601f8211156152575761522881615101565b61523184615116565b81016020851015615240578190505b61525461524c85615116565b8301826151f3565b50505b505050565b600082821c905092915050565b600061527a6000198460080261525c565b1980831691505092915050565b60006152938383615269565b9150826002028217905092915050565b6152ac82613d1a565b67ffffffffffffffff8111156152c5576152c46141a0565b5b6152cf8254614781565b6152da828285615216565b600060209050601f83116001811461530d57600084156152fb578287015190505b6153058582615287565b86555061536d565b601f19841661531b86615101565b60005b828110156153435784890151825560018201915060208501945060208101905061531e565b86831015615360578489015161535c601f891682615269565b8355505b6001600288020188555050505b505050505050565b600061538082613e3e565b915061538b83613e3e565b92508282039050818111156153a3576153a2614aa5565b5b92915050565b600081549050919050565b60008190508160005260206000209050919050565b60008160001c9050919050565b600073ffffffffffffffffffffffffffffffffffffffff82169050919050565b6000615409615404836153c9565b6153d6565b9050919050565b60008160a01c9050919050565b600060ff82169050919050565b600061543d61543883615410565b61541d565b9050919050565b606082016000808301549050615459816153f6565b6154666000860182614eb8565b5060018301549050615477816153f6565b6154846020860182614eb8565b5061548e8161542a565b61549b6040860182614ec7565b5050505050565b60006154ae8383615444565b60608301905092915050565b6000600282019050919050565b60006154d2826153a9565b6154dc8185614e97565b93506154e7836153b4565b8060005b8381101561551757816154fe88826154a2565b9750615509836154ba565b9250506001810190506154eb565b5085935050505092915050565b600060a0820190506155396000830188613eea565b6155466020830187613eea565b818103604083015261555881866154c7565b9050615567606083018561488a565b6155746080830184613eea565b9695505050505050565b60006040820190506155936000830185613eea565b6155a0602083018461488a565b9392505050565b60006040820190506155bc6000830185613eea565b81810360208301526155ce81846154c7565b90509392505050565b600060a0820190506155ec600083018861488a565b6155f9602083018761488a565b6156066040830186613ec0565b6156136060830185613eea565b6156206080830184613eea565b9695505050505050565b60008060006060848603121561564357615642613dd6565b5b600061565186828701614a63565b935050602061566286828701614a63565b925050604061567386828701614a63565b9150509250925092565b600061012082019050615693600083018c61488a565b6156a0602083018b61488a565b6156ad604083018a613ec0565b6156ba6060830189613eea565b6156c76080830188613eea565b6156d460a0830187613eea565b6156e160c0830186613eea565b6156ee60e083018561488a565b6156fc610100830184613eea565b9a995050505050505050505056fea264697066735822122082dc016a87bf2888da3a581cf7cc617b38722659c66de90483da389202fcc1c764736f6c63430008180033",
  "devdoc": {
    "errors": {
      "ERC20InsufficientAllowance(address,uint256,uint256)": [
        {
          "details": "Indicates a failure with the `spender`s `allowance`. Used in transfers.",
          "params": {
            "allowance": "Amount of tokens a `spender` is allowed to operate with.",
            "needed": "Minimum amount required to perform a transfer.",
            "spender": "Address that may be allowed to operate on tokens without being their owner."
          }
        }
      ],
      "ERC20InsufficientBalance(address,uint256,uint256)": [
        {
          "details": "Indicates an error related to the current `balance` of a `sender`. Used in transfers.",
          "params": {
            "balance": "Current balance for the interacting account.",
            "needed": "Minimum amount required to perform a transfer.",
            "sender": "Address whose tokens are being transferred."
          }
        }
      ],
      "ERC20InvalidApprover(address)": [
        {
          "details": "Indicates a failure with the `approver` of a token to be approved. Used in approvals.",
          "params": {
            "approver": "Address initiating an approval operation."
          }
        }
      ],
      "ERC20InvalidReceiver(address)": [
        {
          "details": "Indicates a failure with the token `receiver`. Used in transfers.",
          "params": {
            "receiver": "Address to which tokens are being transferred."
          }
        }
      ],
      "ERC20InvalidSender(address)": [
        {
          "details": "Indicates a failure with the token `sender`. Used in transfers.",
          "params": {
            "sender": "Address whose tokens are being transferred."
          }
        }
      ],
      "ERC20InvalidSpender(address)": [
        {
          "details": "Indicates a failure with the `spender` to be approved. Used in approvals.",
          "params": {
            "spender": "Address that may be allowed to operate on tokens without being their owner."
          }
        }
      ],
      "InvalidInitialization()": [
        {
          "details": "The contract is already initialized."
        }
      ],
      "NotInitializing()": [
        {
          "details": "The contract is not initializing."
        }
      ]
    },
    "events": {
      "Approval(address,address,uint256)": {
        "details": "Emitted when the allowance of a `spender` for an `owner` is set by a call to {approve}. `value` is the new allowance."
      },
      "Initialized(uint64)": {
        "details": "Triggered when the contract has been initialized or reinitialized."
      },
      "Transfer(address,address,uint256)": {
        "details": "Emitted when `value` tokens are moved from one account (`from`) to another (`to`). Note that `value` may be zero."
      }
    },
    "kind": "dev",
    "methods": {
      "alarm(uint256,uint256)": {
        "params": {
          "maxOut": "Maximal price for the secondary -> primary conversion (e.g 1000100000000)",
          "minOut": "Minimal price for the secondary -> primary conversion (e.g 1010000000000)"
        }
      },
      "allowance(address,address)": {
        "details": "See {IERC20-allowance}."
      },
      "approve(address,uint256)": {
        "details": "See {IERC20-approve}. NOTE: If `value` is the maximum `uint256`, the allowance is not updated on `transferFrom`. This is semantically equivalent to an infinite approval. Requirements: - `spender` cannot be the zero address."
      },
      "balanceOf(address)": {
        "details": "See {IERC20-balanceOf}."
      },
      "decimals()": {
        "details": "Returns the number of decimals used to get its user representation. For example, if `decimals` equals `2`, a balance of `505` tokens should be displayed to a user as `5.05` (`505 / 10 ** 2`). Tokens usually opt for a value of 18, imitating the relationship between Ether and Wei. This is the default value returned by this function, unless it's overridden. NOTE: This information is only used for _display_ purposes: it in no way affects any of the arithmetic of the contract, including {IERC20-balanceOf} and {IERC20-transfer}."
      },
      "deposit(uint256)": {
        "details": "Deposits primary token and issues this token"
      },
      "name()": {
        "details": "Returns the name of the token."
      },
      "reinvest(bool,bool)": {
        "details": "it does it easy way - just exchanges everything to primary first and then runs part of deposit function"
      },
      "symbol()": {
        "details": "Returns the symbol of the token, usually a shorter version of the name."
      },
      "totalSupply()": {
        "details": "See {IERC20-totalSupply}."
      },
      "transfer(address,uint256)": {
        "details": "See {IERC20-transfer}. Requirements: - `to` cannot be the zero address. - the caller must have a balance of at least `value`."
      },
      "transferFrom(address,address,uint256)": {
        "details": "See {IERC20-transferFrom}. Emits an {Approval} event indicating the updated allowance. This is not required by the EIP. See the note at the beginning of {ERC20}. NOTE: Does not update the allowance if the current allowance is the maximum `uint256`. Requirements: - `from` and `to` cannot be the zero address. - `from` must have a balance of at least `value`. - the caller must have allowance for ``from``'s tokens of at least `value`."
      },
      "withdraw(uint256)": {
        "details": "Burns this token and withdraws primary investment token"
      }
    },
    "version": 1
  },
  "userdoc": {
    "kind": "user",
    "methods": {
      "alarm(uint256,uint256)": {
        "notice": "Invoked on depeg of the stablecoin"
      },
      "calculateValue(address)": {
        "notice": "calculates value for the wallet denominated in primary tokens"
      },
      "reinvest(bool,bool)": {
        "notice": "Reinvests everything's owned into DEX (including rewards)"
      }
    },
    "version": 1
  },
  "storageLayout": {
    "storage": [
      {
        "astId": 1947,
        "contract": "contracts/v2/TokanDexInvestment.sol:TokanDexInvestment",
        "label": "primary",
        "offset": 0,
        "slot": "0",
        "type": "t_contract(IERC20)1131"
      },
      {
        "astId": 1346,
        "contract": "contracts/v2/TokanDexInvestment.sol:TokanDexInvestment",
        "label": "secondary",
        "offset": 0,
        "slot": "1",
        "type": "t_contract(IERC20)1131"
      },
      {
        "astId": 1349,
        "contract": "contracts/v2/TokanDexInvestment.sol:TokanDexInvestment",
        "label": "reward",
        "offset": 0,
        "slot": "2",
        "type": "t_contract(IERC20)1131"
      },
      {
        "astId": 2192,
        "contract": "contracts/v2/TokanDexInvestment.sol:TokanDexInvestment",
        "label": "router",
        "offset": 0,
        "slot": "3",
        "type": "t_contract(TokanRouter)1336"
      },
      {
        "astId": 2195,
        "contract": "contracts/v2/TokanDexInvestment.sol:TokanDexInvestment",
        "label": "pair",
        "offset": 0,
        "slot": "4",
        "type": "t_contract(TokanPair)1212"
      },
      {
        "astId": 2198,
        "contract": "contracts/v2/TokanDexInvestment.sol:TokanDexInvestment",
        "label": "gauge",
        "offset": 0,
        "slot": "5",
        "type": "t_contract(TokanGauge)1188"
      },
      {
        "astId": 2200,
        "contract": "contracts/v2/TokanDexInvestment.sol:TokanDexInvestment",
        "label": "stable",
        "offset": 20,
        "slot": "5",
        "type": "t_bool"
      },
      {
        "astId": 2202,
        "contract": "contracts/v2/TokanDexInvestment.sol:TokanDexInvestment",
        "label": "decimalsA",
        "offset": 0,
        "slot": "6",
        "type": "t_uint256"
      },
      {
        "astId": 2206,
        "contract": "contracts/v2/TokanDexInvestment.sol:TokanDexInvestment",
        "label": "rewardExchangeRoute",
        "offset": 0,
        "slot": "7",
        "type": "t_array(t_struct(Route)1221_storage)dyn_storage"
      },
      {
        "astId": 2210,
        "contract": "contracts/v2/TokanDexInvestment.sol:TokanDexInvestment",
        "label": "users",
        "offset": 0,
        "slot": "8",
        "type": "t_mapping(t_address,t_bool)"
      }
    ],
    "types": {
      "t_address": {
        "encoding": "inplace",
        "label": "address",
        "numberOfBytes": "20"
      },
      "t_array(t_struct(Route)1221_storage)dyn_storage": {
        "base": "t_struct(Route)1221_storage",
        "encoding": "dynamic_array",
        "label": "struct TokanRouter.Route[]",
        "numberOfBytes": "32"
      },
      "t_bool": {
        "encoding": "inplace",
        "label": "bool",
        "numberOfBytes": "1"
      },
      "t_contract(IERC20)1131": {
        "encoding": "inplace",
        "label": "contract IERC20",
        "numberOfBytes": "20"
      },
      "t_contract(TokanGauge)1188": {
        "encoding": "inplace",
        "label": "contract TokanGauge",
        "numberOfBytes": "20"
      },
      "t_contract(TokanPair)1212": {
        "encoding": "inplace",
        "label": "contract TokanPair",
        "numberOfBytes": "20"
      },
      "t_contract(TokanRouter)1336": {
        "encoding": "inplace",
        "label": "contract TokanRouter",
        "numberOfBytes": "20"
      },
      "t_mapping(t_address,t_bool)": {
        "encoding": "mapping",
        "key": "t_address",
        "label": "mapping(address => bool)",
        "numberOfBytes": "32",
        "value": "t_bool"
      },
      "t_struct(Route)1221_storage": {
        "encoding": "inplace",
        "label": "struct TokanRouter.Route",
        "members": [
          {
            "astId": 1216,
            "contract": "contracts/v2/TokanDexInvestment.sol:TokanDexInvestment",
            "label": "from",
            "offset": 0,
            "slot": "0",
            "type": "t_address"
          },
          {
            "astId": 1218,
            "contract": "contracts/v2/TokanDexInvestment.sol:TokanDexInvestment",
            "label": "to",
            "offset": 0,
            "slot": "1",
            "type": "t_address"
          },
          {
            "astId": 1220,
            "contract": "contracts/v2/TokanDexInvestment.sol:TokanDexInvestment",
            "label": "stable",
            "offset": 20,
            "slot": "1",
            "type": "t_bool"
          }
        ],
        "numberOfBytes": "64"
      },
      "t_uint256": {
        "encoding": "inplace",
        "label": "uint256",
        "numberOfBytes": "32"
      }
    }
  }
}