{
  "address": "0xec65B0630E10E6E0727CAB590c655349b69b0102",
  "abi": [
    {
      "inputs": [
        {
          "internalType": "address",
          "name": "spender",
          "type": "address"
        },
        {
          "internalType": "uint256",
          "name": "allowance",
          "type": "uint256"
        },
        {
          "internalType": "uint256",
          "name": "needed",
          "type": "uint256"
        }
      ],
      "name": "ERC20InsufficientAllowance",
      "type": "error"
    },
    {
      "inputs": [
        {
          "internalType": "address",
          "name": "sender",
          "type": "address"
        },
        {
          "internalType": "uint256",
          "name": "balance",
          "type": "uint256"
        },
        {
          "internalType": "uint256",
          "name": "needed",
          "type": "uint256"
        }
      ],
      "name": "ERC20InsufficientBalance",
      "type": "error"
    },
    {
      "inputs": [
        {
          "internalType": "address",
          "name": "approver",
          "type": "address"
        }
      ],
      "name": "ERC20InvalidApprover",
      "type": "error"
    },
    {
      "inputs": [
        {
          "internalType": "address",
          "name": "receiver",
          "type": "address"
        }
      ],
      "name": "ERC20InvalidReceiver",
      "type": "error"
    },
    {
      "inputs": [
        {
          "internalType": "address",
          "name": "sender",
          "type": "address"
        }
      ],
      "name": "ERC20InvalidSender",
      "type": "error"
    },
    {
      "inputs": [
        {
          "internalType": "address",
          "name": "spender",
          "type": "address"
        }
      ],
      "name": "ERC20InvalidSpender",
      "type": "error"
    },
    {
      "inputs": [],
      "name": "InvalidInitialization",
      "type": "error"
    },
    {
      "inputs": [],
      "name": "NotInitializing",
      "type": "error"
    },
    {
      "anonymous": false,
      "inputs": [
        {
          "indexed": true,
          "internalType": "address",
          "name": "owner",
          "type": "address"
        },
        {
          "indexed": true,
          "internalType": "address",
          "name": "spender",
          "type": "address"
        },
        {
          "indexed": false,
          "internalType": "uint256",
          "name": "value",
          "type": "uint256"
        }
      ],
      "name": "Approval",
      "type": "event"
    },
    {
      "anonymous": false,
      "inputs": [
        {
          "indexed": false,
          "internalType": "uint64",
          "name": "version",
          "type": "uint64"
        }
      ],
      "name": "Initialized",
      "type": "event"
    },
    {
      "anonymous": false,
      "inputs": [
        {
          "indexed": false,
          "internalType": "string",
          "name": "title",
          "type": "string"
        },
        {
          "indexed": false,
          "internalType": "uint256",
          "name": "value",
          "type": "uint256"
        }
      ],
      "name": "TestValue",
      "type": "event"
    },
    {
      "anonymous": false,
      "inputs": [
        {
          "indexed": true,
          "internalType": "address",
          "name": "from",
          "type": "address"
        },
        {
          "indexed": true,
          "internalType": "address",
          "name": "to",
          "type": "address"
        },
        {
          "indexed": false,
          "internalType": "uint256",
          "name": "value",
          "type": "uint256"
        }
      ],
      "name": "Transfer",
      "type": "event"
    },
    {
      "inputs": [
        {
          "internalType": "string",
          "name": "name_",
          "type": "string"
        },
        {
          "internalType": "string",
          "name": "symbol_",
          "type": "string"
        },
        {
          "internalType": "contract IERC20",
          "name": "_primary",
          "type": "address"
        },
        {
          "internalType": "contract IERC20",
          "name": "_secondary",
          "type": "address"
        },
        {
          "internalType": "contract IERC20",
          "name": "_reward",
          "type": "address"
        },
        {
          "components": [
            {
              "internalType": "contract TokanRouter",
              "name": "router",
              "type": "address"
            },
            {
              "internalType": "contract TokanPair",
              "name": "pair",
              "type": "address"
            },
            {
              "internalType": "contract TokanGauge",
              "name": "gauge",
              "type": "address"
            },
            {
              "internalType": "uint256",
              "name": "decimalsA",
              "type": "uint256"
            },
            {
              "internalType": "bool",
              "name": "stable",
              "type": "bool"
            },
            {
              "components": [
                {
                  "internalType": "address",
                  "name": "from",
                  "type": "address"
                },
                {
                  "internalType": "address",
                  "name": "to",
                  "type": "address"
                },
                {
                  "internalType": "bool",
                  "name": "stable",
                  "type": "bool"
                }
              ],
              "internalType": "struct TokanRouter.Route[]",
              "name": "rewardExchangeRoute",
              "type": "tuple[]"
            }
          ],
          "internalType": "struct TokanDexInvestment.TokanDexInvestmentConfig",
          "name": "config",
          "type": "tuple"
        }
      ],
      "name": "__TokanDexInvestment_init",
      "outputs": [],
      "stateMutability": "nonpayable",
      "type": "function"
    },
    {
      "inputs": [
        {
          "internalType": "address",
          "name": "owner",
          "type": "address"
        },
        {
          "internalType": "address",
          "name": "spender",
          "type": "address"
        }
      ],
      "name": "allowance",
      "outputs": [
        {
          "internalType": "uint256",
          "name": "",
          "type": "uint256"
        }
      ],
      "stateMutability": "view",
      "type": "function"
    },
    {
      "inputs": [
        {
          "internalType": "address",
          "name": "spender",
          "type": "address"
        },
        {
          "internalType": "uint256",
          "name": "value",
          "type": "uint256"
        }
      ],
      "name": "approve",
      "outputs": [
        {
          "internalType": "bool",
          "name": "",
          "type": "bool"
        }
      ],
      "stateMutability": "nonpayable",
      "type": "function"
    },
    {
      "inputs": [],
      "name": "approveAll",
      "outputs": [],
      "stateMutability": "nonpayable",
      "type": "function"
    },
    {
      "inputs": [
        {
          "internalType": "address",
          "name": "account",
          "type": "address"
        }
      ],
      "name": "balanceOf",
      "outputs": [
        {
          "internalType": "uint256",
          "name": "",
          "type": "uint256"
        }
      ],
      "stateMutability": "view",
      "type": "function"
    },
    {
      "inputs": [
        {
          "internalType": "address",
          "name": "wallet",
          "type": "address"
        }
      ],
      "name": "calculateValue",
      "outputs": [
        {
          "internalType": "uint256",
          "name": "value",
          "type": "uint256"
        }
      ],
      "stateMutability": "view",
      "type": "function"
    },
    {
      "inputs": [],
      "name": "decimals",
      "outputs": [
        {
          "internalType": "uint8",
          "name": "",
          "type": "uint8"
        }
      ],
      "stateMutability": "view",
      "type": "function"
    },
    {
      "inputs": [
        {
          "internalType": "uint256",
          "name": "amount",
          "type": "uint256"
        }
      ],
      "name": "deposit",
      "outputs": [
        {
          "internalType": "uint256",
          "name": "issued",
          "type": "uint256"
        }
      ],
      "stateMutability": "nonpayable",
      "type": "function"
    },
    {
      "inputs": [],
      "name": "gauge",
      "outputs": [
        {
          "internalType": "contract TokanGauge",
          "name": "",
          "type": "address"
        }
      ],
      "stateMutability": "view",
      "type": "function"
    },
    {
      "inputs": [],
      "name": "name",
      "outputs": [
        {
          "internalType": "string",
          "name": "",
          "type": "string"
        }
      ],
      "stateMutability": "view",
      "type": "function"
    },
    {
      "inputs": [],
      "name": "pair",
      "outputs": [
        {
          "internalType": "contract TokanPair",
          "name": "",
          "type": "address"
        }
      ],
      "stateMutability": "view",
      "type": "function"
    },
    {
      "inputs": [],
      "name": "primary",
      "outputs": [
        {
          "internalType": "contract IERC20",
          "name": "",
          "type": "address"
        }
      ],
      "stateMutability": "view",
      "type": "function"
    },
    {
      "inputs": [
        {
          "internalType": "bool",
          "name": "reinvestSecondary",
          "type": "bool"
        },
        {
          "internalType": "bool",
          "name": "reinvestRewards",
          "type": "bool"
        }
      ],
      "name": "reinvest",
      "outputs": [],
      "stateMutability": "nonpayable",
      "type": "function"
    },
    {
      "inputs": [],
      "name": "reward",
      "outputs": [
        {
          "internalType": "contract IERC20",
          "name": "",
          "type": "address"
        }
      ],
      "stateMutability": "view",
      "type": "function"
    },
    {
      "inputs": [
        {
          "internalType": "uint256",
          "name": "",
          "type": "uint256"
        }
      ],
      "name": "rewardExchangeRoute",
      "outputs": [
        {
          "internalType": "address",
          "name": "from",
          "type": "address"
        },
        {
          "internalType": "address",
          "name": "to",
          "type": "address"
        },
        {
          "internalType": "bool",
          "name": "stable",
          "type": "bool"
        }
      ],
      "stateMutability": "view",
      "type": "function"
    },
    {
      "inputs": [],
      "name": "router",
      "outputs": [
        {
          "internalType": "contract TokanRouter",
          "name": "",
          "type": "address"
        }
      ],
      "stateMutability": "view",
      "type": "function"
    },
    {
      "inputs": [],
      "name": "secondary",
      "outputs": [
        {
          "internalType": "contract IERC20",
          "name": "",
          "type": "address"
        }
      ],
      "stateMutability": "view",
      "type": "function"
    },
    {
      "inputs": [],
      "name": "stable",
      "outputs": [
        {
          "internalType": "bool",
          "name": "",
          "type": "bool"
        }
      ],
      "stateMutability": "view",
      "type": "function"
    },
    {
      "inputs": [],
      "name": "symbol",
      "outputs": [
        {
          "internalType": "string",
          "name": "",
          "type": "string"
        }
      ],
      "stateMutability": "view",
      "type": "function"
    },
    {
      "inputs": [],
      "name": "totalSupply",
      "outputs": [
        {
          "internalType": "uint256",
          "name": "",
          "type": "uint256"
        }
      ],
      "stateMutability": "view",
      "type": "function"
    },
    {
      "inputs": [
        {
          "internalType": "address",
          "name": "to",
          "type": "address"
        },
        {
          "internalType": "uint256",
          "name": "value",
          "type": "uint256"
        }
      ],
      "name": "transfer",
      "outputs": [
        {
          "internalType": "bool",
          "name": "",
          "type": "bool"
        }
      ],
      "stateMutability": "nonpayable",
      "type": "function"
    },
    {
      "inputs": [
        {
          "internalType": "address",
          "name": "from",
          "type": "address"
        },
        {
          "internalType": "address",
          "name": "to",
          "type": "address"
        },
        {
          "internalType": "uint256",
          "name": "value",
          "type": "uint256"
        }
      ],
      "name": "transferFrom",
      "outputs": [
        {
          "internalType": "bool",
          "name": "",
          "type": "bool"
        }
      ],
      "stateMutability": "nonpayable",
      "type": "function"
    },
    {
      "inputs": [
        {
          "internalType": "uint256",
          "name": "amount",
          "type": "uint256"
        }
      ],
      "name": "withdraw",
      "outputs": [
        {
          "internalType": "uint256",
          "name": "withdrawn",
          "type": "uint256"
        }
      ],
      "stateMutability": "nonpayable",
      "type": "function"
    }
  ],
  "transactionHash": "0x3984a52332ee4e8b025b666175f011e2df727703592fdbc89d8e53f942912fe3",
  "args": [],
  "numDeployments": 6,
  "solcInputHash": "f3484ef81505aed5c3b06751790adb2b",
  "bytecode": "0x608060405234801561001057600080fd5b50615f8480620000216000396000f3fe608060405234801561001057600080fd5b506004361061014d5760003560e01c80639d3c8cc4116100c3578063b6b55f251161007c578063b6b55f25146103a6578063b7ae7e39146103d6578063c6dbdf61146103f2578063dd62ed3e14610410578063e598bbf614610440578063f887ea40146104725761014d565b80639d3c8cc4146102d0578063a6f19c84146102ee578063a8aa1b311461030c578063a9059cbb1461032a578063af79b2a61461035a578063b4d8b8c81461038a5761014d565b806323b872dd1161011557806323b872dd146101fa5780632e1a7d4d1461022a578063313ce5671461025a578063380d0c081461027857806370a082311461028257806395d89b41146102b25761014d565b806306fdde0314610152578063095ea7b31461017057806318160ddd146101a0578063228cb733146101be57806322be3de1146101dc575b600080fd5b61015a610490565b6040516101679190613ecb565b60405180910390f35b61018a60048036038101906101859190613f95565b610531565b6040516101979190613ff0565b60405180910390f35b6101a8610554565b6040516101b5919061401a565b60405180910390f35b6101c661056c565b6040516101d39190614094565b60405180910390f35b6101e4610592565b6040516101f19190613ff0565b60405180910390f35b610214600480360381019061020f91906140af565b6105a5565b6040516102219190613ff0565b60405180910390f35b610244600480360381019061023f9190614102565b6105d4565b604051610251919061401a565b60405180910390f35b610262610731565b60405161026f919061414b565b60405180910390f35b61028061073a565b005b61029c60048036038101906102979190614166565b610ba9565b6040516102a9919061401a565b60405180910390f35b6102ba610c00565b6040516102c79190613ecb565b60405180910390f35b6102d8610ca1565b6040516102e59190614094565b60405180910390f35b6102f6610cc7565b60405161030391906141b4565b60405180910390f35b610314610ced565b60405161032191906141f0565b60405180910390f35b610344600480360381019061033f9190613f95565b610d13565b6040516103519190613ff0565b60405180910390f35b610374600480360381019061036f9190614166565b610d36565b604051610381919061401a565b60405180910390f35b6103a4600480360381019061039f9190614656565b610d7d565b005b6103c060048036038101906103bb9190614102565b610f3e565b6040516103cd919061401a565b60405180910390f35b6103f060048036038101906103eb9190614737565b61108f565b005b6103fa61130e565b6040516104079190614094565b60405180910390f35b61042a60048036038101906104259190614777565b611332565b604051610437919061401a565b60405180910390f35b61045a60048036038101906104559190614102565b6113c7565b604051610469939291906147c6565b60405180910390f35b61047a61144e565b604051610487919061481e565b60405180910390f35b6060600061049c611474565b90508060030180546104ad90614868565b80601f01602080910402602001604051908101604052809291908181526020018280546104d990614868565b80156105265780601f106104fb57610100808354040283529160200191610526565b820191906000526020600020905b81548152906001019060200180831161050957829003601f168201915b505050505091505090565b60008061053c61149c565b90506105498185856114a4565b600191505092915050565b60008061055f611474565b9050806002015491505090565b600260009054906101000a900473ffffffffffffffffffffffffffffffffffffffff1681565b600560149054906101000a900460ff1681565b6000806105b061149c565b90506105bd8582856114b6565b6105c885858561154a565b60019150509392505050565b6000808211610618576040517f08c379a000000000000000000000000000000000000000000000000000000000815260040161060f906148e5565b60405180910390fd5b6000610622610554565b905061063561062f61149c565b8461163e565b600061064184836116c0565b905060008054906101000a900473ffffffffffffffffffffffffffffffffffffffff1673ffffffffffffffffffffffffffffffffffffffff1663a9059cbb61068761149c565b836040518363ffffffff1660e01b81526004016106a5929190614905565b6020604051808303816000875af11580156106c4573d6000803e3d6000fd5b505050506040513d601f19601f820116820180604052508101906106e89190614943565b610727576040517f08c379a000000000000000000000000000000000000000000000000000000000815260040161071e906149bc565b60405180910390fd5b8092505050919050565b60006012905090565b60008054906101000a900473ffffffffffffffffffffffffffffffffffffffff1673ffffffffffffffffffffffffffffffffffffffff1663095ea7b3600360009054906101000a900473ffffffffffffffffffffffffffffffffffffffff167fffffffffffffffffffffffffffffffffffffffffffffffffffffffffffffffff6040518363ffffffff1660e01b81526004016107d7929190614905565b6020604051808303816000875af11580156107f6573d6000803e3d6000fd5b505050506040513d601f19601f8201168201806040525081019061081a9190614943565b50600160009054906101000a900473ffffffffffffffffffffffffffffffffffffffff1673ffffffffffffffffffffffffffffffffffffffff1663095ea7b3600360009054906101000a900473ffffffffffffffffffffffffffffffffffffffff167fffffffffffffffffffffffffffffffffffffffffffffffffffffffffffffffff6040518363ffffffff1660e01b81526004016108ba929190614905565b6020604051808303816000875af11580156108d9573d6000803e3d6000fd5b505050506040513d601f19601f820116820180604052508101906108fd9190614943565b50600460009054906101000a900473ffffffffffffffffffffffffffffffffffffffff1673ffffffffffffffffffffffffffffffffffffffff1663095ea7b3600560009054906101000a900473ffffffffffffffffffffffffffffffffffffffff167fffffffffffffffffffffffffffffffffffffffffffffffffffffffffffffffff6040518363ffffffff1660e01b815260040161099d929190614905565b6020604051808303816000875af11580156109bc573d6000803e3d6000fd5b505050506040513d601f19601f820116820180604052508101906109e09190614943565b50600460009054906101000a900473ffffffffffffffffffffffffffffffffffffffff1673ffffffffffffffffffffffffffffffffffffffff1663095ea7b3600360009054906101000a900473ffffffffffffffffffffffffffffffffffffffff167fffffffffffffffffffffffffffffffffffffffffffffffffffffffffffffffff6040518363ffffffff1660e01b8152600401610a80929190614905565b6020604051808303816000875af1158015610a9f573d6000803e3d6000fd5b505050506040513d601f19601f82011682018060405250810190610ac39190614943565b50600260009054906101000a900473ffffffffffffffffffffffffffffffffffffffff1673ffffffffffffffffffffffffffffffffffffffff1663095ea7b3600360009054906101000a900473ffffffffffffffffffffffffffffffffffffffff167fffffffffffffffffffffffffffffffffffffffffffffffffffffffffffffffff6040518363ffffffff1660e01b8152600401610b63929190614905565b6020604051808303816000875af1158015610b82573d6000803e3d6000fd5b505050506040513d601f19601f82011682018060405250810190610ba69190614943565b50565b600080610bb4611474565b90508060000160008473ffffffffffffffffffffffffffffffffffffffff1673ffffffffffffffffffffffffffffffffffffffff16815260200190815260200160002054915050919050565b60606000610c0c611474565b9050806004018054610c1d90614868565b80601f0160208091040260200160405190810160405280929190818152602001828054610c4990614868565b8015610c965780601f10610c6b57610100808354040283529160200191610c96565b820191906000526020600020905b815481529060010190602001808311610c7957829003601f168201915b505050505091505090565b600160009054906101000a900473ffffffffffffffffffffffffffffffffffffffff1681565b600560009054906101000a900473ffffffffffffffffffffffffffffffffffffffff1681565b600460009054906101000a900473ffffffffffffffffffffffffffffffffffffffff1681565b600080610d1e61149c565b9050610d2b81858561154a565b600191505092915050565b600080610d41610554565b90506000610d4e84610ba9565b90506000610d5a611c27565b9050828282610d699190614a0b565b610d739190614a7c565b9350505050919050565b6000610d87611c6a565b905060008160000160089054906101000a900460ff1615905060008260000160009054906101000a900467ffffffffffffffff1690506000808267ffffffffffffffff16148015610dd55750825b9050600060018367ffffffffffffffff16148015610e0a575060003073ffffffffffffffffffffffffffffffffffffffff163b145b905081158015610e18575080155b15610e4f576040517ff92ee8a900000000000000000000000000000000000000000000000000000000815260040160405180910390fd5b60018560000160006101000a81548167ffffffffffffffff021916908367ffffffffffffffff1602179055508315610e9f5760018560000160086101000a81548160ff0219169083151502179055505b610ea7611c92565b610eb18b8b611c9c565b610eba89611cd9565b610ec48888611d24565b610ecd86611db2565b610ed561073a565b8315610f315760008560000160086101000a81548160ff0219169083151502179055507fc7f505b2f371ae2175ee4913f4499e1f2633a7b5936321eed1cdaeb6115181d26001604051610f289190614afc565b60405180910390a15b5050505050505050505050565b6000808211610f82576040517f08c379a0000000000000000000000000000000000000000000000000000000008152600401610f79906148e5565b60405180910390fd5b60008054906101000a900473ffffffffffffffffffffffffffffffffffffffff1673ffffffffffffffffffffffffffffffffffffffff166323b872dd610fc661149c565b30856040518463ffffffff1660e01b8152600401610fe693929190614b17565b6020604051808303816000875af1158015611005573d6000803e3d6000fd5b505050506040513d601f19601f820116820180604052508101906110299190614943565b611068576040517f08c379a000000000000000000000000000000000000000000000000000000000815260040161105f906149bc565b60405180910390fd5b600061107383611fd3565b905061108661108061149c565b82612178565b80915050919050565b8115611141576000600160009054906101000a900473ffffffffffffffffffffffffffffffffffffffff1673ffffffffffffffffffffffffffffffffffffffff166370a08231306040518263ffffffff1660e01b81526004016110f29190614b4e565b602060405180830381865afa15801561110f573d6000803e3d6000fd5b505050506040513d601f19601f820116820180604052508101906111339190614b7e565b905061113e816121fa565b50505b80801561119d5750600073ffffffffffffffffffffffffffffffffffffffff16600260009054906101000a900473ffffffffffffffffffffffffffffffffffffffff1673ffffffffffffffffffffffffffffffffffffffff1614155b1561125f576111aa6123e9565b6000600260009054906101000a900473ffffffffffffffffffffffffffffffffffffffff1673ffffffffffffffffffffffffffffffffffffffff166370a08231306040518263ffffffff1660e01b81526004016112079190614b4e565b602060405180830381865afa158015611224573d6000803e3d6000fd5b505050506040513d601f19601f820116820180604052508101906112489190614b7e565b90506000811461125d5761125b8161246d565b505b505b60008060009054906101000a900473ffffffffffffffffffffffffffffffffffffffff1673ffffffffffffffffffffffffffffffffffffffff166370a08231306040518263ffffffff1660e01b81526004016112bb9190614b4e565b602060405180830381865afa1580156112d8573d6000803e3d6000fd5b505050506040513d601f19601f820116820180604052508101906112fc9190614b7e565b90506113078161258b565b5050505050565b60008054906101000a900473ffffffffffffffffffffffffffffffffffffffff1681565b60008061133d611474565b90508060010160008573ffffffffffffffffffffffffffffffffffffffff1673ffffffffffffffffffffffffffffffffffffffff16815260200190815260200160002060008473ffffffffffffffffffffffffffffffffffffffff1673ffffffffffffffffffffffffffffffffffffffff1681526020019081526020016000205491505092915050565b600781815481106113d757600080fd5b90600052602060002090600202016000915090508060000160009054906101000a900473ffffffffffffffffffffffffffffffffffffffff16908060010160009054906101000a900473ffffffffffffffffffffffffffffffffffffffff16908060010160149054906101000a900460ff16905083565b600360009054906101000a900473ffffffffffffffffffffffffffffffffffffffff1681565b60007f52c63247e1f47db19d5ce0460030c497f067ca4cebf71ba98eeadabe20bace00905090565b600033905090565b6114b183838360016125d6565b505050565b60006114c28484611332565b90507fffffffffffffffffffffffffffffffffffffffffffffffffffffffffffffffff81146115445781811015611534578281836040517ffb8f41b200000000000000000000000000000000000000000000000000000000815260040161152b93929190614bab565b60405180910390fd5b611543848484840360006125d6565b5b50505050565b600073ffffffffffffffffffffffffffffffffffffffff168373ffffffffffffffffffffffffffffffffffffffff16036115bc5760006040517f96c6fd1e0000000000000000000000000000000000000000000000000000000081526004016115b39190614b4e565b60405180910390fd5b600073ffffffffffffffffffffffffffffffffffffffff168273ffffffffffffffffffffffffffffffffffffffff160361162e5760006040517fec442f050000000000000000000000000000000000000000000000000000000081526004016116259190614b4e565b60405180910390fd5b6116398383836127bc565b505050565b600073ffffffffffffffffffffffffffffffffffffffff168273ffffffffffffffffffffffffffffffffffffffff16036116b05760006040517f96c6fd1e0000000000000000000000000000000000000000000000000000000081526004016116a79190614b4e565b60405180910390fd5b6116bc826000836127bc565b5050565b600080828460008054906101000a900473ffffffffffffffffffffffffffffffffffffffff1673ffffffffffffffffffffffffffffffffffffffff166370a08231306040518263ffffffff1660e01b815260040161171e9190614b4e565b602060405180830381865afa15801561173b573d6000803e3d6000fd5b505050506040513d601f19601f8201168201806040525081019061175f9190614b7e565b6117699190614a0b565b6117739190614a7c565b905060008385600160009054906101000a900473ffffffffffffffffffffffffffffffffffffffff1673ffffffffffffffffffffffffffffffffffffffff166370a08231306040518263ffffffff1660e01b81526004016117d49190614b4e565b602060405180830381865afa1580156117f1573d6000803e3d6000fd5b505050506040513d601f19601f820116820180604052508101906118159190614b7e565b61181f9190614a0b565b6118299190614a7c565b905060008061183887876129fb565b9150915081846118489190614be2565b94507fe149f705a324b8868afb0e51c73eccbf05bc70f9420e37fdd0b8042d703755c2856040516118799190614c62565b60405180910390a161189581846118909190614be2565b6121fa565b856118a09190614be2565b94507fe149f705a324b8868afb0e51c73eccbf05bc70f9420e37fdd0b8042d703755c2856040516118d19190614cdc565b60405180910390a1600073ffffffffffffffffffffffffffffffffffffffff16600260009054906101000a900473ffffffffffffffffffffffffffffffffffffffff1673ffffffffffffffffffffffffffffffffffffffff1614611c1d577fe149f705a324b8868afb0e51c73eccbf05bc70f9420e37fdd0b8042d703755c2600260009054906101000a900473ffffffffffffffffffffffffffffffffffffffff1673ffffffffffffffffffffffffffffffffffffffff166370a08231306040518263ffffffff1660e01b81526004016119ab9190614b4e565b602060405180830381865afa1580156119c8573d6000803e3d6000fd5b505050506040513d601f19601f820116820180604052508101906119ec9190614b7e565b6040516119f99190614d56565b60405180910390a1611a096123e9565b6000600260009054906101000a900473ffffffffffffffffffffffffffffffffffffffff1673ffffffffffffffffffffffffffffffffffffffff166370a08231306040518263ffffffff1660e01b8152600401611a669190614b4e565b602060405180830381865afa158015611a83573d6000803e3d6000fd5b505050506040513d601f19601f82011682018060405250810190611aa79190614b7e565b90507fe149f705a324b8868afb0e51c73eccbf05bc70f9420e37fdd0b8042d703755c281604051611ad89190614dd0565b60405180910390a16000878983611aef9190614a0b565b611af99190614a7c565b9050611b048161246d565b87611b0f9190614be2565b96507fe149f705a324b8868afb0e51c73eccbf05bc70f9420e37fdd0b8042d703755c287604051611b409190614e4a565b60405180910390a17fe149f705a324b8868afb0e51c73eccbf05bc70f9420e37fdd0b8042d703755c2600260009054906101000a900473ffffffffffffffffffffffffffffffffffffffff1673ffffffffffffffffffffffffffffffffffffffff166370a08231306040518263ffffffff1660e01b8152600401611bc49190614b4e565b602060405180830381865afa158015611be1573d6000803e3d6000fd5b505050506040513d601f19601f82011682018060405250810190611c059190614b7e565b604051611c129190614ec4565b60405180910390a150505b5050505092915050565b600080600080611c35612dbd565b925092509250611c4481612f52565b611c4d8361302b565b84611c589190614be2565b611c629190614be2565b935050505090565b60007ff0c57e16840df040f15088dc2f81fe391c3923bec73e23a9662efc9c229c6a00905090565b611c9a6130f4565b565b611ca46130f4565b6000611cae611474565b905082816003019081611cc19190615094565b5081816004019081611cd39190615094565b50505050565b611ce16130f4565b806000806101000a81548173ffffffffffffffffffffffffffffffffffffffff021916908373ffffffffffffffffffffffffffffffffffffffff16021790555050565b611d2c6130f4565b81600160006101000a81548173ffffffffffffffffffffffffffffffffffffffff021916908373ffffffffffffffffffffffffffffffffffffffff16021790555080600260006101000a81548173ffffffffffffffffffffffffffffffffffffffff021916908373ffffffffffffffffffffffffffffffffffffffff1602179055505050565b611dba6130f4565b8060000151600360006101000a81548173ffffffffffffffffffffffffffffffffffffffff021916908373ffffffffffffffffffffffffffffffffffffffff1602179055508060200151600460006101000a81548173ffffffffffffffffffffffffffffffffffffffff021916908373ffffffffffffffffffffffffffffffffffffffff1602179055508060400151600560006101000a81548173ffffffffffffffffffffffffffffffffffffffff021916908373ffffffffffffffffffffffffffffffffffffffff16021790555080606001516006819055508060800151600560146101000a81548160ff02191690831515021790555060005b8160a0015151811015611fcf5760008260a001518281518110611edb57611eda615166565b5b60200260200101519050600781908060018154018082558091505060019003906000526020600020906002020160009091909190915060008201518160000160006101000a81548173ffffffffffffffffffffffffffffffffffffffff021916908373ffffffffffffffffffffffffffffffffffffffff16021790555060208201518160010160006101000a81548173ffffffffffffffffffffffffffffffffffffffff021916908373ffffffffffffffffffffffffffffffffffffffff16021790555060408201518160010160146101000a81548160ff0219169083151502179055505050508080600101915050611eb5565b5050565b6000806000611fe18461258b565b915091506000611fef610554565b90506000810361202657612001613134565b670de0b6b3a7640000866120159190614a0b565b61201f9190614a7c565b9350612170565b60008061203161313e565b915091507fe149f705a324b8868afb0e51c73eccbf05bc70f9420e37fdd0b8042d703755c28260405161206491906151e1565b60405180910390a17fe149f705a324b8868afb0e51c73eccbf05bc70f9420e37fdd0b8042d703755c28160405161209b919061525b565b60405180910390a160006120ad611c27565b90507fe149f705a324b8868afb0e51c73eccbf05bc70f9420e37fdd0b8042d703755c2816040516120de91906152d5565b60405180910390a160006120f18661302b565b878a6120fd9190615303565b6121079190614be2565b90507fe149f705a324b8868afb0e51c73eccbf05bc70f9420e37fdd0b8042d703755c2816040516121389190615383565b60405180910390a1808261214c9190615303565b612154610554565b8261215f9190614a0b565b6121699190614a7c565b9750505050505b505050919050565b600073ffffffffffffffffffffffffffffffffffffffff168273ffffffffffffffffffffffffffffffffffffffff16036121ea5760006040517fec442f050000000000000000000000000000000000000000000000000000000081526004016121e19190614b4e565b60405180910390fd5b6121f6600083836127bc565b5050565b600080600167ffffffffffffffff81111561221857612217614215565b5b60405190808252806020026020018201604052801561225157816020015b61223e613dec565b8152602001906001900390816122365790505b5090506040518060600160405280600160009054906101000a900473ffffffffffffffffffffffffffffffffffffffff1673ffffffffffffffffffffffffffffffffffffffff16815260200160008054906101000a900473ffffffffffffffffffffffffffffffffffffffff1673ffffffffffffffffffffffffffffffffffffffff168152602001600560149054906101000a900460ff1615158152508160008151811061230257612301615166565b5b60200260200101819052506000600360009054906101000a900473ffffffffffffffffffffffffffffffffffffffff1673ffffffffffffffffffffffffffffffffffffffff1663f41766d8856123578761302b565b8530426040518663ffffffff1660e01b815260040161237a9594939291906154c0565b6000604051808303816000875af1158015612399573d6000803e3d6000fd5b505050506040513d6000823e3d601f19601f820116820180604052508101906123c291906155dd565b9050806001815181106123d8576123d7615166565b5b602002602001015192505050919050565b600560009054906101000a900473ffffffffffffffffffffffffffffffffffffffff1673ffffffffffffffffffffffffffffffffffffffff16633d18b9126040518163ffffffff1660e01b8152600401600060405180830381600087803b15801561245357600080fd5b505af1158015612467573d6000803e3d6000fd5b50505050565b60008061247983612f52565b90507fe149f705a324b8868afb0e51c73eccbf05bc70f9420e37fdd0b8042d703755c2816040516124aa9190615672565b60405180910390a16000600360009054906101000a900473ffffffffffffffffffffffffffffffffffffffff1673ffffffffffffffffffffffffffffffffffffffff1663f41766d88584600730426040518663ffffffff1660e01b815260040161251895949392919061581b565b6000604051808303816000875af1158015612537573d6000803e3d6000fd5b505050506040513d6000823e3d601f19601f8201168201806040525081019061256091906155dd565b9050806007805490508151811061257a57612579615166565b5b602002602001015192505050919050565b600080600083146125c85761259f83613251565b91506125aa826132bd565b90506125c182846125bb9190615303565b826134ac565b50506125d1565b60009150600090505b915091565b60006125e0611474565b9050600073ffffffffffffffffffffffffffffffffffffffff168573ffffffffffffffffffffffffffffffffffffffff16036126545760006040517fe602df0500000000000000000000000000000000000000000000000000000000815260040161264b9190614b4e565b60405180910390fd5b600073ffffffffffffffffffffffffffffffffffffffff168473ffffffffffffffffffffffffffffffffffffffff16036126c65760006040517f94280d620000000000000000000000000000000000000000000000000000000081526004016126bd9190614b4e565b60405180910390fd5b828160010160008773ffffffffffffffffffffffffffffffffffffffff1673ffffffffffffffffffffffffffffffffffffffff16815260200190815260200160002060008673ffffffffffffffffffffffffffffffffffffffff1673ffffffffffffffffffffffffffffffffffffffff1681526020019081526020016000208190555081156127b5578373ffffffffffffffffffffffffffffffffffffffff168573ffffffffffffffffffffffffffffffffffffffff167f8c5be1e5ebec7d5bd14f71427d1e84f3dd0314c0f7b2291e5b200ac8c7c3b925856040516127ac919061401a565b60405180910390a35b5050505050565b60006127c6611474565b9050600073ffffffffffffffffffffffffffffffffffffffff168473ffffffffffffffffffffffffffffffffffffffff160361281c57818160020160008282546128109190614be2565b925050819055506128f5565b60008160000160008673ffffffffffffffffffffffffffffffffffffffff1673ffffffffffffffffffffffffffffffffffffffff168152602001908152602001600020549050828110156128ab578481846040517fe450d38c0000000000000000000000000000000000000000000000000000000081526004016128a293929190614bab565b60405180910390fd5b8281038260000160008773ffffffffffffffffffffffffffffffffffffffff1673ffffffffffffffffffffffffffffffffffffffff16815260200190815260200160002081905550505b600073ffffffffffffffffffffffffffffffffffffffff168373ffffffffffffffffffffffffffffffffffffffff160361294057818160020160008282540392505081905550612990565b818160000160008573ffffffffffffffffffffffffffffffffffffffff1673ffffffffffffffffffffffffffffffffffffffff168152602001908152602001600020600082825401925050819055505b8273ffffffffffffffffffffffffffffffffffffffff168473ffffffffffffffffffffffffffffffffffffffff167fddf252ad1be2c89b69c2b068fc378daa952ba7f163c4a11628f55a4df523b3ef846040516129ed919061401a565b60405180910390a350505050565b6000807fe149f705a324b8868afb0e51c73eccbf05bc70f9420e37fdd0b8042d703755c284604051612a2d91906158c1565b60405180910390a17fe149f705a324b8868afb0e51c73eccbf05bc70f9420e37fdd0b8042d703755c283604051612a64919061593b565b60405180910390a160008385600560009054906101000a900473ffffffffffffffffffffffffffffffffffffffff1673ffffffffffffffffffffffffffffffffffffffff166370a08231306040518263ffffffff1660e01b8152600401612acb9190614b4e565b602060405180830381865afa158015612ae8573d6000803e3d6000fd5b505050506040513d601f19601f82011682018060405250810190612b0c9190614b7e565b612b169190614a0b565b612b209190614a7c565b9050600560009054906101000a900473ffffffffffffffffffffffffffffffffffffffff1673ffffffffffffffffffffffffffffffffffffffff16632e1a7d4d826040518263ffffffff1660e01b8152600401612b7d919061401a565b600060405180830381600087803b158015612b9757600080fd5b505af1158015612bab573d6000803e3d6000fd5b50505050600080600360009054906101000a900473ffffffffffffffffffffffffffffffffffffffff1673ffffffffffffffffffffffffffffffffffffffff16634386e63c60008054906101000a900473ffffffffffffffffffffffffffffffffffffffff16600160009054906101000a900473ffffffffffffffffffffffffffffffffffffffff16600560149054906101000a900460ff16876040518563ffffffff1660e01b8152600401612c649493929190615969565b6040805180830381865afa158015612c80573d6000803e3d6000fd5b505050506040513d601f19601f82011682018060405250810190612ca491906159ae565b91509150600080600360009054906101000a900473ffffffffffffffffffffffffffffffffffffffff1673ffffffffffffffffffffffffffffffffffffffff16630dede6c460008054906101000a900473ffffffffffffffffffffffffffffffffffffffff16600160009054906101000a900473ffffffffffffffffffffffffffffffffffffffff16600560149054906101000a900460ff1689898930426040518963ffffffff1660e01b8152600401612d659897969594939291906159ee565b60408051808303816000875af1158015612d83573d6000803e3d6000fd5b505050506040513d601f19601f82011682018060405250810190612da791906159ae565b9150915081965080955050505050509250929050565b60008060008060008054906101000a900473ffffffffffffffffffffffffffffffffffffffff1673ffffffffffffffffffffffffffffffffffffffff166370a08231306040518263ffffffff1660e01b8152600401612e1c9190614b4e565b602060405180830381865afa158015612e39573d6000803e3d6000fd5b505050506040513d601f19601f82011682018060405250810190612e5d9190614b7e565b90506000600160009054906101000a900473ffffffffffffffffffffffffffffffffffffffff1673ffffffffffffffffffffffffffffffffffffffff166370a08231306040518263ffffffff1660e01b8152600401612ebc9190614b4e565b602060405180830381865afa158015612ed9573d6000803e3d6000fd5b505050506040513d601f19601f82011682018060405250810190612efd9190614b7e565b9050600080612f0a6138cd565b91509150600080612f1961313e565b915091508386612f299190614be2565b98508285612f379190614be2565b97508082612f459190614be2565b9650505050505050909192565b600080600360009054906101000a900473ffffffffffffffffffffffffffffffffffffffff1673ffffffffffffffffffffffffffffffffffffffff16639881fcb48460076040518363ffffffff1660e01b8152600401612fb3929190615a6c565b600060405180830381865afa158015612fd0573d6000803e3d6000fd5b505050506040513d6000823e3d601f19601f82011682018060405250810190612ff991906155dd565b9050806001825161300a9190615303565b8151811061301b5761301a615166565b5b6020026020010151915050919050565b6000600460009054906101000a900473ffffffffffffffffffffffffffffffffffffffff1673ffffffffffffffffffffffffffffffffffffffff1663f140a35a83600160009054906101000a900473ffffffffffffffffffffffffffffffffffffffff166040518363ffffffff1660e01b81526004016130ac929190615a9c565b602060405180830381865afa1580156130c9573d6000803e3d6000fd5b505050506040513d601f19601f820116820180604052508101906130ed9190614b7e565b9050919050565b6130fc613bc2565b613132576040517fd7e6bcf800000000000000000000000000000000000000000000000000000000815260040160405180910390fd5b565b6000600654905090565b600080600073ffffffffffffffffffffffffffffffffffffffff16600260009054906101000a900473ffffffffffffffffffffffffffffffffffffffff1673ffffffffffffffffffffffffffffffffffffffff16036131a457600091506000905061324d565b600260009054906101000a900473ffffffffffffffffffffffffffffffffffffffff1673ffffffffffffffffffffffffffffffffffffffff166370a08231306040518263ffffffff1660e01b81526004016131ff9190614b4e565b602060405180830381865afa15801561321c573d6000803e3d6000fd5b505050506040513d601f19601f820116820180604052508101906132409190614b7e565b915061324a613be2565b90505b9091565b60008061325c613134565b9050600061326982613c84565b9050600080613276613d4b565b91509150808484846132889190614a0b565b6132929190614a7c565b61329c9190614be2565b81876132a89190614a0b565b6132b29190614a7c565b945050505050919050565b600080600167ffffffffffffffff8111156132db576132da614215565b5b60405190808252806020026020018201604052801561331457816020015b613301613dec565b8152602001906001900390816132f95790505b509050604051806060016040528060008054906101000a900473ffffffffffffffffffffffffffffffffffffffff1673ffffffffffffffffffffffffffffffffffffffff168152602001600160009054906101000a900473ffffffffffffffffffffffffffffffffffffffff1673ffffffffffffffffffffffffffffffffffffffff168152602001600560149054906101000a900460ff161515815250816000815181106133c5576133c4615166565b5b60200260200101819052506000600360009054906101000a900473ffffffffffffffffffffffffffffffffffffffff1673ffffffffffffffffffffffffffffffffffffffff1663f41766d88561341a87613c84565b8530426040518663ffffffff1660e01b815260040161343d9594939291906154c0565b6000604051808303816000875af115801561345c573d6000803e3d6000fd5b505050506040513d6000823e3d601f19601f8201168201806040525081019061348591906155dd565b90508060018151811061349b5761349a615166565b5b602002602001015192505050919050565b6000807fe149f705a324b8868afb0e51c73eccbf05bc70f9420e37fdd0b8042d703755c2846040516134de9190615b11565b60405180910390a17fe149f705a324b8868afb0e51c73eccbf05bc70f9420e37fdd0b8042d703755c2836040516135159190615b8b565b60405180910390a16000600560149054906101000a900460ff169050600080600360009054906101000a900473ffffffffffffffffffffffffffffffffffffffff1673ffffffffffffffffffffffffffffffffffffffff166398a0fb3c60008054906101000a900473ffffffffffffffffffffffffffffffffffffffff16600160009054906101000a900473ffffffffffffffffffffffffffffffffffffffff16868b8b6040518663ffffffff1660e01b81526004016135d9959493929190615bb9565b606060405180830381865afa1580156135f6573d6000803e3d6000fd5b505050506040513d601f19601f8201168201806040525081019061361a9190615c0c565b50915091507fe149f705a324b8868afb0e51c73eccbf05bc70f9420e37fdd0b8042d703755c28260405161364e9190615cab565b60405180910390a17fe149f705a324b8868afb0e51c73eccbf05bc70f9420e37fdd0b8042d703755c2816040516136859190615d25565b60405180910390a16000806000600360009054906101000a900473ffffffffffffffffffffffffffffffffffffffff1673ffffffffffffffffffffffffffffffffffffffff16635a47ddc360008054906101000a900473ffffffffffffffffffffffffffffffffffffffff16600160009054906101000a900473ffffffffffffffffffffffffffffffffffffffff168989898b8b30426040518a63ffffffff1660e01b815260040161373f99989796959493929190615d53565b6060604051808303816000875af115801561375e573d6000803e3d6000fd5b505050506040513d601f19601f820116820180604052508101906137829190615c0c565b9250925092507fe149f705a324b8868afb0e51c73eccbf05bc70f9420e37fdd0b8042d703755c2836040516137b79190615e2c565b60405180910390a17fe149f705a324b8868afb0e51c73eccbf05bc70f9420e37fdd0b8042d703755c2826040516137ee9190615ea6565b60405180910390a17fe149f705a324b8868afb0e51c73eccbf05bc70f9420e37fdd0b8042d703755c2816040516138259190615f20565b60405180910390a1829750819650600560009054906101000a900473ffffffffffffffffffffffffffffffffffffffff1673ffffffffffffffffffffffffffffffffffffffff1663b6b55f25826040518263ffffffff1660e01b815260040161388e919061401a565b600060405180830381600087803b1580156138a857600080fd5b505af11580156138bc573d6000803e3d6000fd5b505050505050505050509250929050565b6000806000600560009054906101000a900473ffffffffffffffffffffffffffffffffffffffff1673ffffffffffffffffffffffffffffffffffffffff166370a08231306040518263ffffffff1660e01b815260040161392d9190614b4e565b602060405180830381865afa15801561394a573d6000803e3d6000fd5b505050506040513d601f19601f8201168201806040525081019061396e9190614b7e565b905060008060009054906101000a900473ffffffffffffffffffffffffffffffffffffffff1673ffffffffffffffffffffffffffffffffffffffff166370a08231600460009054906101000a900473ffffffffffffffffffffffffffffffffffffffff166040518263ffffffff1660e01b81526004016139ee9190614b4e565b602060405180830381865afa158015613a0b573d6000803e3d6000fd5b505050506040513d601f19601f82011682018060405250810190613a2f9190614b7e565b90506000600160009054906101000a900473ffffffffffffffffffffffffffffffffffffffff1673ffffffffffffffffffffffffffffffffffffffff166370a08231600460009054906101000a900473ffffffffffffffffffffffffffffffffffffffff166040518263ffffffff1660e01b8152600401613ab09190614b4e565b602060405180830381865afa158015613acd573d6000803e3d6000fd5b505050506040513d601f19601f82011682018060405250810190613af19190614b7e565b90506000600460009054906101000a900473ffffffffffffffffffffffffffffffffffffffff1673ffffffffffffffffffffffffffffffffffffffff166318160ddd6040518163ffffffff1660e01b8152600401602060405180830381865afa158015613b62573d6000803e3d6000fd5b505050506040513d601f19601f82011682018060405250810190613b869190614b7e565b9050808385613b959190614a0b565b613b9f9190614a7c565b9550808285613bae9190614a0b565b613bb89190614a7c565b9450505050509091565b6000613bcc611c6a565b60000160089054906101000a900460ff16905090565b6000600560009054906101000a900473ffffffffffffffffffffffffffffffffffffffff1673ffffffffffffffffffffffffffffffffffffffff16628cc262306040518263ffffffff1660e01b8152600401613c3e9190614b4e565b602060405180830381865afa158015613c5b573d6000803e3d6000fd5b505050506040513d601f19601f82011682018060405250810190613c7f9190614b7e565b905090565b6000600460009054906101000a900473ffffffffffffffffffffffffffffffffffffffff1673ffffffffffffffffffffffffffffffffffffffff1663f140a35a8360008054906101000a900473ffffffffffffffffffffffffffffffffffffffff166040518363ffffffff1660e01b8152600401613d03929190615a9c565b602060405180830381865afa158015613d20573d6000803e3d6000fd5b505050506040513d601f19601f82011682018060405250810190613d449190614b7e565b9050919050565b600080600460009054906101000a900473ffffffffffffffffffffffffffffffffffffffff1673ffffffffffffffffffffffffffffffffffffffff16630902f1ac6040518163ffffffff1660e01b8152600401606060405180830381865afa158015613dbb573d6000803e3d6000fd5b505050506040513d601f19601f82011682018060405250810190613ddf9190615c0c565b5080925081935050509091565b6040518060600160405280600073ffffffffffffffffffffffffffffffffffffffff168152602001600073ffffffffffffffffffffffffffffffffffffffff1681526020016000151581525090565b600081519050919050565b600082825260208201905092915050565b60005b83811015613e75578082015181840152602081019050613e5a565b60008484015250505050565b6000601f19601f8301169050919050565b6000613e9d82613e3b565b613ea78185613e46565b9350613eb7818560208601613e57565b613ec081613e81565b840191505092915050565b60006020820190508181036000830152613ee58184613e92565b905092915050565b6000604051905090565b600080fd5b600080fd5b600073ffffffffffffffffffffffffffffffffffffffff82169050919050565b6000613f2c82613f01565b9050919050565b613f3c81613f21565b8114613f4757600080fd5b50565b600081359050613f5981613f33565b92915050565b6000819050919050565b613f7281613f5f565b8114613f7d57600080fd5b50565b600081359050613f8f81613f69565b92915050565b60008060408385031215613fac57613fab613ef7565b5b6000613fba85828601613f4a565b9250506020613fcb85828601613f80565b9150509250929050565b60008115159050919050565b613fea81613fd5565b82525050565b60006020820190506140056000830184613fe1565b92915050565b61401481613f5f565b82525050565b600060208201905061402f600083018461400b565b92915050565b6000819050919050565b600061405a61405561405084613f01565b614035565b613f01565b9050919050565b600061406c8261403f565b9050919050565b600061407e82614061565b9050919050565b61408e81614073565b82525050565b60006020820190506140a96000830184614085565b92915050565b6000806000606084860312156140c8576140c7613ef7565b5b60006140d686828701613f4a565b93505060206140e786828701613f4a565b92505060406140f886828701613f80565b9150509250925092565b60006020828403121561411857614117613ef7565b5b600061412684828501613f80565b91505092915050565b600060ff82169050919050565b6141458161412f565b82525050565b6000602082019050614160600083018461413c565b92915050565b60006020828403121561417c5761417b613ef7565b5b600061418a84828501613f4a565b91505092915050565b600061419e82614061565b9050919050565b6141ae81614193565b82525050565b60006020820190506141c960008301846141a5565b92915050565b60006141da82614061565b9050919050565b6141ea816141cf565b82525050565b600060208201905061420560008301846141e1565b92915050565b600080fd5b600080fd5b7f4e487b7100000000000000000000000000000000000000000000000000000000600052604160045260246000fd5b61424d82613e81565b810181811067ffffffffffffffff8211171561426c5761426b614215565b5b80604052505050565b600061427f613eed565b905061428b8282614244565b919050565b600067ffffffffffffffff8211156142ab576142aa614215565b5b6142b482613e81565b9050602081019050919050565b82818337600083830152505050565b60006142e36142de84614290565b614275565b9050828152602081018484840111156142ff576142fe614210565b5b61430a8482856142c1565b509392505050565b600082601f8301126143275761432661420b565b5b81356143378482602086016142d0565b91505092915050565b600061434b82613f21565b9050919050565b61435b81614340565b811461436657600080fd5b50565b60008135905061437881614352565b92915050565b600080fd5b600080fd5b600061439382613f21565b9050919050565b6143a381614388565b81146143ae57600080fd5b50565b6000813590506143c08161439a565b92915050565b60006143d182613f21565b9050919050565b6143e1816143c6565b81146143ec57600080fd5b50565b6000813590506143fe816143d8565b92915050565b600061440f82613f21565b9050919050565b61441f81614404565b811461442a57600080fd5b50565b60008135905061443c81614416565b92915050565b61444b81613fd5565b811461445657600080fd5b50565b60008135905061446881614442565b92915050565b600067ffffffffffffffff82111561448957614488614215565b5b602082029050602081019050919050565b600080fd5b6000606082840312156144b5576144b461437e565b5b6144bf6060614275565b905060006144cf84828501613f4a565b60008301525060206144e384828501613f4a565b60208301525060406144f784828501614459565b60408301525092915050565b60006145166145118461446e565b614275565b905080838252602082019050606084028301858111156145395761453861449a565b5b835b81811015614562578061454e888261449f565b84526020840193505060608101905061453b565b5050509392505050565b600082601f8301126145815761458061420b565b5b8135614591848260208601614503565b91505092915050565b600060c082840312156145b0576145af61437e565b5b6145ba60c0614275565b905060006145ca848285016143b1565b60008301525060206145de848285016143ef565b60208301525060406145f28482850161442d565b604083015250606061460684828501613f80565b606083015250608061461a84828501614459565b60808301525060a082013567ffffffffffffffff81111561463e5761463d614383565b5b61464a8482850161456c565b60a08301525092915050565b60008060008060008060c0878903121561467357614672613ef7565b5b600087013567ffffffffffffffff81111561469157614690613efc565b5b61469d89828a01614312565b965050602087013567ffffffffffffffff8111156146be576146bd613efc565b5b6146ca89828a01614312565b95505060406146db89828a01614369565b94505060606146ec89828a01614369565b93505060806146fd89828a01614369565b92505060a087013567ffffffffffffffff81111561471e5761471d613efc565b5b61472a89828a0161459a565b9150509295509295509295565b6000806040838503121561474e5761474d613ef7565b5b600061475c85828601614459565b925050602061476d85828601614459565b9150509250929050565b6000806040838503121561478e5761478d613ef7565b5b600061479c85828601613f4a565b92505060206147ad85828601613f4a565b9150509250929050565b6147c081613f21565b82525050565b60006060820190506147db60008301866147b7565b6147e860208301856147b7565b6147f56040830184613fe1565b949350505050565b600061480882614061565b9050919050565b614818816147fd565b82525050565b6000602082019050614833600083018461480f565b92915050565b7f4e487b7100000000000000000000000000000000000000000000000000000000600052602260045260246000fd5b6000600282049050600182168061488057607f821691505b60208210810361489357614892614839565b5b50919050565b7f5a65726f20616d6f756e74000000000000000000000000000000000000000000600082015250565b60006148cf600b83613e46565b91506148da82614899565b602082019050919050565b600060208201905081810360008301526148fe816148c2565b9050919050565b600060408201905061491a60008301856147b7565b614927602083018461400b565b9392505050565b60008151905061493d81614442565b92915050565b60006020828403121561495957614958613ef7565b5b60006149678482850161492e565b91505092915050565b7f5472616e73666572206661696c65640000000000000000000000000000000000600082015250565b60006149a6600f83613e46565b91506149b182614970565b602082019050919050565b600060208201905081810360008301526149d581614999565b9050919050565b7f4e487b7100000000000000000000000000000000000000000000000000000000600052601160045260246000fd5b6000614a1682613f5f565b9150614a2183613f5f565b9250828202614a2f81613f5f565b91508282048414831517614a4657614a456149dc565b5b5092915050565b7f4e487b7100000000000000000000000000000000000000000000000000000000600052601260045260246000fd5b6000614a8782613f5f565b9150614a9283613f5f565b925082614aa257614aa1614a4d565b5b828204905092915050565b6000819050919050565b600067ffffffffffffffff82169050919050565b6000614ae6614ae1614adc84614aad565b614035565b614ab7565b9050919050565b614af681614acb565b82525050565b6000602082019050614b116000830184614aed565b92915050565b6000606082019050614b2c60008301866147b7565b614b3960208301856147b7565b614b46604083018461400b565b949350505050565b6000602082019050614b6360008301846147b7565b92915050565b600081519050614b7881613f69565b92915050565b600060208284031215614b9457614b93613ef7565b5b6000614ba284828501614b69565b91505092915050565b6000606082019050614bc060008301866147b7565b614bcd602083018561400b565b614bda604083018461400b565b949350505050565b6000614bed82613f5f565b9150614bf883613f5f565b9250828201905080821115614c1057614c0f6149dc565b5b92915050565b7f726561647920746f207769746864726177207072696d61727900000000000000600082015250565b6000614c4c601983613e46565b9150614c5782614c16565b602082019050919050565b60006040820190508181036000830152614c7b81614c3f565b9050614c8a602083018461400b565b92915050565b7f726561647920746f207769746864726177202b7365636f6e6461727900000000600082015250565b6000614cc6601c83613e46565b9150614cd182614c90565b602082019050919050565b60006040820190508181036000830152614cf581614cb9565b9050614d04602083018461400b565b92915050565b7f746f74616c2072657761726473206265666f7265000000000000000000000000600082015250565b6000614d40601483613e46565b9150614d4b82614d0a565b602082019050919050565b60006040820190508181036000830152614d6f81614d33565b9050614d7e602083018461400b565b92915050565b7f746f74616c207265776172647300000000000000000000000000000000000000600082015250565b6000614dba600d83613e46565b9150614dc582614d84565b602082019050919050565b60006040820190508181036000830152614de981614dad565b9050614df8602083018461400b565b92915050565b7f726561647920746f207769746864726177202b72657761726473000000000000600082015250565b6000614e34601a83613e46565b9150614e3f82614dfe565b602082019050919050565b60006040820190508181036000830152614e6381614e27565b9050614e72602083018461400b565b92915050565b7f746f74616c207265776172647320616674657200000000000000000000000000600082015250565b6000614eae601383613e46565b9150614eb982614e78565b602082019050919050565b60006040820190508181036000830152614edd81614ea1565b9050614eec602083018461400b565b92915050565b60008190508160005260206000209050919050565b60006020601f8301049050919050565b600082821b905092915050565b600060088302614f547fffffffffffffffffffffffffffffffffffffffffffffffffffffffffffffffff82614f17565b614f5e8683614f17565b95508019841693508086168417925050509392505050565b6000614f91614f8c614f8784613f5f565b614035565b613f5f565b9050919050565b6000819050919050565b614fab83614f76565b614fbf614fb782614f98565b848454614f24565b825550505050565b600090565b614fd4614fc7565b614fdf818484614fa2565b505050565b5b8181101561500357614ff8600082614fcc565b600181019050614fe5565b5050565b601f8211156150485761501981614ef2565b61502284614f07565b81016020851015615031578190505b61504561503d85614f07565b830182614fe4565b50505b505050565b600082821c905092915050565b600061506b6000198460080261504d565b1980831691505092915050565b6000615084838361505a565b9150826002028217905092915050565b61509d82613e3b565b67ffffffffffffffff8111156150b6576150b5614215565b5b6150c08254614868565b6150cb828285615007565b600060209050601f8311600181146150fe57600084156150ec578287015190505b6150f68582615078565b86555061515e565b601f19841661510c86614ef2565b60005b828110156151345784890151825560018201915060208501945060208101905061510f565b86831015615151578489015161514d601f89168261505a565b8355505b6001600288020188555050505b505050505050565b7f4e487b7100000000000000000000000000000000000000000000000000000000600052603260045260246000fd5b7f6f776e6564526577617264730000000000000000000000000000000000000000600082015250565b60006151cb600c83613e46565b91506151d682615195565b602082019050919050565b600060408201905081810360008301526151fa816151be565b9050615209602083018461400b565b92915050565b7f756e636c61696d65645265776172647300000000000000000000000000000000600082015250565b6000615245601083613e46565b91506152508261520f565b602082019050919050565b6000604082019050818103600083015261527481615238565b9050615283602083018461400b565b92915050565b7f746f74616c000000000000000000000000000000000000000000000000000000600082015250565b60006152bf600583613e46565b91506152ca82615289565b602082019050919050565b600060408201905081810360008301526152ee816152b2565b90506152fd602083018461400b565b92915050565b600061530e82613f5f565b915061531983613f5f565b9250828203905081811115615331576153306149dc565b5b92915050565b7f6465706f73697465640000000000000000000000000000000000000000000000600082015250565b600061536d600983613e46565b915061537882615337565b602082019050919050565b6000604082019050818103600083015261539c81615360565b90506153ab602083018461400b565b92915050565b600081519050919050565b600082825260208201905092915050565b6000819050602082019050919050565b6153e681613f21565b82525050565b6153f581613fd5565b82525050565b60608201600082015161541160008501826153dd565b50602082015161542460208501826153dd565b50604082015161543760408501826153ec565b50505050565b600061544983836153fb565b60608301905092915050565b6000602082019050919050565b600061546d826153b1565b61547781856153bc565b9350615482836153cd565b8060005b838110156154b357815161549a888261543d565b97506154a583615455565b925050600181019050615486565b5085935050505092915050565b600060a0820190506154d5600083018861400b565b6154e2602083018761400b565b81810360408301526154f48186615462565b905061550360608301856147b7565b615510608083018461400b565b9695505050505050565b600067ffffffffffffffff82111561553557615534614215565b5b602082029050602081019050919050565b60006155596155548461551a565b614275565b9050808382526020820190506020840283018581111561557c5761557b61449a565b5b835b818110156155a557806155918882614b69565b84526020840193505060208101905061557e565b5050509392505050565b600082601f8301126155c4576155c361420b565b5b81516155d4848260208601615546565b91505092915050565b6000602082840312156155f3576155f2613ef7565b5b600082015167ffffffffffffffff81111561561157615610613efc565b5b61561d848285016155af565b91505092915050565b7f7265776172642076616c75650000000000000000000000000000000000000000600082015250565b600061565c600c83613e46565b915061566782615626565b602082019050919050565b6000604082019050818103600083015261568b8161564f565b905061569a602083018461400b565b92915050565b600081549050919050565b60008190508160005260206000209050919050565b60008160001c9050919050565b600073ffffffffffffffffffffffffffffffffffffffff82169050919050565b60006157006156fb836156c0565b6156cd565b9050919050565b60008160a01c9050919050565b600060ff82169050919050565b600061573461572f83615707565b615714565b9050919050565b606082016000808301549050615750816156ed565b61575d60008601826153dd565b506001830154905061576e816156ed565b61577b60208601826153dd565b5061578581615721565b61579260408601826153ec565b5050505050565b60006157a5838361573b565b60608301905092915050565b6000600282019050919050565b60006157c9826156a0565b6157d381856153bc565b93506157de836156ab565b8060005b8381101561580e57816157f58882615799565b9750615800836157b1565b9250506001810190506157e2565b5085935050505092915050565b600060a082019050615830600083018861400b565b61583d602083018761400b565b818103604083015261584f81866157be565b905061585e60608301856147b7565b61586b608083018461400b565b9695505050505050565b7f77697468647261772066726f6d2064657820616d6f756e740000000000000000600082015250565b60006158ab601883613e46565b91506158b682615875565b602082019050919050565b600060408201905081810360008301526158da8161589e565b90506158e9602083018461400b565b92915050565b7f77697468647261772066726f6d2064657820746f74616c20737570706c790000600082015250565b6000615925601e83613e46565b9150615930826158ef565b602082019050919050565b6000604082019050818103600083015261595481615918565b9050615963602083018461400b565b92915050565b600060808201905061597e60008301876147b7565b61598b60208301866147b7565b6159986040830185613fe1565b6159a5606083018461400b565b95945050505050565b600080604083850312156159c5576159c4613ef7565b5b60006159d385828601614b69565b92505060206159e485828601614b69565b9150509250929050565b600061010082019050615a04600083018b6147b7565b615a11602083018a6147b7565b615a1e6040830189613fe1565b615a2b606083018861400b565b615a38608083018761400b565b615a4560a083018661400b565b615a5260c08301856147b7565b615a5f60e083018461400b565b9998505050505050505050565b6000604082019050615a81600083018561400b565b8181036020830152615a9381846157be565b90509392505050565b6000604082019050615ab1600083018561400b565b615abe60208301846147b7565b9392505050565b7f616d6f756e744100000000000000000000000000000000000000000000000000600082015250565b6000615afb600783613e46565b9150615b0682615ac5565b602082019050919050565b60006040820190508181036000830152615b2a81615aee565b9050615b39602083018461400b565b92915050565b7f616d6f756e744200000000000000000000000000000000000000000000000000600082015250565b6000615b75600783613e46565b9150615b8082615b3f565b602082019050919050565b60006040820190508181036000830152615ba481615b68565b9050615bb3602083018461400b565b92915050565b600060a082019050615bce60008301886147b7565b615bdb60208301876147b7565b615be86040830186613fe1565b615bf5606083018561400b565b615c02608083018461400b565b9695505050505050565b600080600060608486031215615c2557615c24613ef7565b5b6000615c3386828701614b69565b9350506020615c4486828701614b69565b9250506040615c5586828701614b69565b9150509250925092565b7f616d6f756e744151756f74650000000000000000000000000000000000000000600082015250565b6000615c95600c83613e46565b9150615ca082615c5f565b602082019050919050565b60006040820190508181036000830152615cc481615c88565b9050615cd3602083018461400b565b92915050565b7f616d6f756e744251756f74650000000000000000000000000000000000000000600082015250565b6000615d0f600c83613e46565b9150615d1a82615cd9565b602082019050919050565b60006040820190508181036000830152615d3e81615d02565b9050615d4d602083018461400b565b92915050565b600061012082019050615d69600083018c6147b7565b615d76602083018b6147b7565b615d83604083018a613fe1565b615d90606083018961400b565b615d9d608083018861400b565b615daa60a083018761400b565b615db760c083018661400b565b615dc460e08301856147b7565b615dd261010083018461400b565b9a9950505050505050505050565b7f6164646564410000000000000000000000000000000000000000000000000000600082015250565b6000615e16600683613e46565b9150615e2182615de0565b602082019050919050565b60006040820190508181036000830152615e4581615e09565b9050615e54602083018461400b565b92915050565b7f6164646564420000000000000000000000000000000000000000000000000000600082015250565b6000615e90600683613e46565b9150615e9b82615e5a565b602082019050919050565b60006040820190508181036000830152615ebf81615e83565b9050615ece602083018461400b565b92915050565b7f6c69717569646974790000000000000000000000000000000000000000000000600082015250565b6000615f0a600983613e46565b9150615f1582615ed4565b602082019050919050565b60006040820190508181036000830152615f3981615efd565b9050615f48602083018461400b565b9291505056fea264697066735822122055427c84db0a2782c96d184a3349a842ec7b541e46787decd30b27c67368736c64736f6c63430008180033",
  "devdoc": {
    "errors": {
      "ERC20InsufficientAllowance(address,uint256,uint256)": [
        {
          "details": "Indicates a failure with the `spender`s `allowance`. Used in transfers.",
          "params": {
            "allowance": "Amount of tokens a `spender` is allowed to operate with.",
            "needed": "Minimum amount required to perform a transfer.",
            "spender": "Address that may be allowed to operate on tokens without being their owner."
          }
        }
      ],
      "ERC20InsufficientBalance(address,uint256,uint256)": [
        {
          "details": "Indicates an error related to the current `balance` of a `sender`. Used in transfers.",
          "params": {
            "balance": "Current balance for the interacting account.",
            "needed": "Minimum amount required to perform a transfer.",
            "sender": "Address whose tokens are being transferred."
          }
        }
      ],
      "ERC20InvalidApprover(address)": [
        {
          "details": "Indicates a failure with the `approver` of a token to be approved. Used in approvals.",
          "params": {
            "approver": "Address initiating an approval operation."
          }
        }
      ],
      "ERC20InvalidReceiver(address)": [
        {
          "details": "Indicates a failure with the token `receiver`. Used in transfers.",
          "params": {
            "receiver": "Address to which tokens are being transferred."
          }
        }
      ],
      "ERC20InvalidSender(address)": [
        {
          "details": "Indicates a failure with the token `sender`. Used in transfers.",
          "params": {
            "sender": "Address whose tokens are being transferred."
          }
        }
      ],
      "ERC20InvalidSpender(address)": [
        {
          "details": "Indicates a failure with the `spender` to be approved. Used in approvals.",
          "params": {
            "spender": "Address that may be allowed to operate on tokens without being their owner."
          }
        }
      ],
      "InvalidInitialization()": [
        {
          "details": "The contract is already initialized."
        }
      ],
      "NotInitializing()": [
        {
          "details": "The contract is not initializing."
        }
      ]
    },
    "events": {
      "Approval(address,address,uint256)": {
        "details": "Emitted when the allowance of a `spender` for an `owner` is set by a call to {approve}. `value` is the new allowance."
      },
      "Initialized(uint64)": {
        "details": "Triggered when the contract has been initialized or reinitialized."
      },
      "Transfer(address,address,uint256)": {
        "details": "Emitted when `value` tokens are moved from one account (`from`) to another (`to`). Note that `value` may be zero."
      }
    },
    "kind": "dev",
    "methods": {
      "allowance(address,address)": {
        "details": "See {IERC20-allowance}."
      },
      "approve(address,uint256)": {
        "details": "See {IERC20-approve}. NOTE: If `value` is the maximum `uint256`, the allowance is not updated on `transferFrom`. This is semantically equivalent to an infinite approval. Requirements: - `spender` cannot be the zero address."
      },
      "balanceOf(address)": {
        "details": "See {IERC20-balanceOf}."
      },
      "decimals()": {
        "details": "Returns the number of decimals used to get its user representation. For example, if `decimals` equals `2`, a balance of `505` tokens should be displayed to a user as `5.05` (`505 / 10 ** 2`). Tokens usually opt for a value of 18, imitating the relationship between Ether and Wei. This is the default value returned by this function, unless it's overridden. NOTE: This information is only used for _display_ purposes: it in no way affects any of the arithmetic of the contract, including {IERC20-balanceOf} and {IERC20-transfer}."
      },
      "deposit(uint256)": {
        "details": "Deposits primary token and issues this token"
      },
      "name()": {
        "details": "Returns the name of the token."
      },
      "reinvest(bool,bool)": {
        "details": "it does it easy way - just exchanges everything to primary first and then runs part of deposit function"
      },
      "symbol()": {
        "details": "Returns the symbol of the token, usually a shorter version of the name."
      },
      "totalSupply()": {
        "details": "See {IERC20-totalSupply}."
      },
      "transfer(address,uint256)": {
        "details": "See {IERC20-transfer}. Requirements: - `to` cannot be the zero address. - the caller must have a balance of at least `value`."
      },
      "transferFrom(address,address,uint256)": {
        "details": "See {IERC20-transferFrom}. Emits an {Approval} event indicating the updated allowance. This is not required by the EIP. See the note at the beginning of {ERC20}. NOTE: Does not update the allowance if the current allowance is the maximum `uint256`. Requirements: - `from` and `to` cannot be the zero address. - `from` must have a balance of at least `value`. - the caller must have allowance for ``from``'s tokens of at least `value`."
      },
      "withdraw(uint256)": {
        "details": "Burns this token and withdraws primary investment token"
      }
    },
    "version": 1
  },
  "userdoc": {
    "kind": "user",
    "methods": {
      "calculateValue(address)": {
        "notice": "calculates value for the wallet denominated in primary tokens"
      },
      "reinvest(bool,bool)": {
        "notice": "Reinvests everything's owned into DEX (including rewards)"
      }
    },
    "version": 1
  },
  "storageLayout": {
    "storage": [
      {
        "astId": 2005,
        "contract": "contracts/v2/TokanDexInvestment.sol:TokanDexInvestment",
        "label": "primary",
        "offset": 0,
        "slot": "0",
        "type": "t_contract(IERC20)1131"
      },
      {
        "astId": 1346,
        "contract": "contracts/v2/TokanDexInvestment.sol:TokanDexInvestment",
        "label": "secondary",
        "offset": 0,
        "slot": "1",
        "type": "t_contract(IERC20)1131"
      },
      {
        "astId": 1349,
        "contract": "contracts/v2/TokanDexInvestment.sol:TokanDexInvestment",
        "label": "reward",
        "offset": 0,
        "slot": "2",
        "type": "t_contract(IERC20)1131"
      },
      {
        "astId": 2180,
        "contract": "contracts/v2/TokanDexInvestment.sol:TokanDexInvestment",
        "label": "router",
        "offset": 0,
        "slot": "3",
        "type": "t_contract(TokanRouter)1336"
      },
      {
        "astId": 2183,
        "contract": "contracts/v2/TokanDexInvestment.sol:TokanDexInvestment",
        "label": "pair",
        "offset": 0,
        "slot": "4",
        "type": "t_contract(TokanPair)1212"
      },
      {
        "astId": 2186,
        "contract": "contracts/v2/TokanDexInvestment.sol:TokanDexInvestment",
        "label": "gauge",
        "offset": 0,
        "slot": "5",
        "type": "t_contract(TokanGauge)1188"
      },
      {
        "astId": 2188,
        "contract": "contracts/v2/TokanDexInvestment.sol:TokanDexInvestment",
        "label": "stable",
        "offset": 20,
        "slot": "5",
        "type": "t_bool"
      },
      {
        "astId": 2190,
        "contract": "contracts/v2/TokanDexInvestment.sol:TokanDexInvestment",
        "label": "decimalsA",
        "offset": 0,
        "slot": "6",
        "type": "t_uint256"
      },
      {
        "astId": 2194,
        "contract": "contracts/v2/TokanDexInvestment.sol:TokanDexInvestment",
        "label": "rewardExchangeRoute",
        "offset": 0,
        "slot": "7",
        "type": "t_array(t_struct(Route)1221_storage)dyn_storage"
      }
    ],
    "types": {
      "t_address": {
        "encoding": "inplace",
        "label": "address",
        "numberOfBytes": "20"
      },
      "t_array(t_struct(Route)1221_storage)dyn_storage": {
        "base": "t_struct(Route)1221_storage",
        "encoding": "dynamic_array",
        "label": "struct TokanRouter.Route[]",
        "numberOfBytes": "32"
      },
      "t_bool": {
        "encoding": "inplace",
        "label": "bool",
        "numberOfBytes": "1"
      },
      "t_contract(IERC20)1131": {
        "encoding": "inplace",
        "label": "contract IERC20",
        "numberOfBytes": "20"
      },
      "t_contract(TokanGauge)1188": {
        "encoding": "inplace",
        "label": "contract TokanGauge",
        "numberOfBytes": "20"
      },
      "t_contract(TokanPair)1212": {
        "encoding": "inplace",
        "label": "contract TokanPair",
        "numberOfBytes": "20"
      },
      "t_contract(TokanRouter)1336": {
        "encoding": "inplace",
        "label": "contract TokanRouter",
        "numberOfBytes": "20"
      },
      "t_struct(Route)1221_storage": {
        "encoding": "inplace",
        "label": "struct TokanRouter.Route",
        "members": [
          {
            "astId": 1216,
            "contract": "contracts/v2/TokanDexInvestment.sol:TokanDexInvestment",
            "label": "from",
            "offset": 0,
            "slot": "0",
            "type": "t_address"
          },
          {
            "astId": 1218,
            "contract": "contracts/v2/TokanDexInvestment.sol:TokanDexInvestment",
            "label": "to",
            "offset": 0,
            "slot": "1",
            "type": "t_address"
          },
          {
            "astId": 1220,
            "contract": "contracts/v2/TokanDexInvestment.sol:TokanDexInvestment",
            "label": "stable",
            "offset": 20,
            "slot": "1",
            "type": "t_bool"
          }
        ],
        "numberOfBytes": "64"
      },
      "t_uint256": {
        "encoding": "inplace",
        "label": "uint256",
        "numberOfBytes": "32"
      }
    }
  }
}