{
  "address": "0xa7d7A95A31848b149FEB56Ee7381f7E6A6fB689d",
  "abi": [
    {
      "inputs": [
        {
          "internalType": "address",
          "name": "spender",
          "type": "address"
        },
        {
          "internalType": "uint256",
          "name": "allowance",
          "type": "uint256"
        },
        {
          "internalType": "uint256",
          "name": "needed",
          "type": "uint256"
        }
      ],
      "name": "ERC20InsufficientAllowance",
      "type": "error"
    },
    {
      "inputs": [
        {
          "internalType": "address",
          "name": "sender",
          "type": "address"
        },
        {
          "internalType": "uint256",
          "name": "balance",
          "type": "uint256"
        },
        {
          "internalType": "uint256",
          "name": "needed",
          "type": "uint256"
        }
      ],
      "name": "ERC20InsufficientBalance",
      "type": "error"
    },
    {
      "inputs": [
        {
          "internalType": "address",
          "name": "approver",
          "type": "address"
        }
      ],
      "name": "ERC20InvalidApprover",
      "type": "error"
    },
    {
      "inputs": [
        {
          "internalType": "address",
          "name": "receiver",
          "type": "address"
        }
      ],
      "name": "ERC20InvalidReceiver",
      "type": "error"
    },
    {
      "inputs": [
        {
          "internalType": "address",
          "name": "sender",
          "type": "address"
        }
      ],
      "name": "ERC20InvalidSender",
      "type": "error"
    },
    {
      "inputs": [
        {
          "internalType": "address",
          "name": "spender",
          "type": "address"
        }
      ],
      "name": "ERC20InvalidSpender",
      "type": "error"
    },
    {
      "inputs": [],
      "name": "InvalidInitialization",
      "type": "error"
    },
    {
      "inputs": [],
      "name": "NotInitializing",
      "type": "error"
    },
    {
      "anonymous": false,
      "inputs": [
        {
          "indexed": true,
          "internalType": "address",
          "name": "owner",
          "type": "address"
        },
        {
          "indexed": true,
          "internalType": "address",
          "name": "spender",
          "type": "address"
        },
        {
          "indexed": false,
          "internalType": "uint256",
          "name": "value",
          "type": "uint256"
        }
      ],
      "name": "Approval",
      "type": "event"
    },
    {
      "anonymous": false,
      "inputs": [
        {
          "indexed": false,
          "internalType": "uint64",
          "name": "version",
          "type": "uint64"
        }
      ],
      "name": "Initialized",
      "type": "event"
    },
    {
      "anonymous": false,
      "inputs": [
        {
          "indexed": true,
          "internalType": "address",
          "name": "previousOwner",
          "type": "address"
        },
        {
          "indexed": true,
          "internalType": "address",
          "name": "newOwner",
          "type": "address"
        }
      ],
      "name": "OwnershipTransferred",
      "type": "event"
    },
    {
      "anonymous": false,
      "inputs": [
        {
          "indexed": true,
          "internalType": "address",
          "name": "from",
          "type": "address"
        },
        {
          "indexed": true,
          "internalType": "address",
          "name": "to",
          "type": "address"
        },
        {
          "indexed": false,
          "internalType": "uint256",
          "name": "value",
          "type": "uint256"
        }
      ],
      "name": "Transfer",
      "type": "event"
    },
    {
      "inputs": [
        {
          "internalType": "string",
          "name": "name_",
          "type": "string"
        },
        {
          "internalType": "string",
          "name": "symbol_",
          "type": "string"
        },
        {
          "internalType": "contract IERC20",
          "name": "_primary",
          "type": "address"
        },
        {
          "internalType": "contract IERC20",
          "name": "_secondary",
          "type": "address"
        },
        {
          "internalType": "contract IERC20",
          "name": "_reward",
          "type": "address"
        },
        {
          "components": [
            {
              "internalType": "contract TokanRouter",
              "name": "router",
              "type": "address"
            },
            {
              "internalType": "contract TokanPair",
              "name": "pair",
              "type": "address"
            },
            {
              "internalType": "contract TokanGauge",
              "name": "gauge",
              "type": "address"
            },
            {
              "internalType": "uint256",
              "name": "decimalsA",
              "type": "uint256"
            },
            {
              "internalType": "bool",
              "name": "stable",
              "type": "bool"
            },
            {
              "components": [
                {
                  "internalType": "address",
                  "name": "from",
                  "type": "address"
                },
                {
                  "internalType": "address",
                  "name": "to",
                  "type": "address"
                },
                {
                  "internalType": "bool",
                  "name": "stable",
                  "type": "bool"
                }
              ],
              "internalType": "struct TokanRouter.Route[]",
              "name": "rewardExchangeRoute",
              "type": "tuple[]"
            }
          ],
          "internalType": "struct TokanDexInvestment.TokanDexInvestmentConfig",
          "name": "config",
          "type": "tuple"
        }
      ],
      "name": "__TokanDexInvestment_init",
      "outputs": [],
      "stateMutability": "nonpayable",
      "type": "function"
    },
    {
      "inputs": [
        {
          "internalType": "uint256",
          "name": "minOut",
          "type": "uint256"
        },
        {
          "internalType": "uint256",
          "name": "maxOut",
          "type": "uint256"
        }
      ],
      "name": "alarm",
      "outputs": [
        {
          "internalType": "uint256",
          "name": "exchanged",
          "type": "uint256"
        }
      ],
      "stateMutability": "nonpayable",
      "type": "function"
    },
    {
      "inputs": [
        {
          "internalType": "address",
          "name": "owner",
          "type": "address"
        },
        {
          "internalType": "address",
          "name": "spender",
          "type": "address"
        }
      ],
      "name": "allowance",
      "outputs": [
        {
          "internalType": "uint256",
          "name": "",
          "type": "uint256"
        }
      ],
      "stateMutability": "view",
      "type": "function"
    },
    {
      "inputs": [
        {
          "internalType": "address",
          "name": "spender",
          "type": "address"
        },
        {
          "internalType": "uint256",
          "name": "value",
          "type": "uint256"
        }
      ],
      "name": "approve",
      "outputs": [
        {
          "internalType": "bool",
          "name": "",
          "type": "bool"
        }
      ],
      "stateMutability": "nonpayable",
      "type": "function"
    },
    {
      "inputs": [],
      "name": "approveAll",
      "outputs": [],
      "stateMutability": "nonpayable",
      "type": "function"
    },
    {
      "inputs": [
        {
          "internalType": "address",
          "name": "account",
          "type": "address"
        }
      ],
      "name": "balanceOf",
      "outputs": [
        {
          "internalType": "uint256",
          "name": "",
          "type": "uint256"
        }
      ],
      "stateMutability": "view",
      "type": "function"
    },
    {
      "inputs": [
        {
          "internalType": "uint256",
          "name": "_balance",
          "type": "uint256"
        }
      ],
      "name": "calculateValue",
      "outputs": [
        {
          "internalType": "uint256",
          "name": "value",
          "type": "uint256"
        }
      ],
      "stateMutability": "view",
      "type": "function"
    },
    {
      "inputs": [
        {
          "internalType": "address",
          "name": "wallet",
          "type": "address"
        }
      ],
      "name": "calculateValue",
      "outputs": [
        {
          "internalType": "uint256",
          "name": "value",
          "type": "uint256"
        }
      ],
      "stateMutability": "view",
      "type": "function"
    },
    {
      "inputs": [],
      "name": "claimOwner",
      "outputs": [],
      "stateMutability": "nonpayable",
      "type": "function"
    },
    {
      "inputs": [],
      "name": "decimals",
      "outputs": [
        {
          "internalType": "uint8",
          "name": "",
          "type": "uint8"
        }
      ],
      "stateMutability": "view",
      "type": "function"
    },
    {
      "inputs": [
        {
          "internalType": "uint256",
          "name": "amount",
          "type": "uint256"
        }
      ],
      "name": "deposit",
      "outputs": [
        {
          "internalType": "uint256",
          "name": "minted",
          "type": "uint256"
        }
      ],
      "stateMutability": "nonpayable",
      "type": "function"
    },
    {
      "inputs": [
        {
          "internalType": "uint256",
          "name": "liquidity",
          "type": "uint256"
        }
      ],
      "name": "depositPooledLiquidity",
      "outputs": [
        {
          "internalType": "uint256",
          "name": "minted",
          "type": "uint256"
        }
      ],
      "stateMutability": "nonpayable",
      "type": "function"
    },
    {
      "inputs": [],
      "name": "gauge",
      "outputs": [
        {
          "internalType": "contract TokanGauge",
          "name": "",
          "type": "address"
        }
      ],
      "stateMutability": "view",
      "type": "function"
    },
    {
      "inputs": [],
      "name": "getRewardsValue",
      "outputs": [
        {
          "internalType": "uint256",
          "name": "",
          "type": "uint256"
        }
      ],
      "stateMutability": "view",
      "type": "function"
    },
    {
      "inputs": [],
      "name": "name",
      "outputs": [
        {
          "internalType": "string",
          "name": "",
          "type": "string"
        }
      ],
      "stateMutability": "view",
      "type": "function"
    },
    {
      "inputs": [],
      "name": "pair",
      "outputs": [
        {
          "internalType": "contract TokanPair",
          "name": "",
          "type": "address"
        }
      ],
      "stateMutability": "view",
      "type": "function"
    },
    {
      "inputs": [],
      "name": "primary",
      "outputs": [
        {
          "internalType": "contract IERC20",
          "name": "",
          "type": "address"
        }
      ],
      "stateMutability": "view",
      "type": "function"
    },
    {
      "inputs": [
        {
          "internalType": "bool",
          "name": "reinvestSecondary",
          "type": "bool"
        },
        {
          "internalType": "bool",
          "name": "reinvestRewards",
          "type": "bool"
        }
      ],
      "name": "reinvest",
      "outputs": [],
      "stateMutability": "nonpayable",
      "type": "function"
    },
    {
      "inputs": [],
      "name": "reward",
      "outputs": [
        {
          "internalType": "contract IERC20",
          "name": "",
          "type": "address"
        }
      ],
      "stateMutability": "view",
      "type": "function"
    },
    {
      "inputs": [],
      "name": "router",
      "outputs": [
        {
          "internalType": "contract TokanRouter",
          "name": "",
          "type": "address"
        }
      ],
      "stateMutability": "view",
      "type": "function"
    },
    {
      "inputs": [],
      "name": "secondary",
      "outputs": [
        {
          "internalType": "contract IERC20",
          "name": "",
          "type": "address"
        }
      ],
      "stateMutability": "view",
      "type": "function"
    },
    {
      "inputs": [
        {
          "internalType": "address",
          "name": "account",
          "type": "address"
        },
        {
          "internalType": "bool",
          "name": "_user",
          "type": "bool"
        }
      ],
      "name": "setUser",
      "outputs": [],
      "stateMutability": "nonpayable",
      "type": "function"
    },
    {
      "inputs": [],
      "name": "symbol",
      "outputs": [
        {
          "internalType": "string",
          "name": "",
          "type": "string"
        }
      ],
      "stateMutability": "view",
      "type": "function"
    },
    {
      "inputs": [],
      "name": "totalSupply",
      "outputs": [
        {
          "internalType": "uint256",
          "name": "",
          "type": "uint256"
        }
      ],
      "stateMutability": "view",
      "type": "function"
    },
    {
      "inputs": [
        {
          "internalType": "address",
          "name": "to",
          "type": "address"
        },
        {
          "internalType": "uint256",
          "name": "value",
          "type": "uint256"
        }
      ],
      "name": "transfer",
      "outputs": [
        {
          "internalType": "bool",
          "name": "",
          "type": "bool"
        }
      ],
      "stateMutability": "nonpayable",
      "type": "function"
    },
    {
      "inputs": [
        {
          "internalType": "address",
          "name": "from",
          "type": "address"
        },
        {
          "internalType": "address",
          "name": "to",
          "type": "address"
        },
        {
          "internalType": "uint256",
          "name": "value",
          "type": "uint256"
        }
      ],
      "name": "transferFrom",
      "outputs": [
        {
          "internalType": "bool",
          "name": "",
          "type": "bool"
        }
      ],
      "stateMutability": "nonpayable",
      "type": "function"
    },
    {
      "inputs": [
        {
          "internalType": "uint256",
          "name": "amount",
          "type": "uint256"
        }
      ],
      "name": "withdraw",
      "outputs": [
        {
          "internalType": "uint256",
          "name": "withdrawn",
          "type": "uint256"
        }
      ],
      "stateMutability": "nonpayable",
      "type": "function"
    }
  ],
  "transactionHash": "0xe0df89a5c675371706b7d499fb56e2bc30e062d805e011e8767055ea3de8e5d9",
  "args": [],
  "numDeployments": 14,
  "solcInputHash": "272ffae8ee56a4564d8b134fa4774adf",
  "bytecode": "0x608060405234801561001057600080fd5b50615b4e80620000216000396000f3fe608060405234801561001057600080fd5b50600436106101a95760003560e01c80637b634b01116100f9578063af79b2a611610097578063b7ae7e3911610071578063b7ae7e39146104e8578063c6dbdf6114610504578063dd62ed3e14610522578063f887ea4014610552576101a9565b8063af79b2a61461046c578063b4d8b8c81461049c578063b6b55f25146104b8576101a9565b80639d3c8cc4116100d35780639d3c8cc4146103e2578063a6f19c8414610400578063a8aa1b311461041e578063a9059cbb1461043c576101a9565b80637b634b011461036457806391c75a2e1461039457806395d89b41146103c4576101a9565b8063313ce56711610166578063432075461161014057806343207546146102ca57806361a84ef0146102fa57806370a08231146103185780637a57a98414610348576101a9565b8063313ce56714610298578063380d0c08146102b65780633bd1adec146102c0576101a9565b806306fdde03146101ae578063095ea7b3146101cc57806318160ddd146101fc578063228cb7331461021a57806323b872dd146102385780632e1a7d4d14610268575b600080fd5b6101b6610570565b6040516101c391906141b8565b60405180910390f35b6101e660048036038101906101e19190614282565b610611565b6040516101f391906142dd565b60405180910390f35b610204610634565b6040516102119190614307565b60405180910390f35b61022261064c565b60405161022f9190614381565b60405180910390f35b610252600480360381019061024d919061439c565b610672565b60405161025f91906142dd565b60405180910390f35b610282600480360381019061027d91906143ef565b6106a1565b60405161028f9190614307565b60405180910390f35b6102a0610846565b6040516102ad9190614438565b60405180910390f35b6102be61084f565b005b6102c8610cbe565b005b6102e460048036038101906102df91906143ef565b610d46565b6040516102f19190614307565b60405180910390f35b610302610efb565b60405161030f9190614307565b60405180910390f35b610332600480360381019061032d9190614453565b610fc3565b60405161033f9190614307565b60405180910390f35b610362600480360381019061035d91906144ac565b61101a565b005b61037e600480360381019061037991906144ec565b6110f1565b60405161038b9190614307565b60405180910390f35b6103ae60048036038101906103a991906143ef565b61129b565b6040516103bb9190614307565b60405180910390f35b6103cc6112d4565b6040516103d991906141b8565b60405180910390f35b6103ea611375565b6040516103f79190614381565b60405180910390f35b61040861139b565b604051610415919061454d565b60405180910390f35b6104266113c1565b6040516104339190614589565b60405180910390f35b61045660048036038101906104519190614282565b6113e7565b60405161046391906142dd565b60405180910390f35b61048660048036038101906104819190614453565b61140a565b6040516104939190614307565b60405180910390f35b6104b660048036038101906104b191906149c3565b611451565b005b6104d260048036038101906104cd91906143ef565b611612565b6040516104df9190614307565b60405180910390f35b61050260048036038101906104fd9190614aa4565b6117ab565b005b61050c611a71565b6040516105199190614381565b60405180910390f35b61053c60048036038101906105379190614ae4565b611a95565b6040516105499190614307565b60405180910390f35b61055a611b2a565b6040516105679190614b45565b60405180910390f35b6060600061057c611b50565b905080600301805461058d90614b8f565b80601f01602080910402602001604051908101604052809291908181526020018280546105b990614b8f565b80156106065780601f106105db57610100808354040283529160200191610606565b820191906000526020600020905b8154815290600101906020018083116105e957829003601f168201915b505050505091505090565b60008061061c611b78565b9050610629818585611b80565b600191505092915050565b60008061063f611b50565b9050806002015491505090565b600260009054906101000a900473ffffffffffffffffffffffffffffffffffffffff1681565b60008061067d611b78565b905061068a858285611b92565b610695858585611c26565b60019150509392505050565b60006106ab611d1a565b6106ea576040517f08c379a00000000000000000000000000000000000000000000000000000000081526004016106e190614c0c565b60405180910390fd5b6000821161072d576040517f08c379a000000000000000000000000000000000000000000000000000000000815260040161072490614c78565b60405180910390fd5b6000610737610634565b905061074a610744611b78565b84611d75565b60006107568483611df7565b905060008054906101000a900473ffffffffffffffffffffffffffffffffffffffff1673ffffffffffffffffffffffffffffffffffffffff1663a9059cbb61079c611b78565b836040518363ffffffff1660e01b81526004016107ba929190614ca7565b6020604051808303816000875af11580156107d9573d6000803e3d6000fd5b505050506040513d601f19601f820116820180604052508101906107fd9190614ce5565b61083c576040517f08c379a000000000000000000000000000000000000000000000000000000000815260040161083390614d5e565b60405180910390fd5b8092505050919050565b60006012905090565b60008054906101000a900473ffffffffffffffffffffffffffffffffffffffff1673ffffffffffffffffffffffffffffffffffffffff1663095ea7b3600360009054906101000a900473ffffffffffffffffffffffffffffffffffffffff167fffffffffffffffffffffffffffffffffffffffffffffffffffffffffffffffff6040518363ffffffff1660e01b81526004016108ec929190614ca7565b6020604051808303816000875af115801561090b573d6000803e3d6000fd5b505050506040513d601f19601f8201168201806040525081019061092f9190614ce5565b50600160009054906101000a900473ffffffffffffffffffffffffffffffffffffffff1673ffffffffffffffffffffffffffffffffffffffff1663095ea7b3600360009054906101000a900473ffffffffffffffffffffffffffffffffffffffff167fffffffffffffffffffffffffffffffffffffffffffffffffffffffffffffffff6040518363ffffffff1660e01b81526004016109cf929190614ca7565b6020604051808303816000875af11580156109ee573d6000803e3d6000fd5b505050506040513d601f19601f82011682018060405250810190610a129190614ce5565b50600460009054906101000a900473ffffffffffffffffffffffffffffffffffffffff1673ffffffffffffffffffffffffffffffffffffffff1663095ea7b3600560009054906101000a900473ffffffffffffffffffffffffffffffffffffffff167fffffffffffffffffffffffffffffffffffffffffffffffffffffffffffffffff6040518363ffffffff1660e01b8152600401610ab2929190614ca7565b6020604051808303816000875af1158015610ad1573d6000803e3d6000fd5b505050506040513d601f19601f82011682018060405250810190610af59190614ce5565b50600460009054906101000a900473ffffffffffffffffffffffffffffffffffffffff1673ffffffffffffffffffffffffffffffffffffffff1663095ea7b3600360009054906101000a900473ffffffffffffffffffffffffffffffffffffffff167fffffffffffffffffffffffffffffffffffffffffffffffffffffffffffffffff6040518363ffffffff1660e01b8152600401610b95929190614ca7565b6020604051808303816000875af1158015610bb4573d6000803e3d6000fd5b505050506040513d601f19601f82011682018060405250810190610bd89190614ce5565b50600260009054906101000a900473ffffffffffffffffffffffffffffffffffffffff1673ffffffffffffffffffffffffffffffffffffffff1663095ea7b3600360009054906101000a900473ffffffffffffffffffffffffffffffffffffffff167fffffffffffffffffffffffffffffffffffffffffffffffffffffffffffffffff6040518363ffffffff1660e01b8152600401610c78929190614ca7565b6020604051808303816000875af1158015610c97573d6000803e3d6000fd5b505050506040513d601f19601f82011682018060405250810190610cbb9190614ce5565b50565b600073ffffffffffffffffffffffffffffffffffffffff16610cde6120de565b73ffffffffffffffffffffffffffffffffffffffff1614610d34576040517f08c379a0000000000000000000000000000000000000000000000000000000008152600401610d2b90614dca565b60405180910390fd5b610d44610d3f611b78565b612107565b565b6000610d50611d1a565b610d8f576040517f08c379a0000000000000000000000000000000000000000000000000000000008152600401610d8690614c0c565b60405180910390fd5b600460009054906101000a900473ffffffffffffffffffffffffffffffffffffffff1673ffffffffffffffffffffffffffffffffffffffff166323b872dd610dd5611b78565b30856040518463ffffffff1660e01b8152600401610df593929190614dea565b6020604051808303816000875af1158015610e14573d6000803e3d6000fd5b505050506040513d601f19601f82011682018060405250810190610e389190614ce5565b50600560009054906101000a900473ffffffffffffffffffffffffffffffffffffffff1673ffffffffffffffffffffffffffffffffffffffff1663b6b55f25836040518263ffffffff1660e01b8152600401610e949190614307565b600060405180830381600087803b158015610eae57600080fd5b505af1158015610ec2573d6000803e3d6000fd5b505050506000610ed183612194565b90506000610ede826121c3565b9050610ef1610eeb611b78565b82612244565b8092505050919050565b600080600260009054906101000a900473ffffffffffffffffffffffffffffffffffffffff1673ffffffffffffffffffffffffffffffffffffffff166370a08231306040518263ffffffff1660e01b8152600401610f599190614e21565b602060405180830381865afa158015610f76573d6000803e3d6000fd5b505050506040513d601f19601f82011682018060405250810190610f9a9190614e51565b90506000610fa66122c6565b9050610fbc8183610fb79190614ead565b612368565b9250505090565b600080610fce611b50565b90508060000160008473ffffffffffffffffffffffffffffffffffffffff1673ffffffffffffffffffffffffffffffffffffffff16815260200190815260200160002054915050919050565b6110226120de565b73ffffffffffffffffffffffffffffffffffffffff16611040611b78565b73ffffffffffffffffffffffffffffffffffffffff1614611096576040517f08c379a000000000000000000000000000000000000000000000000000000000815260040161108d90614f2d565b60405180910390fd5b80600860008473ffffffffffffffffffffffffffffffffffffffff1673ffffffffffffffffffffffffffffffffffffffff16815260200190815260200160002060006101000a81548160ff0219169083151502179055505050565b60006110fb611d1a565b61113a576040517f08c379a000000000000000000000000000000000000000000000000000000000815260040161113190614c0c565b60405180910390fd5b611145606480612441565b50506000600160009054906101000a900473ffffffffffffffffffffffffffffffffffffffff1673ffffffffffffffffffffffffffffffffffffffff166370a08231306040518263ffffffff1660e01b81526004016111a49190614e21565b602060405180830381865afa1580156111c1573d6000803e3d6000fd5b505050506040513d601f19601f820116820180604052508101906111e59190614e51565b905060006111f282612795565b90508185826112019190614f4d565b1015611242576040517f08c379a000000000000000000000000000000000000000000000000000000000815260040161123990614fdb565b60405180910390fd5b81848261124f9190614f4d565b1115611290576040517f08c379a000000000000000000000000000000000000000000000000000000000815260040161128790615047565b60405180910390fd5b809250505092915050565b6000806112a6610634565b905060006112b2612984565b90508184826112c19190614f4d565b6112cb9190615096565b92505050919050565b606060006112e0611b50565b90508060040180546112f190614b8f565b80601f016020809104026020016040519081016040528092919081815260200182805461131d90614b8f565b801561136a5780601f1061133f5761010080835404028352916020019161136a565b820191906000526020600020905b81548152906001019060200180831161134d57829003601f168201915b505050505091505090565b600160009054906101000a900473ffffffffffffffffffffffffffffffffffffffff1681565b600560009054906101000a900473ffffffffffffffffffffffffffffffffffffffff1681565b600460009054906101000a900473ffffffffffffffffffffffffffffffffffffffff1681565b6000806113f2611b78565b90506113ff818585611c26565b600191505092915050565b600080611415610634565b9050600061142284610fc3565b9050600061142e612984565b905082828261143d9190614f4d565b6114479190615096565b9350505050919050565b600061145b6129c7565b905060008160000160089054906101000a900460ff1615905060008260000160009054906101000a900467ffffffffffffffff1690506000808267ffffffffffffffff161480156114a95750825b9050600060018367ffffffffffffffff161480156114de575060003073ffffffffffffffffffffffffffffffffffffffff163b145b9050811580156114ec575080155b15611523576040517ff92ee8a900000000000000000000000000000000000000000000000000000000815260040160405180910390fd5b60018560000160006101000a81548167ffffffffffffffff021916908367ffffffffffffffff16021790555083156115735760018560000160086101000a81548160ff0219169083151502179055505b61157b6129ef565b6115858b8b6129f9565b61158e89612a36565b6115988888612a81565b6115a186612b0f565b6115a961084f565b83156116055760008560000160086101000a81548160ff0219169083151502179055507fc7f505b2f371ae2175ee4913f4499e1f2633a7b5936321eed1cdaeb6115181d260016040516115fc9190615116565b60405180910390a15b5050505050505050505050565b600061161c611d1a565b61165b576040517f08c379a000000000000000000000000000000000000000000000000000000000815260040161165290614c0c565b60405180910390fd5b6000821161169e576040517f08c379a000000000000000000000000000000000000000000000000000000000815260040161169590614c78565b60405180910390fd5b60008054906101000a900473ffffffffffffffffffffffffffffffffffffffff1673ffffffffffffffffffffffffffffffffffffffff166323b872dd6116e2611b78565b30856040518463ffffffff1660e01b815260040161170293929190614dea565b6020604051808303816000875af1158015611721573d6000803e3d6000fd5b505050506040513d601f19601f820116820180604052508101906117459190614ce5565b611784576040517f08c379a000000000000000000000000000000000000000000000000000000000815260040161177b90614d5e565b60405180910390fd5b600061178f83612d30565b90506117a261179c611b78565b82612244565b80915050919050565b6117b3611d1a565b6117f2576040517f08c379a00000000000000000000000000000000000000000000000000000000081526004016117e990614c0c565b60405180910390fd5b81156118a4576000600160009054906101000a900473ffffffffffffffffffffffffffffffffffffffff1673ffffffffffffffffffffffffffffffffffffffff166370a08231306040518263ffffffff1660e01b81526004016118559190614e21565b602060405180830381865afa158015611872573d6000803e3d6000fd5b505050506040513d601f19601f820116820180604052508101906118969190614e51565b90506118a181612795565b50505b8080156119005750600073ffffffffffffffffffffffffffffffffffffffff16600260009054906101000a900473ffffffffffffffffffffffffffffffffffffffff1673ffffffffffffffffffffffffffffffffffffffff1614155b156119c25761190d612d72565b6000600260009054906101000a900473ffffffffffffffffffffffffffffffffffffffff1673ffffffffffffffffffffffffffffffffffffffff166370a08231306040518263ffffffff1660e01b815260040161196a9190614e21565b602060405180830381865afa158015611987573d6000803e3d6000fd5b505050506040513d601f19601f820116820180604052508101906119ab9190614e51565b9050600081146119c0576119be81612df6565b505b505b60008060009054906101000a900473ffffffffffffffffffffffffffffffffffffffff1673ffffffffffffffffffffffffffffffffffffffff166370a08231306040518263ffffffff1660e01b8152600401611a1e9190614e21565b602060405180830381865afa158015611a3b573d6000803e3d6000fd5b505050506040513d601f19601f82011682018060405250810190611a5f9190614e51565b9050611a6a81612edd565b5050505050565b60008054906101000a900473ffffffffffffffffffffffffffffffffffffffff1681565b600080611aa0611b50565b90508060010160008573ffffffffffffffffffffffffffffffffffffffff1673ffffffffffffffffffffffffffffffffffffffff16815260200190815260200160002060008473ffffffffffffffffffffffffffffffffffffffff1673ffffffffffffffffffffffffffffffffffffffff1681526020019081526020016000205491505092915050565b600360009054906101000a900473ffffffffffffffffffffffffffffffffffffffff1681565b60007f52c63247e1f47db19d5ce0460030c497f067ca4cebf71ba98eeadabe20bace00905090565b600033905090565b611b8d8383836001612f28565b505050565b6000611b9e8484611a95565b90507fffffffffffffffffffffffffffffffffffffffffffffffffffffffffffffffff8114611c205781811015611c10578281836040517ffb8f41b2000000000000000000000000000000000000000000000000000000008152600401611c0793929190615131565b60405180910390fd5b611c1f84848484036000612f28565b5b50505050565b600073ffffffffffffffffffffffffffffffffffffffff168373ffffffffffffffffffffffffffffffffffffffff1603611c985760006040517f96c6fd1e000000000000000000000000000000000000000000000000000000008152600401611c8f9190614e21565b60405180910390fd5b600073ffffffffffffffffffffffffffffffffffffffff168273ffffffffffffffffffffffffffffffffffffffff1603611d0a5760006040517fec442f05000000000000000000000000000000000000000000000000000000008152600401611d019190614e21565b60405180910390fd5b611d1583838361310e565b505050565b600060086000611d28611b78565b73ffffffffffffffffffffffffffffffffffffffff1673ffffffffffffffffffffffffffffffffffffffff16815260200190815260200160002060009054906101000a900460ff16905090565b600073ffffffffffffffffffffffffffffffffffffffff168273ffffffffffffffffffffffffffffffffffffffff1603611de75760006040517f96c6fd1e000000000000000000000000000000000000000000000000000000008152600401611dde9190614e21565b60405180910390fd5b611df38260008361310e565b5050565b600080828460008054906101000a900473ffffffffffffffffffffffffffffffffffffffff1673ffffffffffffffffffffffffffffffffffffffff166370a08231306040518263ffffffff1660e01b8152600401611e559190614e21565b602060405180830381865afa158015611e72573d6000803e3d6000fd5b505050506040513d601f19601f82011682018060405250810190611e969190614e51565b611ea09190614f4d565b611eaa9190615096565b905060008385600160009054906101000a900473ffffffffffffffffffffffffffffffffffffffff1673ffffffffffffffffffffffffffffffffffffffff166370a08231306040518263ffffffff1660e01b8152600401611f0b9190614e21565b602060405180830381865afa158015611f28573d6000803e3d6000fd5b505050506040513d601f19601f82011682018060405250810190611f4c9190614e51565b611f569190614f4d565b611f609190615096565b9050600080611f6f8787612441565b915091508184611f7f9190614ead565b9450611f958184611f909190614ead565b612795565b85611fa09190614ead565b9450600073ffffffffffffffffffffffffffffffffffffffff16600260009054906101000a900473ffffffffffffffffffffffffffffffffffffffff1673ffffffffffffffffffffffffffffffffffffffff16146120d457612000612d72565b6000600260009054906101000a900473ffffffffffffffffffffffffffffffffffffffff1673ffffffffffffffffffffffffffffffffffffffff166370a08231306040518263ffffffff1660e01b815260040161205d9190614e21565b602060405180830381865afa15801561207a573d6000803e3d6000fd5b505050506040513d601f19601f8201168201806040525081019061209e9190614e51565b905060008789836120af9190614f4d565b6120b99190615096565b90506120c481612df6565b876120cf9190614ead565b965050505b5050505092915050565b60007fb53127684a568b3173ae13b9f8a6016e243e63b6e8ee1178d6a717850b5d610354905090565b60006121116120de565b9050817fb53127684a568b3173ae13b9f8a6016e243e63b6e8ee1178d6a717850b5d6103558173ffffffffffffffffffffffffffffffffffffffff168173ffffffffffffffffffffffffffffffffffffffff167f8be0079c531659141344cd1fd0a4f28419497f9722a3daafe3b4186f6b6457e060405160405180910390a35050565b60008060006121a28461334d565b915091506121af816135a2565b826121ba9190614ead565b92505050919050565b6000806121ce610634565b905060008103612205576121e061366b565b670de0b6b3a7640000846121f49190614f4d565b6121fe9190615096565b915061223e565b600061220f612984565b9050838161221d9190615168565b612225610634565b856122309190614f4d565b61223a9190615096565b9250505b50919050565b600073ffffffffffffffffffffffffffffffffffffffff168273ffffffffffffffffffffffffffffffffffffffff16036122b65760006040517fec442f050000000000000000000000000000000000000000000000000000000081526004016122ad9190614e21565b60405180910390fd5b6122c26000838361310e565b5050565b6000600560009054906101000a900473ffffffffffffffffffffffffffffffffffffffff1673ffffffffffffffffffffffffffffffffffffffff16628cc262306040518263ffffffff1660e01b81526004016123229190614e21565b602060405180830381865afa15801561233f573d6000803e3d6000fd5b505050506040513d601f19601f820116820180604052508101906123639190614e51565b905090565b600080600360009054906101000a900473ffffffffffffffffffffffffffffffffffffffff1673ffffffffffffffffffffffffffffffffffffffff16639881fcb48460076040518363ffffffff1660e01b81526004016123c9929190615346565b600060405180830381865afa1580156123e6573d6000803e3d6000fd5b505050506040513d6000823e3d601f19601f8201168201806040525081019061240f9190615439565b905080600182516124209190615168565b8151811061243157612430615482565b5b6020026020010151915050919050565b60008060008385600560009054906101000a900473ffffffffffffffffffffffffffffffffffffffff1673ffffffffffffffffffffffffffffffffffffffff166370a08231306040518263ffffffff1660e01b81526004016124a39190614e21565b602060405180830381865afa1580156124c0573d6000803e3d6000fd5b505050506040513d601f19601f820116820180604052508101906124e49190614e51565b6124ee9190614f4d565b6124f89190615096565b9050600560009054906101000a900473ffffffffffffffffffffffffffffffffffffffff1673ffffffffffffffffffffffffffffffffffffffff16632e1a7d4d826040518263ffffffff1660e01b81526004016125559190614307565b600060405180830381600087803b15801561256f57600080fd5b505af1158015612583573d6000803e3d6000fd5b50505050600080600360009054906101000a900473ffffffffffffffffffffffffffffffffffffffff1673ffffffffffffffffffffffffffffffffffffffff16634386e63c60008054906101000a900473ffffffffffffffffffffffffffffffffffffffff16600160009054906101000a900473ffffffffffffffffffffffffffffffffffffffff16600560149054906101000a900460ff16876040518563ffffffff1660e01b815260040161263c94939291906154b1565b6040805180830381865afa158015612658573d6000803e3d6000fd5b505050506040513d601f19601f8201168201806040525081019061267c91906154f6565b91509150600080600360009054906101000a900473ffffffffffffffffffffffffffffffffffffffff1673ffffffffffffffffffffffffffffffffffffffff16630dede6c460008054906101000a900473ffffffffffffffffffffffffffffffffffffffff16600160009054906101000a900473ffffffffffffffffffffffffffffffffffffffff16600560149054906101000a900460ff1689898930426040518963ffffffff1660e01b815260040161273d989796959493929190615536565b60408051808303816000875af115801561275b573d6000803e3d6000fd5b505050506040513d601f19601f8201168201806040525081019061277f91906154f6565b9150915081965080955050505050509250929050565b600080600167ffffffffffffffff8111156127b3576127b26145ae565b5b6040519080825280602002602001820160405280156127ec57816020015b6127d96140d9565b8152602001906001900390816127d15790505b5090506040518060600160405280600160009054906101000a900473ffffffffffffffffffffffffffffffffffffffff1673ffffffffffffffffffffffffffffffffffffffff16815260200160008054906101000a900473ffffffffffffffffffffffffffffffffffffffff1673ffffffffffffffffffffffffffffffffffffffff168152602001600560149054906101000a900460ff1615158152508160008151811061289d5761289c615482565b5b60200260200101819052506000600360009054906101000a900473ffffffffffffffffffffffffffffffffffffffff1673ffffffffffffffffffffffffffffffffffffffff1663f41766d8856128f2876135a2565b8530426040518663ffffffff1660e01b8152600401612915959493929190615694565b6000604051808303816000875af1158015612934573d6000803e3d6000fd5b505050506040513d6000823e3d601f19601f8201168201806040525081019061295d9190615439565b90508060018151811061297357612972615482565b5b602002602001015192505050919050565b600080600080612992613675565b9250925092506129a181612368565b6129aa836135a2565b846129b59190614ead565b6129bf9190614ead565b935050505090565b60007ff0c57e16840df040f15088dc2f81fe391c3923bec73e23a9662efc9c229c6a00905090565b6129f761380a565b565b612a0161380a565b6000612a0b611b50565b905082816003019081612a1e9190615890565b5081816004019081612a309190615890565b50505050565b612a3e61380a565b806000806101000a81548173ffffffffffffffffffffffffffffffffffffffff021916908373ffffffffffffffffffffffffffffffffffffffff16021790555050565b612a8961380a565b81600160006101000a81548173ffffffffffffffffffffffffffffffffffffffff021916908373ffffffffffffffffffffffffffffffffffffffff16021790555080600260006101000a81548173ffffffffffffffffffffffffffffffffffffffff021916908373ffffffffffffffffffffffffffffffffffffffff1602179055505050565b612b1761380a565b8060000151600360006101000a81548173ffffffffffffffffffffffffffffffffffffffff021916908373ffffffffffffffffffffffffffffffffffffffff1602179055508060200151600460006101000a81548173ffffffffffffffffffffffffffffffffffffffff021916908373ffffffffffffffffffffffffffffffffffffffff1602179055508060400151600560006101000a81548173ffffffffffffffffffffffffffffffffffffffff021916908373ffffffffffffffffffffffffffffffffffffffff16021790555080606001516006819055508060800151600560146101000a81548160ff02191690831515021790555060005b8160a0015151811015612d2c5760008260a001518281518110612c3857612c37615482565b5b60200260200101519050600781908060018154018082558091505060019003906000526020600020906002020160009091909190915060008201518160000160006101000a81548173ffffffffffffffffffffffffffffffffffffffff021916908373ffffffffffffffffffffffffffffffffffffffff16021790555060208201518160010160006101000a81548173ffffffffffffffffffffffffffffffffffffffff021916908373ffffffffffffffffffffffffffffffffffffffff16021790555060408201518160010160146101000a81548160ff0219169083151502179055505050508080600101915050612c12565b5050565b6000806000612d3e84612edd565b91509150612d69612d4e826135a2565b8386612d5a9190615168565b612d649190614ead565b6121c3565b92505050919050565b600560009054906101000a900473ffffffffffffffffffffffffffffffffffffffff1673ffffffffffffffffffffffffffffffffffffffff16633d18b9126040518163ffffffff1660e01b8152600401600060405180830381600087803b158015612ddc57600080fd5b505af1158015612df0573d6000803e3d6000fd5b50505050565b600080612e0283612368565b90506000600360009054906101000a900473ffffffffffffffffffffffffffffffffffffffff1673ffffffffffffffffffffffffffffffffffffffff1663f41766d88584600730426040518663ffffffff1660e01b8152600401612e6a959493929190615962565b6000604051808303816000875af1158015612e89573d6000803e3d6000fd5b505050506040513d6000823e3d601f19601f82011682018060405250810190612eb29190615439565b90508060078054905081518110612ecc57612ecb615482565b5b602002602001015192505050919050565b60008060008314612f1a57612ef18361384a565b9150612efc826138b6565b9050612f138284612f0d9190615168565b82613aa5565b5050612f23565b60009150600090505b915091565b6000612f32611b50565b9050600073ffffffffffffffffffffffffffffffffffffffff168573ffffffffffffffffffffffffffffffffffffffff1603612fa65760006040517fe602df05000000000000000000000000000000000000000000000000000000008152600401612f9d9190614e21565b60405180910390fd5b600073ffffffffffffffffffffffffffffffffffffffff168473ffffffffffffffffffffffffffffffffffffffff16036130185760006040517f94280d6200000000000000000000000000000000000000000000000000000000815260040161300f9190614e21565b60405180910390fd5b828160010160008773ffffffffffffffffffffffffffffffffffffffff1673ffffffffffffffffffffffffffffffffffffffff16815260200190815260200160002060008673ffffffffffffffffffffffffffffffffffffffff1673ffffffffffffffffffffffffffffffffffffffff168152602001908152602001600020819055508115613107578373ffffffffffffffffffffffffffffffffffffffff168573ffffffffffffffffffffffffffffffffffffffff167f8c5be1e5ebec7d5bd14f71427d1e84f3dd0314c0f7b2291e5b200ac8c7c3b925856040516130fe9190614307565b60405180910390a35b5050505050565b6000613118611b50565b9050600073ffffffffffffffffffffffffffffffffffffffff168473ffffffffffffffffffffffffffffffffffffffff160361316e57818160020160008282546131629190614ead565b92505081905550613247565b60008160000160008673ffffffffffffffffffffffffffffffffffffffff1673ffffffffffffffffffffffffffffffffffffffff168152602001908152602001600020549050828110156131fd578481846040517fe450d38c0000000000000000000000000000000000000000000000000000000081526004016131f493929190615131565b60405180910390fd5b8281038260000160008773ffffffffffffffffffffffffffffffffffffffff1673ffffffffffffffffffffffffffffffffffffffff16815260200190815260200160002081905550505b600073ffffffffffffffffffffffffffffffffffffffff168373ffffffffffffffffffffffffffffffffffffffff1603613292578181600201600082825403925050819055506132e2565b818160000160008573ffffffffffffffffffffffffffffffffffffffff1673ffffffffffffffffffffffffffffffffffffffff168152602001908152602001600020600082825401925050819055505b8273ffffffffffffffffffffffffffffffffffffffff168473ffffffffffffffffffffffffffffffffffffffff167fddf252ad1be2c89b69c2b068fc378daa952ba7f163c4a11628f55a4df523b3ef8460405161333f9190614307565b60405180910390a350505050565b60008060008060009054906101000a900473ffffffffffffffffffffffffffffffffffffffff1673ffffffffffffffffffffffffffffffffffffffff166370a08231600460009054906101000a900473ffffffffffffffffffffffffffffffffffffffff166040518263ffffffff1660e01b81526004016133ce9190614e21565b602060405180830381865afa1580156133eb573d6000803e3d6000fd5b505050506040513d601f19601f8201168201806040525081019061340f9190614e51565b90506000600160009054906101000a900473ffffffffffffffffffffffffffffffffffffffff1673ffffffffffffffffffffffffffffffffffffffff166370a08231600460009054906101000a900473ffffffffffffffffffffffffffffffffffffffff166040518263ffffffff1660e01b81526004016134909190614e21565b602060405180830381865afa1580156134ad573d6000803e3d6000fd5b505050506040513d601f19601f820116820180604052508101906134d19190614e51565b90506000600460009054906101000a900473ffffffffffffffffffffffffffffffffffffffff1673ffffffffffffffffffffffffffffffffffffffff166318160ddd6040518163ffffffff1660e01b8152600401602060405180830381865afa158015613542573d6000803e3d6000fd5b505050506040513d601f19601f820116820180604052508101906135669190614e51565b90508083876135759190614f4d565b61357f9190615096565b945080828761358e9190614f4d565b6135989190615096565b9350505050915091565b6000600460009054906101000a900473ffffffffffffffffffffffffffffffffffffffff1673ffffffffffffffffffffffffffffffffffffffff1663f140a35a83600160009054906101000a900473ffffffffffffffffffffffffffffffffffffffff166040518363ffffffff1660e01b81526004016136239291906159bc565b602060405180830381865afa158015613640573d6000803e3d6000fd5b505050506040513d601f19601f820116820180604052508101906136649190614e51565b9050919050565b6000600654905090565b60008060008060008054906101000a900473ffffffffffffffffffffffffffffffffffffffff1673ffffffffffffffffffffffffffffffffffffffff166370a08231306040518263ffffffff1660e01b81526004016136d49190614e21565b602060405180830381865afa1580156136f1573d6000803e3d6000fd5b505050506040513d601f19601f820116820180604052508101906137159190614e51565b90506000600160009054906101000a900473ffffffffffffffffffffffffffffffffffffffff1673ffffffffffffffffffffffffffffffffffffffff166370a08231306040518263ffffffff1660e01b81526004016137749190614e21565b602060405180830381865afa158015613791573d6000803e3d6000fd5b505050506040513d601f19601f820116820180604052508101906137b59190614e51565b90506000806137c2613d85565b915091506000806137d1613e3e565b9150915083866137e19190614ead565b985082856137ef9190614ead565b975080826137fd9190614ead565b9650505050505050909192565b613812613f51565b613848576040517fd7e6bcf800000000000000000000000000000000000000000000000000000000815260040160405180910390fd5b565b60008061385561366b565b9050600061386282613f71565b905060008061386f614038565b91509150808484846138819190614f4d565b61388b9190615096565b6138959190614ead565b81876138a19190614f4d565b6138ab9190615096565b945050505050919050565b600080600167ffffffffffffffff8111156138d4576138d36145ae565b5b60405190808252806020026020018201604052801561390d57816020015b6138fa6140d9565b8152602001906001900390816138f25790505b509050604051806060016040528060008054906101000a900473ffffffffffffffffffffffffffffffffffffffff1673ffffffffffffffffffffffffffffffffffffffff168152602001600160009054906101000a900473ffffffffffffffffffffffffffffffffffffffff1673ffffffffffffffffffffffffffffffffffffffff168152602001600560149054906101000a900460ff161515815250816000815181106139be576139bd615482565b5b60200260200101819052506000600360009054906101000a900473ffffffffffffffffffffffffffffffffffffffff1673ffffffffffffffffffffffffffffffffffffffff1663f41766d885613a1387613f71565b8530426040518663ffffffff1660e01b8152600401613a36959493929190615694565b6000604051808303816000875af1158015613a55573d6000803e3d6000fd5b505050506040513d6000823e3d601f19601f82011682018060405250810190613a7e9190615439565b905080600181518110613a9457613a93615482565b5b602002602001015192505050919050565b6000806000600560149054906101000a900460ff169050600080600360009054906101000a900473ffffffffffffffffffffffffffffffffffffffff1673ffffffffffffffffffffffffffffffffffffffff166398a0fb3c60008054906101000a900473ffffffffffffffffffffffffffffffffffffffff16600160009054906101000a900473ffffffffffffffffffffffffffffffffffffffff16868b8b6040518663ffffffff1660e01b8152600401613b649594939291906159e5565b606060405180830381865afa158015613b81573d6000803e3d6000fd5b505050506040513d601f19601f82011682018060405250810190613ba59190615a38565b509150915060006103e86103e784613bbd9190614f4d565b613bc79190615096565b905060006103e86103e784613bdc9190614f4d565b613be69190615096565b90506000806000600360009054906101000a900473ffffffffffffffffffffffffffffffffffffffff1673ffffffffffffffffffffffffffffffffffffffff16635a47ddc360008054906101000a900473ffffffffffffffffffffffffffffffffffffffff16600160009054906101000a900473ffffffffffffffffffffffffffffffffffffffff168b8b8b8b8b30426040518a63ffffffff1660e01b8152600401613c9a99989796959493929190615a8b565b6060604051808303816000875af1158015613cb9573d6000803e3d6000fd5b505050506040513d601f19601f82011682018060405250810190613cdd9190615a38565b925092509250829950819850600560009054906101000a900473ffffffffffffffffffffffffffffffffffffffff1673ffffffffffffffffffffffffffffffffffffffff1663b6b55f25826040518263ffffffff1660e01b8152600401613d449190614307565b600060405180830381600087803b158015613d5e57600080fd5b505af1158015613d72573d6000803e3d6000fd5b5050505050505050505050509250929050565b6000806000600560009054906101000a900473ffffffffffffffffffffffffffffffffffffffff1673ffffffffffffffffffffffffffffffffffffffff166370a08231306040518263ffffffff1660e01b8152600401613de59190614e21565b602060405180830381865afa158015613e02573d6000803e3d6000fd5b505050506040513d601f19601f82011682018060405250810190613e269190614e51565b9050613e318161334d565b8093508194505050509091565b600080600073ffffffffffffffffffffffffffffffffffffffff16600260009054906101000a900473ffffffffffffffffffffffffffffffffffffffff1673ffffffffffffffffffffffffffffffffffffffff1603613ea4576000915060009050613f4d565b600260009054906101000a900473ffffffffffffffffffffffffffffffffffffffff1673ffffffffffffffffffffffffffffffffffffffff166370a08231306040518263ffffffff1660e01b8152600401613eff9190614e21565b602060405180830381865afa158015613f1c573d6000803e3d6000fd5b505050506040513d601f19601f82011682018060405250810190613f409190614e51565b9150613f4a6122c6565b90505b9091565b6000613f5b6129c7565b60000160089054906101000a900460ff16905090565b6000600460009054906101000a900473ffffffffffffffffffffffffffffffffffffffff1673ffffffffffffffffffffffffffffffffffffffff1663f140a35a8360008054906101000a900473ffffffffffffffffffffffffffffffffffffffff166040518363ffffffff1660e01b8152600401613ff09291906159bc565b602060405180830381865afa15801561400d573d6000803e3d6000fd5b505050506040513d601f19601f820116820180604052508101906140319190614e51565b9050919050565b600080600460009054906101000a900473ffffffffffffffffffffffffffffffffffffffff1673ffffffffffffffffffffffffffffffffffffffff16630902f1ac6040518163ffffffff1660e01b8152600401606060405180830381865afa1580156140a8573d6000803e3d6000fd5b505050506040513d601f19601f820116820180604052508101906140cc9190615a38565b5080925081935050509091565b6040518060600160405280600073ffffffffffffffffffffffffffffffffffffffff168152602001600073ffffffffffffffffffffffffffffffffffffffff1681526020016000151581525090565b600081519050919050565b600082825260208201905092915050565b60005b83811015614162578082015181840152602081019050614147565b60008484015250505050565b6000601f19601f8301169050919050565b600061418a82614128565b6141948185614133565b93506141a4818560208601614144565b6141ad8161416e565b840191505092915050565b600060208201905081810360008301526141d2818461417f565b905092915050565b6000604051905090565b600080fd5b600080fd5b600073ffffffffffffffffffffffffffffffffffffffff82169050919050565b6000614219826141ee565b9050919050565b6142298161420e565b811461423457600080fd5b50565b60008135905061424681614220565b92915050565b6000819050919050565b61425f8161424c565b811461426a57600080fd5b50565b60008135905061427c81614256565b92915050565b60008060408385031215614299576142986141e4565b5b60006142a785828601614237565b92505060206142b88582860161426d565b9150509250929050565b60008115159050919050565b6142d7816142c2565b82525050565b60006020820190506142f260008301846142ce565b92915050565b6143018161424c565b82525050565b600060208201905061431c60008301846142f8565b92915050565b6000819050919050565b600061434761434261433d846141ee565b614322565b6141ee565b9050919050565b60006143598261432c565b9050919050565b600061436b8261434e565b9050919050565b61437b81614360565b82525050565b60006020820190506143966000830184614372565b92915050565b6000806000606084860312156143b5576143b46141e4565b5b60006143c386828701614237565b93505060206143d486828701614237565b92505060406143e58682870161426d565b9150509250925092565b600060208284031215614405576144046141e4565b5b60006144138482850161426d565b91505092915050565b600060ff82169050919050565b6144328161441c565b82525050565b600060208201905061444d6000830184614429565b92915050565b600060208284031215614469576144686141e4565b5b600061447784828501614237565b91505092915050565b614489816142c2565b811461449457600080fd5b50565b6000813590506144a681614480565b92915050565b600080604083850312156144c3576144c26141e4565b5b60006144d185828601614237565b92505060206144e285828601614497565b9150509250929050565b60008060408385031215614503576145026141e4565b5b60006145118582860161426d565b92505060206145228582860161426d565b9150509250929050565b60006145378261434e565b9050919050565b6145478161452c565b82525050565b6000602082019050614562600083018461453e565b92915050565b60006145738261434e565b9050919050565b61458381614568565b82525050565b600060208201905061459e600083018461457a565b92915050565b600080fd5b600080fd5b7f4e487b7100000000000000000000000000000000000000000000000000000000600052604160045260246000fd5b6145e68261416e565b810181811067ffffffffffffffff82111715614605576146046145ae565b5b80604052505050565b60006146186141da565b905061462482826145dd565b919050565b600067ffffffffffffffff821115614644576146436145ae565b5b61464d8261416e565b9050602081019050919050565b82818337600083830152505050565b600061467c61467784614629565b61460e565b905082815260208101848484011115614698576146976145a9565b5b6146a384828561465a565b509392505050565b600082601f8301126146c0576146bf6145a4565b5b81356146d0848260208601614669565b91505092915050565b60006146e48261420e565b9050919050565b6146f4816146d9565b81146146ff57600080fd5b50565b600081359050614711816146eb565b92915050565b600080fd5b600080fd5b600061472c8261420e565b9050919050565b61473c81614721565b811461474757600080fd5b50565b60008135905061475981614733565b92915050565b600061476a8261420e565b9050919050565b61477a8161475f565b811461478557600080fd5b50565b60008135905061479781614771565b92915050565b60006147a88261420e565b9050919050565b6147b88161479d565b81146147c357600080fd5b50565b6000813590506147d5816147af565b92915050565b600067ffffffffffffffff8211156147f6576147f56145ae565b5b602082029050602081019050919050565b600080fd5b60006060828403121561482257614821614717565b5b61482c606061460e565b9050600061483c84828501614237565b600083015250602061485084828501614237565b602083015250604061486484828501614497565b60408301525092915050565b600061488361487e846147db565b61460e565b905080838252602082019050606084028301858111156148a6576148a5614807565b5b835b818110156148cf57806148bb888261480c565b8452602084019350506060810190506148a8565b5050509392505050565b600082601f8301126148ee576148ed6145a4565b5b81356148fe848260208601614870565b91505092915050565b600060c0828403121561491d5761491c614717565b5b61492760c061460e565b905060006149378482850161474a565b600083015250602061494b84828501614788565b602083015250604061495f848285016147c6565b60408301525060606149738482850161426d565b606083015250608061498784828501614497565b60808301525060a082013567ffffffffffffffff8111156149ab576149aa61471c565b5b6149b7848285016148d9565b60a08301525092915050565b60008060008060008060c087890312156149e0576149df6141e4565b5b600087013567ffffffffffffffff8111156149fe576149fd6141e9565b5b614a0a89828a016146ab565b965050602087013567ffffffffffffffff811115614a2b57614a2a6141e9565b5b614a3789828a016146ab565b9550506040614a4889828a01614702565b9450506060614a5989828a01614702565b9350506080614a6a89828a01614702565b92505060a087013567ffffffffffffffff811115614a8b57614a8a6141e9565b5b614a9789828a01614907565b9150509295509295509295565b60008060408385031215614abb57614aba6141e4565b5b6000614ac985828601614497565b9250506020614ada85828601614497565b9150509250929050565b60008060408385031215614afb57614afa6141e4565b5b6000614b0985828601614237565b9250506020614b1a85828601614237565b9150509250929050565b6000614b2f8261434e565b9050919050565b614b3f81614b24565b82525050565b6000602082019050614b5a6000830184614b36565b92915050565b7f4e487b7100000000000000000000000000000000000000000000000000000000600052602260045260246000fd5b60006002820490506001821680614ba757607f821691505b602082108103614bba57614bb9614b60565b5b50919050565b7f4e6f745573657200000000000000000000000000000000000000000000000000600082015250565b6000614bf6600783614133565b9150614c0182614bc0565b602082019050919050565b60006020820190508181036000830152614c2581614be9565b9050919050565b7f5a65726f20616d6f756e74000000000000000000000000000000000000000000600082015250565b6000614c62600b83614133565b9150614c6d82614c2c565b602082019050919050565b60006020820190508181036000830152614c9181614c55565b9050919050565b614ca18161420e565b82525050565b6000604082019050614cbc6000830185614c98565b614cc960208301846142f8565b9392505050565b600081519050614cdf81614480565b92915050565b600060208284031215614cfb57614cfa6141e4565b5b6000614d0984828501614cd0565b91505092915050565b7f5472616e73666572206661696c65640000000000000000000000000000000000600082015250565b6000614d48600f83614133565b9150614d5382614d12565b602082019050919050565b60006020820190508181036000830152614d7781614d3b565b9050919050565b7f6f776e657220616c726561647920736574000000000000000000000000000000600082015250565b6000614db4601183614133565b9150614dbf82614d7e565b602082019050919050565b60006020820190508181036000830152614de381614da7565b9050919050565b6000606082019050614dff6000830186614c98565b614e0c6020830185614c98565b614e1960408301846142f8565b949350505050565b6000602082019050614e366000830184614c98565b92915050565b600081519050614e4b81614256565b92915050565b600060208284031215614e6757614e666141e4565b5b6000614e7584828501614e3c565b91505092915050565b7f4e487b7100000000000000000000000000000000000000000000000000000000600052601160045260246000fd5b6000614eb88261424c565b9150614ec38361424c565b9250828201905080821115614edb57614eda614e7e565b5b92915050565b7f4e4f545f415554484f52495a4544000000000000000000000000000000000000600082015250565b6000614f17600e83614133565b9150614f2282614ee1565b602082019050919050565b60006020820190508181036000830152614f4681614f0a565b9050919050565b6000614f588261424c565b9150614f638361424c565b9250828202614f718161424c565b91508282048414831517614f8857614f87614e7e565b5b5092915050565b7f6d696e696d616c20707269636500000000000000000000000000000000000000600082015250565b6000614fc5600d83614133565b9150614fd082614f8f565b602082019050919050565b60006020820190508181036000830152614ff481614fb8565b9050919050565b7f6d6178696d616c20707269636500000000000000000000000000000000000000600082015250565b6000615031600d83614133565b915061503c82614ffb565b602082019050919050565b6000602082019050818103600083015261506081615024565b9050919050565b7f4e487b7100000000000000000000000000000000000000000000000000000000600052601260045260246000fd5b60006150a18261424c565b91506150ac8361424c565b9250826150bc576150bb615067565b5b828204905092915050565b6000819050919050565b600067ffffffffffffffff82169050919050565b60006151006150fb6150f6846150c7565b614322565b6150d1565b9050919050565b615110816150e5565b82525050565b600060208201905061512b6000830184615107565b92915050565b60006060820190506151466000830186614c98565b61515360208301856142f8565b61516060408301846142f8565b949350505050565b60006151738261424c565b915061517e8361424c565b925082820390508181111561519657615195614e7e565b5b92915050565b600081549050919050565b600082825260208201905092915050565b60008190508160005260206000209050919050565b60008160001c9050919050565b600073ffffffffffffffffffffffffffffffffffffffff82169050919050565b600061520d615208836151cd565b6151da565b9050919050565b61521d8161420e565b82525050565b60008160a01c9050919050565b600060ff82169050919050565b600061525061524b83615223565b615230565b9050919050565b615260816142c2565b82525050565b60608201600080830154905061527b816151fa565b6152886000860182615214565b5060018301549050615299816151fa565b6152a66020860182615214565b506152b08161523d565b6152bd6040860182615257565b5050505050565b60006152d08383615266565b60608301905092915050565b6000600282019050919050565b60006152f48261519c565b6152fe81856151a7565b9350615309836151b8565b8060005b83811015615339578161532088826152c4565b975061532b836152dc565b92505060018101905061530d565b5085935050505092915050565b600060408201905061535b60008301856142f8565b818103602083015261536d81846152e9565b90509392505050565b600067ffffffffffffffff821115615391576153906145ae565b5b602082029050602081019050919050565b60006153b56153b084615376565b61460e565b905080838252602082019050602084028301858111156153d8576153d7614807565b5b835b8181101561540157806153ed8882614e3c565b8452602084019350506020810190506153da565b5050509392505050565b600082601f8301126154205761541f6145a4565b5b81516154308482602086016153a2565b91505092915050565b60006020828403121561544f5761544e6141e4565b5b600082015167ffffffffffffffff81111561546d5761546c6141e9565b5b6154798482850161540b565b91505092915050565b7f4e487b7100000000000000000000000000000000000000000000000000000000600052603260045260246000fd5b60006080820190506154c66000830187614c98565b6154d36020830186614c98565b6154e060408301856142ce565b6154ed60608301846142f8565b95945050505050565b6000806040838503121561550d5761550c6141e4565b5b600061551b85828601614e3c565b925050602061552c85828601614e3c565b9150509250929050565b60006101008201905061554c600083018b614c98565b615559602083018a614c98565b61556660408301896142ce565b61557360608301886142f8565b61558060808301876142f8565b61558d60a08301866142f8565b61559a60c0830185614c98565b6155a760e08301846142f8565b9998505050505050505050565b600081519050919050565b6000819050602082019050919050565b6060820160008201516155e56000850182615214565b5060208201516155f86020850182615214565b50604082015161560b6040850182615257565b50505050565b600061561d83836155cf565b60608301905092915050565b6000602082019050919050565b6000615641826155b4565b61564b81856151a7565b9350615656836155bf565b8060005b8381101561568757815161566e8882615611565b975061567983615629565b92505060018101905061565a565b5085935050505092915050565b600060a0820190506156a960008301886142f8565b6156b660208301876142f8565b81810360408301526156c88186615636565b90506156d76060830185614c98565b6156e460808301846142f8565b9695505050505050565b60008190508160005260206000209050919050565b60006020601f8301049050919050565b600082821b905092915050565b6000600883026157507fffffffffffffffffffffffffffffffffffffffffffffffffffffffffffffffff82615713565b61575a8683615713565b95508019841693508086168417925050509392505050565b600061578d6157886157838461424c565b614322565b61424c565b9050919050565b6000819050919050565b6157a783615772565b6157bb6157b382615794565b848454615720565b825550505050565b600090565b6157d06157c3565b6157db81848461579e565b505050565b5b818110156157ff576157f46000826157c8565b6001810190506157e1565b5050565b601f82111561584457615815816156ee565b61581e84615703565b8101602085101561582d578190505b61584161583985615703565b8301826157e0565b50505b505050565b600082821c905092915050565b600061586760001984600802615849565b1980831691505092915050565b60006158808383615856565b9150826002028217905092915050565b61589982614128565b67ffffffffffffffff8111156158b2576158b16145ae565b5b6158bc8254614b8f565b6158c7828285615803565b600060209050601f8311600181146158fa57600084156158e8578287015190505b6158f28582615874565b86555061595a565b601f198416615908866156ee565b60005b828110156159305784890151825560018201915060208501945060208101905061590b565b8683101561594d5784890151615949601f891682615856565b8355505b6001600288020188555050505b505050505050565b600060a08201905061597760008301886142f8565b61598460208301876142f8565b818103604083015261599681866152e9565b90506159a56060830185614c98565b6159b260808301846142f8565b9695505050505050565b60006040820190506159d160008301856142f8565b6159de6020830184614c98565b9392505050565b600060a0820190506159fa6000830188614c98565b615a076020830187614c98565b615a1460408301866142ce565b615a2160608301856142f8565b615a2e60808301846142f8565b9695505050505050565b600080600060608486031215615a5157615a506141e4565b5b6000615a5f86828701614e3c565b9350506020615a7086828701614e3c565b9250506040615a8186828701614e3c565b9150509250925092565b600061012082019050615aa1600083018c614c98565b615aae602083018b614c98565b615abb604083018a6142ce565b615ac860608301896142f8565b615ad560808301886142f8565b615ae260a08301876142f8565b615aef60c08301866142f8565b615afc60e0830185614c98565b615b0a6101008301846142f8565b9a995050505050505050505056fea26469706673582212209ab14e5d8d6375b794f1d0a936aa1e093f457d7fde4075d67fa2dcebd8ceca4464736f6c63430008180033",
  "devdoc": {
    "errors": {
      "ERC20InsufficientAllowance(address,uint256,uint256)": [
        {
          "details": "Indicates a failure with the `spender`s `allowance`. Used in transfers.",
          "params": {
            "allowance": "Amount of tokens a `spender` is allowed to operate with.",
            "needed": "Minimum amount required to perform a transfer.",
            "spender": "Address that may be allowed to operate on tokens without being their owner."
          }
        }
      ],
      "ERC20InsufficientBalance(address,uint256,uint256)": [
        {
          "details": "Indicates an error related to the current `balance` of a `sender`. Used in transfers.",
          "params": {
            "balance": "Current balance for the interacting account.",
            "needed": "Minimum amount required to perform a transfer.",
            "sender": "Address whose tokens are being transferred."
          }
        }
      ],
      "ERC20InvalidApprover(address)": [
        {
          "details": "Indicates a failure with the `approver` of a token to be approved. Used in approvals.",
          "params": {
            "approver": "Address initiating an approval operation."
          }
        }
      ],
      "ERC20InvalidReceiver(address)": [
        {
          "details": "Indicates a failure with the token `receiver`. Used in transfers.",
          "params": {
            "receiver": "Address to which tokens are being transferred."
          }
        }
      ],
      "ERC20InvalidSender(address)": [
        {
          "details": "Indicates a failure with the token `sender`. Used in transfers.",
          "params": {
            "sender": "Address whose tokens are being transferred."
          }
        }
      ],
      "ERC20InvalidSpender(address)": [
        {
          "details": "Indicates a failure with the `spender` to be approved. Used in approvals.",
          "params": {
            "spender": "Address that may be allowed to operate on tokens without being their owner."
          }
        }
      ],
      "InvalidInitialization()": [
        {
          "details": "The contract is already initialized."
        }
      ],
      "NotInitializing()": [
        {
          "details": "The contract is not initializing."
        }
      ]
    },
    "events": {
      "Approval(address,address,uint256)": {
        "details": "Emitted when the allowance of a `spender` for an `owner` is set by a call to {approve}. `value` is the new allowance."
      },
      "Initialized(uint64)": {
        "details": "Triggered when the contract has been initialized or reinitialized."
      },
      "Transfer(address,address,uint256)": {
        "details": "Emitted when `value` tokens are moved from one account (`from`) to another (`to`). Note that `value` may be zero."
      }
    },
    "kind": "dev",
    "methods": {
      "alarm(uint256,uint256)": {
        "params": {
          "maxOut": "Maximal price for the secondary -> primary conversion (e.g 1000100000000)",
          "minOut": "Minimal price for the secondary -> primary conversion (e.g 1010000000000)"
        }
      },
      "allowance(address,address)": {
        "details": "See {IERC20-allowance}."
      },
      "approve(address,uint256)": {
        "details": "See {IERC20-approve}. NOTE: If `value` is the maximum `uint256`, the allowance is not updated on `transferFrom`. This is semantically equivalent to an infinite approval. Requirements: - `spender` cannot be the zero address."
      },
      "balanceOf(address)": {
        "details": "See {IERC20-balanceOf}."
      },
      "decimals()": {
        "details": "Returns the number of decimals used to get its user representation. For example, if `decimals` equals `2`, a balance of `505` tokens should be displayed to a user as `5.05` (`505 / 10 ** 2`). Tokens usually opt for a value of 18, imitating the relationship between Ether and Wei. This is the default value returned by this function, unless it's overridden. NOTE: This information is only used for _display_ purposes: it in no way affects any of the arithmetic of the contract, including {IERC20-balanceOf} and {IERC20-transfer}."
      },
      "deposit(uint256)": {
        "details": "Deposits primary token and mints this token"
      },
      "name()": {
        "details": "Returns the name of the token."
      },
      "reinvest(bool,bool)": {
        "details": "it does it easy way - just exchanges everything to primary first and then runs part of deposit function"
      },
      "symbol()": {
        "details": "Returns the symbol of the token, usually a shorter version of the name."
      },
      "totalSupply()": {
        "details": "See {IERC20-totalSupply}."
      },
      "transfer(address,uint256)": {
        "details": "See {IERC20-transfer}. Requirements: - `to` cannot be the zero address. - the caller must have a balance of at least `value`."
      },
      "transferFrom(address,address,uint256)": {
        "details": "See {IERC20-transferFrom}. Emits an {Approval} event indicating the updated allowance. This is not required by the EIP. See the note at the beginning of {ERC20}. NOTE: Does not update the allowance if the current allowance is the maximum `uint256`. Requirements: - `from` and `to` cannot be the zero address. - `from` must have a balance of at least `value`. - the caller must have allowance for ``from``'s tokens of at least `value`."
      },
      "withdraw(uint256)": {
        "details": "Burns this token and withdraws primary investment token"
      }
    },
    "version": 1
  },
  "userdoc": {
    "kind": "user",
    "methods": {
      "alarm(uint256,uint256)": {
        "notice": "Invoked on depeg of the stablecoin"
      },
      "calculateValue(address)": {
        "notice": "calculates value for the wallet denominated in primary tokens"
      },
      "depositPooledLiquidity(uint256)": {
        "notice": "Deposit pooled liquidity (pair)"
      },
      "getRewardsValue()": {
        "notice": "Calculate total value of the rewards accumulated"
      },
      "reinvest(bool,bool)": {
        "notice": "Reinvests everything's owned into DEX (including rewards)"
      }
    },
    "version": 1
  },
  "storageLayout": {
    "storage": [
      {
        "astId": 1982,
        "contract": "contracts/v2/TokanDexInvestment.sol:TokanDexInvestment",
        "label": "primary",
        "offset": 0,
        "slot": "0",
        "type": "t_contract(IERC20)1131"
      },
      {
        "astId": 1346,
        "contract": "contracts/v2/TokanDexInvestment.sol:TokanDexInvestment",
        "label": "secondary",
        "offset": 0,
        "slot": "1",
        "type": "t_contract(IERC20)1131"
      },
      {
        "astId": 1349,
        "contract": "contracts/v2/TokanDexInvestment.sol:TokanDexInvestment",
        "label": "reward",
        "offset": 0,
        "slot": "2",
        "type": "t_contract(IERC20)1131"
      },
      {
        "astId": 2251,
        "contract": "contracts/v2/TokanDexInvestment.sol:TokanDexInvestment",
        "label": "router",
        "offset": 0,
        "slot": "3",
        "type": "t_contract(TokanRouter)1336"
      },
      {
        "astId": 2254,
        "contract": "contracts/v2/TokanDexInvestment.sol:TokanDexInvestment",
        "label": "pair",
        "offset": 0,
        "slot": "4",
        "type": "t_contract(TokanPair)1212"
      },
      {
        "astId": 2257,
        "contract": "contracts/v2/TokanDexInvestment.sol:TokanDexInvestment",
        "label": "gauge",
        "offset": 0,
        "slot": "5",
        "type": "t_contract(TokanGauge)1188"
      },
      {
        "astId": 2259,
        "contract": "contracts/v2/TokanDexInvestment.sol:TokanDexInvestment",
        "label": "stable",
        "offset": 20,
        "slot": "5",
        "type": "t_bool"
      },
      {
        "astId": 2261,
        "contract": "contracts/v2/TokanDexInvestment.sol:TokanDexInvestment",
        "label": "decimalsA",
        "offset": 0,
        "slot": "6",
        "type": "t_uint256"
      },
      {
        "astId": 2265,
        "contract": "contracts/v2/TokanDexInvestment.sol:TokanDexInvestment",
        "label": "rewardExchangeRoute",
        "offset": 0,
        "slot": "7",
        "type": "t_array(t_struct(Route)1221_storage)dyn_storage"
      },
      {
        "astId": 2269,
        "contract": "contracts/v2/TokanDexInvestment.sol:TokanDexInvestment",
        "label": "users",
        "offset": 0,
        "slot": "8",
        "type": "t_mapping(t_address,t_bool)"
      }
    ],
    "types": {
      "t_address": {
        "encoding": "inplace",
        "label": "address",
        "numberOfBytes": "20"
      },
      "t_array(t_struct(Route)1221_storage)dyn_storage": {
        "base": "t_struct(Route)1221_storage",
        "encoding": "dynamic_array",
        "label": "struct TokanRouter.Route[]",
        "numberOfBytes": "32"
      },
      "t_bool": {
        "encoding": "inplace",
        "label": "bool",
        "numberOfBytes": "1"
      },
      "t_contract(IERC20)1131": {
        "encoding": "inplace",
        "label": "contract IERC20",
        "numberOfBytes": "20"
      },
      "t_contract(TokanGauge)1188": {
        "encoding": "inplace",
        "label": "contract TokanGauge",
        "numberOfBytes": "20"
      },
      "t_contract(TokanPair)1212": {
        "encoding": "inplace",
        "label": "contract TokanPair",
        "numberOfBytes": "20"
      },
      "t_contract(TokanRouter)1336": {
        "encoding": "inplace",
        "label": "contract TokanRouter",
        "numberOfBytes": "20"
      },
      "t_mapping(t_address,t_bool)": {
        "encoding": "mapping",
        "key": "t_address",
        "label": "mapping(address => bool)",
        "numberOfBytes": "32",
        "value": "t_bool"
      },
      "t_struct(Route)1221_storage": {
        "encoding": "inplace",
        "label": "struct TokanRouter.Route",
        "members": [
          {
            "astId": 1216,
            "contract": "contracts/v2/TokanDexInvestment.sol:TokanDexInvestment",
            "label": "from",
            "offset": 0,
            "slot": "0",
            "type": "t_address"
          },
          {
            "astId": 1218,
            "contract": "contracts/v2/TokanDexInvestment.sol:TokanDexInvestment",
            "label": "to",
            "offset": 0,
            "slot": "1",
            "type": "t_address"
          },
          {
            "astId": 1220,
            "contract": "contracts/v2/TokanDexInvestment.sol:TokanDexInvestment",
            "label": "stable",
            "offset": 20,
            "slot": "1",
            "type": "t_bool"
          }
        ],
        "numberOfBytes": "64"
      },
      "t_uint256": {
        "encoding": "inplace",
        "label": "uint256",
        "numberOfBytes": "32"
      }
    }
  }
}