{
  "address": "0x06409bD815c1AC345Dd70Bf70aCcfaF706806e8a",
  "abi": [
    {
      "inputs": [
        {
          "internalType": "address",
          "name": "spender",
          "type": "address"
        },
        {
          "internalType": "uint256",
          "name": "allowance",
          "type": "uint256"
        },
        {
          "internalType": "uint256",
          "name": "needed",
          "type": "uint256"
        }
      ],
      "name": "ERC20InsufficientAllowance",
      "type": "error"
    },
    {
      "inputs": [
        {
          "internalType": "address",
          "name": "sender",
          "type": "address"
        },
        {
          "internalType": "uint256",
          "name": "balance",
          "type": "uint256"
        },
        {
          "internalType": "uint256",
          "name": "needed",
          "type": "uint256"
        }
      ],
      "name": "ERC20InsufficientBalance",
      "type": "error"
    },
    {
      "inputs": [
        {
          "internalType": "address",
          "name": "approver",
          "type": "address"
        }
      ],
      "name": "ERC20InvalidApprover",
      "type": "error"
    },
    {
      "inputs": [
        {
          "internalType": "address",
          "name": "receiver",
          "type": "address"
        }
      ],
      "name": "ERC20InvalidReceiver",
      "type": "error"
    },
    {
      "inputs": [
        {
          "internalType": "address",
          "name": "sender",
          "type": "address"
        }
      ],
      "name": "ERC20InvalidSender",
      "type": "error"
    },
    {
      "inputs": [
        {
          "internalType": "address",
          "name": "spender",
          "type": "address"
        }
      ],
      "name": "ERC20InvalidSpender",
      "type": "error"
    },
    {
      "inputs": [],
      "name": "InvalidInitialization",
      "type": "error"
    },
    {
      "inputs": [],
      "name": "NotInitializing",
      "type": "error"
    },
    {
      "anonymous": false,
      "inputs": [
        {
          "indexed": true,
          "internalType": "address",
          "name": "owner",
          "type": "address"
        },
        {
          "indexed": true,
          "internalType": "address",
          "name": "spender",
          "type": "address"
        },
        {
          "indexed": false,
          "internalType": "uint256",
          "name": "value",
          "type": "uint256"
        }
      ],
      "name": "Approval",
      "type": "event"
    },
    {
      "anonymous": false,
      "inputs": [
        {
          "indexed": false,
          "internalType": "address",
          "name": "account",
          "type": "address"
        },
        {
          "indexed": false,
          "internalType": "uint256",
          "name": "deposited",
          "type": "uint256"
        },
        {
          "indexed": false,
          "internalType": "uint256",
          "name": "minted",
          "type": "uint256"
        }
      ],
      "name": "Deposit",
      "type": "event"
    },
    {
      "anonymous": false,
      "inputs": [
        {
          "indexed": false,
          "internalType": "uint64",
          "name": "version",
          "type": "uint64"
        }
      ],
      "name": "Initialized",
      "type": "event"
    },
    {
      "anonymous": false,
      "inputs": [
        {
          "indexed": true,
          "internalType": "address",
          "name": "previousOwner",
          "type": "address"
        },
        {
          "indexed": true,
          "internalType": "address",
          "name": "newOwner",
          "type": "address"
        }
      ],
      "name": "OwnershipTransferred",
      "type": "event"
    },
    {
      "anonymous": false,
      "inputs": [
        {
          "indexed": false,
          "internalType": "uint256",
          "name": "value",
          "type": "uint256"
        },
        {
          "indexed": false,
          "internalType": "uint256",
          "name": "totalSupply",
          "type": "uint256"
        }
      ],
      "name": "Total",
      "type": "event"
    },
    {
      "anonymous": false,
      "inputs": [
        {
          "indexed": true,
          "internalType": "address",
          "name": "from",
          "type": "address"
        },
        {
          "indexed": true,
          "internalType": "address",
          "name": "to",
          "type": "address"
        },
        {
          "indexed": false,
          "internalType": "uint256",
          "name": "value",
          "type": "uint256"
        }
      ],
      "name": "Transfer",
      "type": "event"
    },
    {
      "anonymous": false,
      "inputs": [
        {
          "indexed": false,
          "internalType": "address",
          "name": "account",
          "type": "address"
        },
        {
          "indexed": false,
          "internalType": "uint256",
          "name": "withdrawn",
          "type": "uint256"
        },
        {
          "indexed": false,
          "internalType": "uint256",
          "name": "burned",
          "type": "uint256"
        }
      ],
      "name": "Withdraw",
      "type": "event"
    },
    {
      "inputs": [
        {
          "internalType": "string",
          "name": "name_",
          "type": "string"
        },
        {
          "internalType": "string",
          "name": "symbol_",
          "type": "string"
        },
        {
          "internalType": "contract IERC20",
          "name": "_primary",
          "type": "address"
        },
        {
          "internalType": "contract IERC20",
          "name": "_secondary",
          "type": "address"
        },
        {
          "internalType": "contract IERC20",
          "name": "_reward",
          "type": "address"
        },
        {
          "components": [
            {
              "internalType": "contract TokanRouter",
              "name": "router",
              "type": "address"
            },
            {
              "internalType": "contract TokanPair",
              "name": "pair",
              "type": "address"
            },
            {
              "internalType": "contract TokanGauge",
              "name": "gauge",
              "type": "address"
            },
            {
              "internalType": "uint256",
              "name": "decimalsA",
              "type": "uint256"
            },
            {
              "internalType": "bool",
              "name": "stable",
              "type": "bool"
            },
            {
              "components": [
                {
                  "internalType": "address",
                  "name": "from",
                  "type": "address"
                },
                {
                  "internalType": "address",
                  "name": "to",
                  "type": "address"
                },
                {
                  "internalType": "bool",
                  "name": "stable",
                  "type": "bool"
                }
              ],
              "internalType": "struct TokanRouter.Route[]",
              "name": "rewardExchangeRoute",
              "type": "tuple[]"
            }
          ],
          "internalType": "struct TokanDexInvestment.TokanDexInvestmentConfig",
          "name": "config",
          "type": "tuple"
        }
      ],
      "name": "__TokanDexInvestment_init",
      "outputs": [],
      "stateMutability": "nonpayable",
      "type": "function"
    },
    {
      "inputs": [
        {
          "internalType": "uint256",
          "name": "minOut",
          "type": "uint256"
        },
        {
          "internalType": "uint256",
          "name": "maxOut",
          "type": "uint256"
        }
      ],
      "name": "alarm",
      "outputs": [
        {
          "internalType": "uint256",
          "name": "exchanged",
          "type": "uint256"
        }
      ],
      "stateMutability": "nonpayable",
      "type": "function"
    },
    {
      "inputs": [
        {
          "internalType": "address",
          "name": "owner",
          "type": "address"
        },
        {
          "internalType": "address",
          "name": "spender",
          "type": "address"
        }
      ],
      "name": "allowance",
      "outputs": [
        {
          "internalType": "uint256",
          "name": "",
          "type": "uint256"
        }
      ],
      "stateMutability": "view",
      "type": "function"
    },
    {
      "inputs": [
        {
          "internalType": "address",
          "name": "spender",
          "type": "address"
        },
        {
          "internalType": "uint256",
          "name": "value",
          "type": "uint256"
        }
      ],
      "name": "approve",
      "outputs": [
        {
          "internalType": "bool",
          "name": "",
          "type": "bool"
        }
      ],
      "stateMutability": "nonpayable",
      "type": "function"
    },
    {
      "inputs": [],
      "name": "approveAll",
      "outputs": [],
      "stateMutability": "nonpayable",
      "type": "function"
    },
    {
      "inputs": [
        {
          "internalType": "address",
          "name": "account",
          "type": "address"
        }
      ],
      "name": "balanceOf",
      "outputs": [
        {
          "internalType": "uint256",
          "name": "",
          "type": "uint256"
        }
      ],
      "stateMutability": "view",
      "type": "function"
    },
    {
      "inputs": [
        {
          "internalType": "uint256",
          "name": "_balance",
          "type": "uint256"
        }
      ],
      "name": "calculateValue",
      "outputs": [
        {
          "internalType": "uint256",
          "name": "value",
          "type": "uint256"
        }
      ],
      "stateMutability": "view",
      "type": "function"
    },
    {
      "inputs": [
        {
          "internalType": "address",
          "name": "wallet",
          "type": "address"
        }
      ],
      "name": "calculateValue",
      "outputs": [
        {
          "internalType": "uint256",
          "name": "value",
          "type": "uint256"
        }
      ],
      "stateMutability": "view",
      "type": "function"
    },
    {
      "inputs": [],
      "name": "claimOwner",
      "outputs": [],
      "stateMutability": "nonpayable",
      "type": "function"
    },
    {
      "inputs": [],
      "name": "decimals",
      "outputs": [
        {
          "internalType": "uint8",
          "name": "",
          "type": "uint8"
        }
      ],
      "stateMutability": "view",
      "type": "function"
    },
    {
      "inputs": [
        {
          "internalType": "uint256",
          "name": "amount",
          "type": "uint256"
        }
      ],
      "name": "deposit",
      "outputs": [
        {
          "internalType": "uint256",
          "name": "minted",
          "type": "uint256"
        }
      ],
      "stateMutability": "nonpayable",
      "type": "function"
    },
    {
      "inputs": [
        {
          "internalType": "uint256",
          "name": "liquidity",
          "type": "uint256"
        }
      ],
      "name": "depositPooledLiquidity",
      "outputs": [
        {
          "internalType": "uint256",
          "name": "minted",
          "type": "uint256"
        }
      ],
      "stateMutability": "nonpayable",
      "type": "function"
    },
    {
      "inputs": [],
      "name": "gauge",
      "outputs": [
        {
          "internalType": "contract TokanGauge",
          "name": "",
          "type": "address"
        }
      ],
      "stateMutability": "view",
      "type": "function"
    },
    {
      "inputs": [],
      "name": "getRewardsValue",
      "outputs": [
        {
          "internalType": "uint256",
          "name": "",
          "type": "uint256"
        }
      ],
      "stateMutability": "view",
      "type": "function"
    },
    {
      "inputs": [],
      "name": "name",
      "outputs": [
        {
          "internalType": "string",
          "name": "",
          "type": "string"
        }
      ],
      "stateMutability": "view",
      "type": "function"
    },
    {
      "inputs": [],
      "name": "pair",
      "outputs": [
        {
          "internalType": "contract TokanPair",
          "name": "",
          "type": "address"
        }
      ],
      "stateMutability": "view",
      "type": "function"
    },
    {
      "inputs": [],
      "name": "primary",
      "outputs": [
        {
          "internalType": "contract IERC20",
          "name": "",
          "type": "address"
        }
      ],
      "stateMutability": "view",
      "type": "function"
    },
    {
      "inputs": [
        {
          "internalType": "bool",
          "name": "reinvestSecondary",
          "type": "bool"
        },
        {
          "internalType": "bool",
          "name": "reinvestRewards",
          "type": "bool"
        }
      ],
      "name": "reinvest",
      "outputs": [],
      "stateMutability": "nonpayable",
      "type": "function"
    },
    {
      "inputs": [],
      "name": "reward",
      "outputs": [
        {
          "internalType": "contract IERC20",
          "name": "",
          "type": "address"
        }
      ],
      "stateMutability": "view",
      "type": "function"
    },
    {
      "inputs": [],
      "name": "router",
      "outputs": [
        {
          "internalType": "contract TokanRouter",
          "name": "",
          "type": "address"
        }
      ],
      "stateMutability": "view",
      "type": "function"
    },
    {
      "inputs": [],
      "name": "secondary",
      "outputs": [
        {
          "internalType": "contract IERC20",
          "name": "",
          "type": "address"
        }
      ],
      "stateMutability": "view",
      "type": "function"
    },
    {
      "inputs": [
        {
          "internalType": "address",
          "name": "account",
          "type": "address"
        },
        {
          "internalType": "bool",
          "name": "_user",
          "type": "bool"
        }
      ],
      "name": "setUser",
      "outputs": [],
      "stateMutability": "nonpayable",
      "type": "function"
    },
    {
      "inputs": [],
      "name": "symbol",
      "outputs": [
        {
          "internalType": "string",
          "name": "",
          "type": "string"
        }
      ],
      "stateMutability": "view",
      "type": "function"
    },
    {
      "inputs": [],
      "name": "totalSupply",
      "outputs": [
        {
          "internalType": "uint256",
          "name": "",
          "type": "uint256"
        }
      ],
      "stateMutability": "view",
      "type": "function"
    },
    {
      "inputs": [
        {
          "internalType": "address",
          "name": "to",
          "type": "address"
        },
        {
          "internalType": "uint256",
          "name": "value",
          "type": "uint256"
        }
      ],
      "name": "transfer",
      "outputs": [
        {
          "internalType": "bool",
          "name": "",
          "type": "bool"
        }
      ],
      "stateMutability": "nonpayable",
      "type": "function"
    },
    {
      "inputs": [
        {
          "internalType": "address",
          "name": "from",
          "type": "address"
        },
        {
          "internalType": "address",
          "name": "to",
          "type": "address"
        },
        {
          "internalType": "uint256",
          "name": "value",
          "type": "uint256"
        }
      ],
      "name": "transferFrom",
      "outputs": [
        {
          "internalType": "bool",
          "name": "",
          "type": "bool"
        }
      ],
      "stateMutability": "nonpayable",
      "type": "function"
    },
    {
      "inputs": [
        {
          "internalType": "uint256",
          "name": "amount",
          "type": "uint256"
        }
      ],
      "name": "withdraw",
      "outputs": [
        {
          "internalType": "uint256",
          "name": "withdrawn",
          "type": "uint256"
        }
      ],
      "stateMutability": "nonpayable",
      "type": "function"
    }
  ],
  "transactionHash": "0xfd579fe62be7deec25ed64bd7eacf005d75649b663326ce753556628836c9268",
  "args": [],
  "numDeployments": 15,
  "solcInputHash": "5b1ae24077617f41315504b998fd9481",
  "bytecode": "0x608060405234801561001057600080fd5b50615c7980620000216000396000f3fe608060405234801561001057600080fd5b50600436106101a95760003560e01c80637b634b01116100f9578063af79b2a611610097578063b7ae7e3911610071578063b7ae7e39146104e8578063c6dbdf6114610504578063dd62ed3e14610522578063f887ea4014610552576101a9565b8063af79b2a61461046c578063b4d8b8c81461049c578063b6b55f25146104b8576101a9565b80639d3c8cc4116100d35780639d3c8cc4146103e2578063a6f19c8414610400578063a8aa1b311461041e578063a9059cbb1461043c576101a9565b80637b634b011461036457806391c75a2e1461039457806395d89b41146103c4576101a9565b8063313ce56711610166578063432075461161014057806343207546146102ca57806361a84ef0146102fa57806370a08231146103185780637a57a98414610348576101a9565b8063313ce56714610298578063380d0c08146102b65780633bd1adec146102c0576101a9565b806306fdde03146101ae578063095ea7b3146101cc57806318160ddd146101fc578063228cb7331461021a57806323b872dd146102385780632e1a7d4d14610268575b600080fd5b6101b6610570565b6040516101c391906142ba565b60405180910390f35b6101e660048036038101906101e19190614384565b610611565b6040516101f391906143df565b60405180910390f35b610204610634565b6040516102119190614409565b60405180910390f35b61022261064c565b60405161022f9190614483565b60405180910390f35b610252600480360381019061024d919061449e565b610672565b60405161025f91906143df565b60405180910390f35b610282600480360381019061027d91906144f1565b6106a1565b60405161028f9190614409565b60405180910390f35b6102a0610880565b6040516102ad919061453a565b60405180910390f35b6102be610889565b005b6102c8610cf8565b005b6102e460048036038101906102df91906144f1565b610d80565b6040516102f19190614409565b60405180910390f35b610302610f35565b60405161030f9190614409565b60405180910390f35b610332600480360381019061032d9190614555565b610ffd565b60405161033f9190614409565b60405180910390f35b610362600480360381019061035d91906145ae565b611054565b005b61037e600480360381019061037991906145ee565b61112b565b60405161038b9190614409565b60405180910390f35b6103ae60048036038101906103a991906144f1565b6112d5565b6040516103bb9190614409565b60405180910390f35b6103cc61130e565b6040516103d991906142ba565b60405180910390f35b6103ea6113af565b6040516103f79190614483565b60405180910390f35b6104086113d5565b604051610415919061464f565b60405180910390f35b6104266113fb565b604051610433919061468b565b60405180910390f35b61045660048036038101906104519190614384565b611421565b60405161046391906143df565b60405180910390f35b61048660048036038101906104819190614555565b611444565b6040516104939190614409565b60405180910390f35b6104b660048036038101906104b19190614ac5565b61148b565b005b6104d260048036038101906104cd91906144f1565b61164c565b6040516104df9190614409565b60405180910390f35b61050260048036038101906104fd9190614ba6565b611826565b005b61050c611b33565b6040516105199190614483565b60405180910390f35b61053c60048036038101906105379190614be6565b611b57565b6040516105499190614409565b60405180910390f35b61055a611bec565b6040516105679190614c47565b60405180910390f35b6060600061057c611c12565b905080600301805461058d90614c91565b80601f01602080910402602001604051908101604052809291908181526020018280546105b990614c91565b80156106065780601f106105db57610100808354040283529160200191610606565b820191906000526020600020905b8154815290600101906020018083116105e957829003601f168201915b505050505091505090565b60008061061c611c3a565b9050610629818585611c42565b600191505092915050565b60008061063f611c12565b9050806002015491505090565b600260009054906101000a900473ffffffffffffffffffffffffffffffffffffffff1681565b60008061067d611c3a565b905061068a858285611c54565b610695858585611ce8565b60019150509392505050565b60006106ab611ddc565b6106ea576040517f08c379a00000000000000000000000000000000000000000000000000000000081526004016106e190614d0e565b60405180910390fd5b6000821161072d576040517f08c379a000000000000000000000000000000000000000000000000000000000815260040161072490614d7a565b60405180910390fd5b6000610737610634565b90506000610743611c3a565b905061074f8185611e37565b600061075b8584611eb9565b905060008054906101000a900473ffffffffffffffffffffffffffffffffffffffff1673ffffffffffffffffffffffffffffffffffffffff1663a9059cbb83836040518363ffffffff1660e01b81526004016107b8929190614da9565b6020604051808303816000875af11580156107d7573d6000803e3d6000fd5b505050506040513d601f19601f820116820180604052508101906107fb9190614de7565b61083a576040517f08c379a000000000000000000000000000000000000000000000000000000000815260040161083190614e60565b60405180910390fd5b7ff279e6a1f5e320cca91135676d9cb6e44ca8a08c0b88342bcdb1144f6511b56882828760405161086d93929190614e80565b60405180910390a1809350505050919050565b60006012905090565b60008054906101000a900473ffffffffffffffffffffffffffffffffffffffff1673ffffffffffffffffffffffffffffffffffffffff1663095ea7b3600360009054906101000a900473ffffffffffffffffffffffffffffffffffffffff167fffffffffffffffffffffffffffffffffffffffffffffffffffffffffffffffff6040518363ffffffff1660e01b8152600401610926929190614da9565b6020604051808303816000875af1158015610945573d6000803e3d6000fd5b505050506040513d601f19601f820116820180604052508101906109699190614de7565b50600160009054906101000a900473ffffffffffffffffffffffffffffffffffffffff1673ffffffffffffffffffffffffffffffffffffffff1663095ea7b3600360009054906101000a900473ffffffffffffffffffffffffffffffffffffffff167fffffffffffffffffffffffffffffffffffffffffffffffffffffffffffffffff6040518363ffffffff1660e01b8152600401610a09929190614da9565b6020604051808303816000875af1158015610a28573d6000803e3d6000fd5b505050506040513d601f19601f82011682018060405250810190610a4c9190614de7565b50600460009054906101000a900473ffffffffffffffffffffffffffffffffffffffff1673ffffffffffffffffffffffffffffffffffffffff1663095ea7b3600560009054906101000a900473ffffffffffffffffffffffffffffffffffffffff167fffffffffffffffffffffffffffffffffffffffffffffffffffffffffffffffff6040518363ffffffff1660e01b8152600401610aec929190614da9565b6020604051808303816000875af1158015610b0b573d6000803e3d6000fd5b505050506040513d601f19601f82011682018060405250810190610b2f9190614de7565b50600460009054906101000a900473ffffffffffffffffffffffffffffffffffffffff1673ffffffffffffffffffffffffffffffffffffffff1663095ea7b3600360009054906101000a900473ffffffffffffffffffffffffffffffffffffffff167fffffffffffffffffffffffffffffffffffffffffffffffffffffffffffffffff6040518363ffffffff1660e01b8152600401610bcf929190614da9565b6020604051808303816000875af1158015610bee573d6000803e3d6000fd5b505050506040513d601f19601f82011682018060405250810190610c129190614de7565b50600260009054906101000a900473ffffffffffffffffffffffffffffffffffffffff1673ffffffffffffffffffffffffffffffffffffffff1663095ea7b3600360009054906101000a900473ffffffffffffffffffffffffffffffffffffffff167fffffffffffffffffffffffffffffffffffffffffffffffffffffffffffffffff6040518363ffffffff1660e01b8152600401610cb2929190614da9565b6020604051808303816000875af1158015610cd1573d6000803e3d6000fd5b505050506040513d601f19601f82011682018060405250810190610cf59190614de7565b50565b600073ffffffffffffffffffffffffffffffffffffffff16610d186121a0565b73ffffffffffffffffffffffffffffffffffffffff1614610d6e576040517f08c379a0000000000000000000000000000000000000000000000000000000008152600401610d6590614f03565b60405180910390fd5b610d7e610d79611c3a565b6121c9565b565b6000610d8a611ddc565b610dc9576040517f08c379a0000000000000000000000000000000000000000000000000000000008152600401610dc090614d0e565b60405180910390fd5b600460009054906101000a900473ffffffffffffffffffffffffffffffffffffffff1673ffffffffffffffffffffffffffffffffffffffff166323b872dd610e0f611c3a565b30856040518463ffffffff1660e01b8152600401610e2f93929190614f23565b6020604051808303816000875af1158015610e4e573d6000803e3d6000fd5b505050506040513d601f19601f82011682018060405250810190610e729190614de7565b50600560009054906101000a900473ffffffffffffffffffffffffffffffffffffffff1673ffffffffffffffffffffffffffffffffffffffff1663b6b55f25836040518263ffffffff1660e01b8152600401610ece9190614409565b600060405180830381600087803b158015610ee857600080fd5b505af1158015610efc573d6000803e3d6000fd5b505050506000610f0b83612256565b90506000610f1882612285565b9050610f2b610f25611c3a565b82612306565b8092505050919050565b600080600260009054906101000a900473ffffffffffffffffffffffffffffffffffffffff1673ffffffffffffffffffffffffffffffffffffffff166370a08231306040518263ffffffff1660e01b8152600401610f939190614f5a565b602060405180830381865afa158015610fb0573d6000803e3d6000fd5b505050506040513d601f19601f82011682018060405250810190610fd49190614f8a565b90506000610fe0612388565b9050610ff68183610ff19190614fe6565b61242a565b9250505090565b600080611008611c12565b90508060000160008473ffffffffffffffffffffffffffffffffffffffff1673ffffffffffffffffffffffffffffffffffffffff16815260200190815260200160002054915050919050565b61105c6121a0565b73ffffffffffffffffffffffffffffffffffffffff1661107a611c3a565b73ffffffffffffffffffffffffffffffffffffffff16146110d0576040517f08c379a00000000000000000000000000000000000000000000000000000000081526004016110c790615066565b60405180910390fd5b80600860008473ffffffffffffffffffffffffffffffffffffffff1673ffffffffffffffffffffffffffffffffffffffff16815260200190815260200160002060006101000a81548160ff0219169083151502179055505050565b6000611135611ddc565b611174576040517f08c379a000000000000000000000000000000000000000000000000000000000815260040161116b90614d0e565b60405180910390fd5b61117f606480612503565b50506000600160009054906101000a900473ffffffffffffffffffffffffffffffffffffffff1673ffffffffffffffffffffffffffffffffffffffff166370a08231306040518263ffffffff1660e01b81526004016111de9190614f5a565b602060405180830381865afa1580156111fb573d6000803e3d6000fd5b505050506040513d601f19601f8201168201806040525081019061121f9190614f8a565b9050600061122c82612897565b905081858261123b9190615086565b101561127c576040517f08c379a000000000000000000000000000000000000000000000000000000000815260040161127390615114565b60405180910390fd5b8184826112899190615086565b11156112ca576040517f08c379a00000000000000000000000000000000000000000000000000000000081526004016112c190615180565b60405180910390fd5b809250505092915050565b6000806112e0610634565b905060006112ec612a86565b90508184826112fb9190615086565b61130591906151cf565b92505050919050565b6060600061131a611c12565b905080600401805461132b90614c91565b80601f016020809104026020016040519081016040528092919081815260200182805461135790614c91565b80156113a45780601f10611379576101008083540402835291602001916113a4565b820191906000526020600020905b81548152906001019060200180831161138757829003601f168201915b505050505091505090565b600160009054906101000a900473ffffffffffffffffffffffffffffffffffffffff1681565b600560009054906101000a900473ffffffffffffffffffffffffffffffffffffffff1681565b600460009054906101000a900473ffffffffffffffffffffffffffffffffffffffff1681565b60008061142c611c3a565b9050611439818585611ce8565b600191505092915050565b60008061144f610634565b9050600061145c84610ffd565b90506000611468612a86565b90508282826114779190615086565b61148191906151cf565b9350505050919050565b6000611495612ac9565b905060008160000160089054906101000a900460ff1615905060008260000160009054906101000a900467ffffffffffffffff1690506000808267ffffffffffffffff161480156114e35750825b9050600060018367ffffffffffffffff16148015611518575060003073ffffffffffffffffffffffffffffffffffffffff163b145b905081158015611526575080155b1561155d576040517ff92ee8a900000000000000000000000000000000000000000000000000000000815260040160405180910390fd5b60018560000160006101000a81548167ffffffffffffffff021916908367ffffffffffffffff16021790555083156115ad5760018560000160086101000a81548160ff0219169083151502179055505b6115b5612af1565b6115bf8b8b612afb565b6115c889612b38565b6115d28888612b83565b6115db86612c11565b6115e3610889565b831561163f5760008560000160086101000a81548160ff0219169083151502179055507fc7f505b2f371ae2175ee4913f4499e1f2633a7b5936321eed1cdaeb6115181d26001604051611636919061524f565b60405180910390a15b5050505050505050505050565b6000611656611ddc565b611695576040517f08c379a000000000000000000000000000000000000000000000000000000000815260040161168c90614d0e565b60405180910390fd5b600082116116d8576040517f08c379a00000000000000000000000000000000000000000000000000000000081526004016116cf90614d7a565b60405180910390fd5b60006116e2611c3a565b905060008054906101000a900473ffffffffffffffffffffffffffffffffffffffff1673ffffffffffffffffffffffffffffffffffffffff166323b872dd8230866040518463ffffffff1660e01b815260040161174193929190614f23565b6020604051808303816000875af1158015611760573d6000803e3d6000fd5b505050506040513d601f19601f820116820180604052508101906117849190614de7565b6117c3576040517f08c379a00000000000000000000000000000000000000000000000000000000081526004016117ba90614e60565b60405180910390fd5b60006117ce84612e32565b90506117e16117db611c3a565b82612306565b7f90890809c654f11d6e72a28fa60149770a0d11ec6c92319d6ceb2bb0a4ea1a1582858360405161181493929190614e80565b60405180910390a18092505050919050565b61182e611ddc565b61186d576040517f08c379a000000000000000000000000000000000000000000000000000000000815260040161186490614d0e565b60405180910390fd5b811561191f576000600160009054906101000a900473ffffffffffffffffffffffffffffffffffffffff1673ffffffffffffffffffffffffffffffffffffffff166370a08231306040518263ffffffff1660e01b81526004016118d09190614f5a565b602060405180830381865afa1580156118ed573d6000803e3d6000fd5b505050506040513d601f19601f820116820180604052508101906119119190614f8a565b905061191c81612897565b50505b80801561197b5750600073ffffffffffffffffffffffffffffffffffffffff16600260009054906101000a900473ffffffffffffffffffffffffffffffffffffffff1673ffffffffffffffffffffffffffffffffffffffff1614155b15611a3d57611988612e74565b6000600260009054906101000a900473ffffffffffffffffffffffffffffffffffffffff1673ffffffffffffffffffffffffffffffffffffffff166370a08231306040518263ffffffff1660e01b81526004016119e59190614f5a565b602060405180830381865afa158015611a02573d6000803e3d6000fd5b505050506040513d601f19601f82011682018060405250810190611a269190614f8a565b905060008114611a3b57611a3981612ef8565b505b505b60008060009054906101000a900473ffffffffffffffffffffffffffffffffffffffff1673ffffffffffffffffffffffffffffffffffffffff166370a08231306040518263ffffffff1660e01b8152600401611a999190614f5a565b602060405180830381865afa158015611ab6573d6000803e3d6000fd5b505050506040513d601f19601f82011682018060405250810190611ada9190614f8a565b9050611ae581612fdf565b50507fe28fc2e419a96cb2e6a0e057d8ce7fc6a5d98e152ca5819d79b1b4d15c3cf6d1611b10612a86565b611b18610634565b604051611b2692919061526a565b60405180910390a1505050565b60008054906101000a900473ffffffffffffffffffffffffffffffffffffffff1681565b600080611b62611c12565b90508060010160008573ffffffffffffffffffffffffffffffffffffffff1673ffffffffffffffffffffffffffffffffffffffff16815260200190815260200160002060008473ffffffffffffffffffffffffffffffffffffffff1673ffffffffffffffffffffffffffffffffffffffff1681526020019081526020016000205491505092915050565b600360009054906101000a900473ffffffffffffffffffffffffffffffffffffffff1681565b60007f52c63247e1f47db19d5ce0460030c497f067ca4cebf71ba98eeadabe20bace00905090565b600033905090565b611c4f838383600161302a565b505050565b6000611c608484611b57565b90507fffffffffffffffffffffffffffffffffffffffffffffffffffffffffffffffff8114611ce25781811015611cd2578281836040517ffb8f41b2000000000000000000000000000000000000000000000000000000008152600401611cc993929190614e80565b60405180910390fd5b611ce18484848403600061302a565b5b50505050565b600073ffffffffffffffffffffffffffffffffffffffff168373ffffffffffffffffffffffffffffffffffffffff1603611d5a5760006040517f96c6fd1e000000000000000000000000000000000000000000000000000000008152600401611d519190614f5a565b60405180910390fd5b600073ffffffffffffffffffffffffffffffffffffffff168273ffffffffffffffffffffffffffffffffffffffff1603611dcc5760006040517fec442f05000000000000000000000000000000000000000000000000000000008152600401611dc39190614f5a565b60405180910390fd5b611dd7838383613210565b505050565b600060086000611dea611c3a565b73ffffffffffffffffffffffffffffffffffffffff1673ffffffffffffffffffffffffffffffffffffffff16815260200190815260200160002060009054906101000a900460ff16905090565b600073ffffffffffffffffffffffffffffffffffffffff168273ffffffffffffffffffffffffffffffffffffffff1603611ea95760006040517f96c6fd1e000000000000000000000000000000000000000000000000000000008152600401611ea09190614f5a565b60405180910390fd5b611eb582600083613210565b5050565b600080828460008054906101000a900473ffffffffffffffffffffffffffffffffffffffff1673ffffffffffffffffffffffffffffffffffffffff166370a08231306040518263ffffffff1660e01b8152600401611f179190614f5a565b602060405180830381865afa158015611f34573d6000803e3d6000fd5b505050506040513d601f19601f82011682018060405250810190611f589190614f8a565b611f629190615086565b611f6c91906151cf565b905060008385600160009054906101000a900473ffffffffffffffffffffffffffffffffffffffff1673ffffffffffffffffffffffffffffffffffffffff166370a08231306040518263ffffffff1660e01b8152600401611fcd9190614f5a565b602060405180830381865afa158015611fea573d6000803e3d6000fd5b505050506040513d601f19601f8201168201806040525081019061200e9190614f8a565b6120189190615086565b61202291906151cf565b90506000806120318787612503565b9150915081846120419190614fe6565b945061205781846120529190614fe6565b612897565b856120629190614fe6565b9450600073ffffffffffffffffffffffffffffffffffffffff16600260009054906101000a900473ffffffffffffffffffffffffffffffffffffffff1673ffffffffffffffffffffffffffffffffffffffff1614612196576120c2612e74565b6000600260009054906101000a900473ffffffffffffffffffffffffffffffffffffffff1673ffffffffffffffffffffffffffffffffffffffff166370a08231306040518263ffffffff1660e01b815260040161211f9190614f5a565b602060405180830381865afa15801561213c573d6000803e3d6000fd5b505050506040513d601f19601f820116820180604052508101906121609190614f8a565b905060008789836121719190615086565b61217b91906151cf565b905061218681612ef8565b876121919190614fe6565b965050505b5050505092915050565b60007fb53127684a568b3173ae13b9f8a6016e243e63b6e8ee1178d6a717850b5d610354905090565b60006121d36121a0565b9050817fb53127684a568b3173ae13b9f8a6016e243e63b6e8ee1178d6a717850b5d6103558173ffffffffffffffffffffffffffffffffffffffff168173ffffffffffffffffffffffffffffffffffffffff167f8be0079c531659141344cd1fd0a4f28419497f9722a3daafe3b4186f6b6457e060405160405180910390a35050565b60008060006122648461344f565b91509150612271816136a4565b8261227c9190614fe6565b92505050919050565b600080612290610634565b9050600081036122c7576122a261376d565b670de0b6b3a7640000846122b69190615086565b6122c091906151cf565b9150612300565b60006122d1612a86565b905083816122df9190615293565b6122e7610634565b856122f29190615086565b6122fc91906151cf565b9250505b50919050565b600073ffffffffffffffffffffffffffffffffffffffff168273ffffffffffffffffffffffffffffffffffffffff16036123785760006040517fec442f0500000000000000000000000000000000000000000000000000000000815260040161236f9190614f5a565b60405180910390fd5b61238460008383613210565b5050565b6000600560009054906101000a900473ffffffffffffffffffffffffffffffffffffffff1673ffffffffffffffffffffffffffffffffffffffff16628cc262306040518263ffffffff1660e01b81526004016123e49190614f5a565b602060405180830381865afa158015612401573d6000803e3d6000fd5b505050506040513d601f19601f820116820180604052508101906124259190614f8a565b905090565b600080600360009054906101000a900473ffffffffffffffffffffffffffffffffffffffff1673ffffffffffffffffffffffffffffffffffffffff16639881fcb48460076040518363ffffffff1660e01b815260040161248b929190615471565b600060405180830381865afa1580156124a8573d6000803e3d6000fd5b505050506040513d6000823e3d601f19601f820116820180604052508101906124d19190615564565b905080600182516124e29190615293565b815181106124f3576124f26155ad565b5b6020026020010151915050919050565b60008060008385600560009054906101000a900473ffffffffffffffffffffffffffffffffffffffff1673ffffffffffffffffffffffffffffffffffffffff166370a08231306040518263ffffffff1660e01b81526004016125659190614f5a565b602060405180830381865afa158015612582573d6000803e3d6000fd5b505050506040513d601f19601f820116820180604052508101906125a69190614f8a565b6125b09190615086565b6125ba91906151cf565b9050600560009054906101000a900473ffffffffffffffffffffffffffffffffffffffff1673ffffffffffffffffffffffffffffffffffffffff16632e1a7d4d826040518263ffffffff1660e01b81526004016126179190614409565b600060405180830381600087803b15801561263157600080fd5b505af1158015612645573d6000803e3d6000fd5b50505050600080600360009054906101000a900473ffffffffffffffffffffffffffffffffffffffff1673ffffffffffffffffffffffffffffffffffffffff16634386e63c60008054906101000a900473ffffffffffffffffffffffffffffffffffffffff16600160009054906101000a900473ffffffffffffffffffffffffffffffffffffffff16600560149054906101000a900460ff16876040518563ffffffff1660e01b81526004016126fe94939291906155dc565b6040805180830381865afa15801561271a573d6000803e3d6000fd5b505050506040513d601f19601f8201168201806040525081019061273e9190615621565b9150915060006103e86103e7846127559190615086565b61275f91906151cf565b905060006103e86103e7846127749190615086565b61277e91906151cf565b9050600080600360009054906101000a900473ffffffffffffffffffffffffffffffffffffffff1673ffffffffffffffffffffffffffffffffffffffff16630dede6c460008054906101000a900473ffffffffffffffffffffffffffffffffffffffff16600160009054906101000a900473ffffffffffffffffffffffffffffffffffffffff16600560149054906101000a900460ff168b898930426040518963ffffffff1660e01b815260040161283d989796959493929190615661565b60408051808303816000875af115801561285b573d6000803e3d6000fd5b505050506040513d601f19601f8201168201806040525081019061287f9190615621565b91509150819850809750505050505050509250929050565b600080600167ffffffffffffffff8111156128b5576128b46146b0565b5b6040519080825280602002602001820160405280156128ee57816020015b6128db6141db565b8152602001906001900390816128d35790505b5090506040518060600160405280600160009054906101000a900473ffffffffffffffffffffffffffffffffffffffff1673ffffffffffffffffffffffffffffffffffffffff16815260200160008054906101000a900473ffffffffffffffffffffffffffffffffffffffff1673ffffffffffffffffffffffffffffffffffffffff168152602001600560149054906101000a900460ff1615158152508160008151811061299f5761299e6155ad565b5b60200260200101819052506000600360009054906101000a900473ffffffffffffffffffffffffffffffffffffffff1673ffffffffffffffffffffffffffffffffffffffff1663f41766d8856129f4876136a4565b8530426040518663ffffffff1660e01b8152600401612a179594939291906157bf565b6000604051808303816000875af1158015612a36573d6000803e3d6000fd5b505050506040513d6000823e3d601f19601f82011682018060405250810190612a5f9190615564565b905080600181518110612a7557612a746155ad565b5b602002602001015192505050919050565b600080600080612a94613777565b925092509250612aa38161242a565b612aac836136a4565b84612ab79190614fe6565b612ac19190614fe6565b935050505090565b60007ff0c57e16840df040f15088dc2f81fe391c3923bec73e23a9662efc9c229c6a00905090565b612af961390c565b565b612b0361390c565b6000612b0d611c12565b905082816003019081612b2091906159bb565b5081816004019081612b3291906159bb565b50505050565b612b4061390c565b806000806101000a81548173ffffffffffffffffffffffffffffffffffffffff021916908373ffffffffffffffffffffffffffffffffffffffff16021790555050565b612b8b61390c565b81600160006101000a81548173ffffffffffffffffffffffffffffffffffffffff021916908373ffffffffffffffffffffffffffffffffffffffff16021790555080600260006101000a81548173ffffffffffffffffffffffffffffffffffffffff021916908373ffffffffffffffffffffffffffffffffffffffff1602179055505050565b612c1961390c565b8060000151600360006101000a81548173ffffffffffffffffffffffffffffffffffffffff021916908373ffffffffffffffffffffffffffffffffffffffff1602179055508060200151600460006101000a81548173ffffffffffffffffffffffffffffffffffffffff021916908373ffffffffffffffffffffffffffffffffffffffff1602179055508060400151600560006101000a81548173ffffffffffffffffffffffffffffffffffffffff021916908373ffffffffffffffffffffffffffffffffffffffff16021790555080606001516006819055508060800151600560146101000a81548160ff02191690831515021790555060005b8160a0015151811015612e2e5760008260a001518281518110612d3a57612d396155ad565b5b60200260200101519050600781908060018154018082558091505060019003906000526020600020906002020160009091909190915060008201518160000160006101000a81548173ffffffffffffffffffffffffffffffffffffffff021916908373ffffffffffffffffffffffffffffffffffffffff16021790555060208201518160010160006101000a81548173ffffffffffffffffffffffffffffffffffffffff021916908373ffffffffffffffffffffffffffffffffffffffff16021790555060408201518160010160146101000a81548160ff0219169083151502179055505050508080600101915050612d14565b5050565b6000806000612e4084612fdf565b91509150612e6b612e50826136a4565b8386612e5c9190615293565b612e669190614fe6565b612285565b92505050919050565b600560009054906101000a900473ffffffffffffffffffffffffffffffffffffffff1673ffffffffffffffffffffffffffffffffffffffff16633d18b9126040518163ffffffff1660e01b8152600401600060405180830381600087803b158015612ede57600080fd5b505af1158015612ef2573d6000803e3d6000fd5b50505050565b600080612f048361242a565b90506000600360009054906101000a900473ffffffffffffffffffffffffffffffffffffffff1673ffffffffffffffffffffffffffffffffffffffff1663f41766d88584600730426040518663ffffffff1660e01b8152600401612f6c959493929190615a8d565b6000604051808303816000875af1158015612f8b573d6000803e3d6000fd5b505050506040513d6000823e3d601f19601f82011682018060405250810190612fb49190615564565b90508060078054905081518110612fce57612fcd6155ad565b5b602002602001015192505050919050565b6000806000831461301c57612ff38361394c565b9150612ffe826139b8565b9050613015828461300f9190615293565b82613ba7565b5050613025565b60009150600090505b915091565b6000613034611c12565b9050600073ffffffffffffffffffffffffffffffffffffffff168573ffffffffffffffffffffffffffffffffffffffff16036130a85760006040517fe602df0500000000000000000000000000000000000000000000000000000000815260040161309f9190614f5a565b60405180910390fd5b600073ffffffffffffffffffffffffffffffffffffffff168473ffffffffffffffffffffffffffffffffffffffff160361311a5760006040517f94280d620000000000000000000000000000000000000000000000000000000081526004016131119190614f5a565b60405180910390fd5b828160010160008773ffffffffffffffffffffffffffffffffffffffff1673ffffffffffffffffffffffffffffffffffffffff16815260200190815260200160002060008673ffffffffffffffffffffffffffffffffffffffff1673ffffffffffffffffffffffffffffffffffffffff168152602001908152602001600020819055508115613209578373ffffffffffffffffffffffffffffffffffffffff168573ffffffffffffffffffffffffffffffffffffffff167f8c5be1e5ebec7d5bd14f71427d1e84f3dd0314c0f7b2291e5b200ac8c7c3b925856040516132009190614409565b60405180910390a35b5050505050565b600061321a611c12565b9050600073ffffffffffffffffffffffffffffffffffffffff168473ffffffffffffffffffffffffffffffffffffffff160361327057818160020160008282546132649190614fe6565b92505081905550613349565b60008160000160008673ffffffffffffffffffffffffffffffffffffffff1673ffffffffffffffffffffffffffffffffffffffff168152602001908152602001600020549050828110156132ff578481846040517fe450d38c0000000000000000000000000000000000000000000000000000000081526004016132f693929190614e80565b60405180910390fd5b8281038260000160008773ffffffffffffffffffffffffffffffffffffffff1673ffffffffffffffffffffffffffffffffffffffff16815260200190815260200160002081905550505b600073ffffffffffffffffffffffffffffffffffffffff168373ffffffffffffffffffffffffffffffffffffffff1603613394578181600201600082825403925050819055506133e4565b818160000160008573ffffffffffffffffffffffffffffffffffffffff1673ffffffffffffffffffffffffffffffffffffffff168152602001908152602001600020600082825401925050819055505b8273ffffffffffffffffffffffffffffffffffffffff168473ffffffffffffffffffffffffffffffffffffffff167fddf252ad1be2c89b69c2b068fc378daa952ba7f163c4a11628f55a4df523b3ef846040516134419190614409565b60405180910390a350505050565b60008060008060009054906101000a900473ffffffffffffffffffffffffffffffffffffffff1673ffffffffffffffffffffffffffffffffffffffff166370a08231600460009054906101000a900473ffffffffffffffffffffffffffffffffffffffff166040518263ffffffff1660e01b81526004016134d09190614f5a565b602060405180830381865afa1580156134ed573d6000803e3d6000fd5b505050506040513d601f19601f820116820180604052508101906135119190614f8a565b90506000600160009054906101000a900473ffffffffffffffffffffffffffffffffffffffff1673ffffffffffffffffffffffffffffffffffffffff166370a08231600460009054906101000a900473ffffffffffffffffffffffffffffffffffffffff166040518263ffffffff1660e01b81526004016135929190614f5a565b602060405180830381865afa1580156135af573d6000803e3d6000fd5b505050506040513d601f19601f820116820180604052508101906135d39190614f8a565b90506000600460009054906101000a900473ffffffffffffffffffffffffffffffffffffffff1673ffffffffffffffffffffffffffffffffffffffff166318160ddd6040518163ffffffff1660e01b8152600401602060405180830381865afa158015613644573d6000803e3d6000fd5b505050506040513d601f19601f820116820180604052508101906136689190614f8a565b90508083876136779190615086565b61368191906151cf565b94508082876136909190615086565b61369a91906151cf565b9350505050915091565b6000600460009054906101000a900473ffffffffffffffffffffffffffffffffffffffff1673ffffffffffffffffffffffffffffffffffffffff1663f140a35a83600160009054906101000a900473ffffffffffffffffffffffffffffffffffffffff166040518363ffffffff1660e01b8152600401613725929190615ae7565b602060405180830381865afa158015613742573d6000803e3d6000fd5b505050506040513d601f19601f820116820180604052508101906137669190614f8a565b9050919050565b6000600654905090565b60008060008060008054906101000a900473ffffffffffffffffffffffffffffffffffffffff1673ffffffffffffffffffffffffffffffffffffffff166370a08231306040518263ffffffff1660e01b81526004016137d69190614f5a565b602060405180830381865afa1580156137f3573d6000803e3d6000fd5b505050506040513d601f19601f820116820180604052508101906138179190614f8a565b90506000600160009054906101000a900473ffffffffffffffffffffffffffffffffffffffff1673ffffffffffffffffffffffffffffffffffffffff166370a08231306040518263ffffffff1660e01b81526004016138769190614f5a565b602060405180830381865afa158015613893573d6000803e3d6000fd5b505050506040513d601f19601f820116820180604052508101906138b79190614f8a565b90506000806138c4613e87565b915091506000806138d3613f40565b9150915083866138e39190614fe6565b985082856138f19190614fe6565b975080826138ff9190614fe6565b9650505050505050909192565b613914614053565b61394a576040517fd7e6bcf800000000000000000000000000000000000000000000000000000000815260040160405180910390fd5b565b60008061395761376d565b9050600061396482614073565b905060008061397161413a565b91509150808484846139839190615086565b61398d91906151cf565b6139979190614fe6565b81876139a39190615086565b6139ad91906151cf565b945050505050919050565b600080600167ffffffffffffffff8111156139d6576139d56146b0565b5b604051908082528060200260200182016040528015613a0f57816020015b6139fc6141db565b8152602001906001900390816139f45790505b509050604051806060016040528060008054906101000a900473ffffffffffffffffffffffffffffffffffffffff1673ffffffffffffffffffffffffffffffffffffffff168152602001600160009054906101000a900473ffffffffffffffffffffffffffffffffffffffff1673ffffffffffffffffffffffffffffffffffffffff168152602001600560149054906101000a900460ff16151581525081600081518110613ac057613abf6155ad565b5b60200260200101819052506000600360009054906101000a900473ffffffffffffffffffffffffffffffffffffffff1673ffffffffffffffffffffffffffffffffffffffff1663f41766d885613b1587614073565b8530426040518663ffffffff1660e01b8152600401613b389594939291906157bf565b6000604051808303816000875af1158015613b57573d6000803e3d6000fd5b505050506040513d6000823e3d601f19601f82011682018060405250810190613b809190615564565b905080600181518110613b9657613b956155ad565b5b602002602001015192505050919050565b6000806000600560149054906101000a900460ff169050600080600360009054906101000a900473ffffffffffffffffffffffffffffffffffffffff1673ffffffffffffffffffffffffffffffffffffffff166398a0fb3c60008054906101000a900473ffffffffffffffffffffffffffffffffffffffff16600160009054906101000a900473ffffffffffffffffffffffffffffffffffffffff16868b8b6040518663ffffffff1660e01b8152600401613c66959493929190615b10565b606060405180830381865afa158015613c83573d6000803e3d6000fd5b505050506040513d601f19601f82011682018060405250810190613ca79190615b63565b509150915060006103e86103e784613cbf9190615086565b613cc991906151cf565b905060006103e86103e784613cde9190615086565b613ce891906151cf565b90506000806000600360009054906101000a900473ffffffffffffffffffffffffffffffffffffffff1673ffffffffffffffffffffffffffffffffffffffff16635a47ddc360008054906101000a900473ffffffffffffffffffffffffffffffffffffffff16600160009054906101000a900473ffffffffffffffffffffffffffffffffffffffff168b8b8b8b8b30426040518a63ffffffff1660e01b8152600401613d9c99989796959493929190615bb6565b6060604051808303816000875af1158015613dbb573d6000803e3d6000fd5b505050506040513d601f19601f82011682018060405250810190613ddf9190615b63565b925092509250829950819850600560009054906101000a900473ffffffffffffffffffffffffffffffffffffffff1673ffffffffffffffffffffffffffffffffffffffff1663b6b55f25826040518263ffffffff1660e01b8152600401613e469190614409565b600060405180830381600087803b158015613e6057600080fd5b505af1158015613e74573d6000803e3d6000fd5b5050505050505050505050509250929050565b6000806000600560009054906101000a900473ffffffffffffffffffffffffffffffffffffffff1673ffffffffffffffffffffffffffffffffffffffff166370a08231306040518263ffffffff1660e01b8152600401613ee79190614f5a565b602060405180830381865afa158015613f04573d6000803e3d6000fd5b505050506040513d601f19601f82011682018060405250810190613f289190614f8a565b9050613f338161344f565b8093508194505050509091565b600080600073ffffffffffffffffffffffffffffffffffffffff16600260009054906101000a900473ffffffffffffffffffffffffffffffffffffffff1673ffffffffffffffffffffffffffffffffffffffff1603613fa657600091506000905061404f565b600260009054906101000a900473ffffffffffffffffffffffffffffffffffffffff1673ffffffffffffffffffffffffffffffffffffffff166370a08231306040518263ffffffff1660e01b81526004016140019190614f5a565b602060405180830381865afa15801561401e573d6000803e3d6000fd5b505050506040513d601f19601f820116820180604052508101906140429190614f8a565b915061404c612388565b90505b9091565b600061405d612ac9565b60000160089054906101000a900460ff16905090565b6000600460009054906101000a900473ffffffffffffffffffffffffffffffffffffffff1673ffffffffffffffffffffffffffffffffffffffff1663f140a35a8360008054906101000a900473ffffffffffffffffffffffffffffffffffffffff166040518363ffffffff1660e01b81526004016140f2929190615ae7565b602060405180830381865afa15801561410f573d6000803e3d6000fd5b505050506040513d601f19601f820116820180604052508101906141339190614f8a565b9050919050565b600080600460009054906101000a900473ffffffffffffffffffffffffffffffffffffffff1673ffffffffffffffffffffffffffffffffffffffff16630902f1ac6040518163ffffffff1660e01b8152600401606060405180830381865afa1580156141aa573d6000803e3d6000fd5b505050506040513d601f19601f820116820180604052508101906141ce9190615b63565b5080925081935050509091565b6040518060600160405280600073ffffffffffffffffffffffffffffffffffffffff168152602001600073ffffffffffffffffffffffffffffffffffffffff1681526020016000151581525090565b600081519050919050565b600082825260208201905092915050565b60005b83811015614264578082015181840152602081019050614249565b60008484015250505050565b6000601f19601f8301169050919050565b600061428c8261422a565b6142968185614235565b93506142a6818560208601614246565b6142af81614270565b840191505092915050565b600060208201905081810360008301526142d48184614281565b905092915050565b6000604051905090565b600080fd5b600080fd5b600073ffffffffffffffffffffffffffffffffffffffff82169050919050565b600061431b826142f0565b9050919050565b61432b81614310565b811461433657600080fd5b50565b60008135905061434881614322565b92915050565b6000819050919050565b6143618161434e565b811461436c57600080fd5b50565b60008135905061437e81614358565b92915050565b6000806040838503121561439b5761439a6142e6565b5b60006143a985828601614339565b92505060206143ba8582860161436f565b9150509250929050565b60008115159050919050565b6143d9816143c4565b82525050565b60006020820190506143f460008301846143d0565b92915050565b6144038161434e565b82525050565b600060208201905061441e60008301846143fa565b92915050565b6000819050919050565b600061444961444461443f846142f0565b614424565b6142f0565b9050919050565b600061445b8261442e565b9050919050565b600061446d82614450565b9050919050565b61447d81614462565b82525050565b60006020820190506144986000830184614474565b92915050565b6000806000606084860312156144b7576144b66142e6565b5b60006144c586828701614339565b93505060206144d686828701614339565b92505060406144e78682870161436f565b9150509250925092565b600060208284031215614507576145066142e6565b5b60006145158482850161436f565b91505092915050565b600060ff82169050919050565b6145348161451e565b82525050565b600060208201905061454f600083018461452b565b92915050565b60006020828403121561456b5761456a6142e6565b5b600061457984828501614339565b91505092915050565b61458b816143c4565b811461459657600080fd5b50565b6000813590506145a881614582565b92915050565b600080604083850312156145c5576145c46142e6565b5b60006145d385828601614339565b92505060206145e485828601614599565b9150509250929050565b60008060408385031215614605576146046142e6565b5b60006146138582860161436f565b92505060206146248582860161436f565b9150509250929050565b600061463982614450565b9050919050565b6146498161462e565b82525050565b60006020820190506146646000830184614640565b92915050565b600061467582614450565b9050919050565b6146858161466a565b82525050565b60006020820190506146a0600083018461467c565b92915050565b600080fd5b600080fd5b7f4e487b7100000000000000000000000000000000000000000000000000000000600052604160045260246000fd5b6146e882614270565b810181811067ffffffffffffffff82111715614707576147066146b0565b5b80604052505050565b600061471a6142dc565b905061472682826146df565b919050565b600067ffffffffffffffff821115614746576147456146b0565b5b61474f82614270565b9050602081019050919050565b82818337600083830152505050565b600061477e6147798461472b565b614710565b90508281526020810184848401111561479a576147996146ab565b5b6147a584828561475c565b509392505050565b600082601f8301126147c2576147c16146a6565b5b81356147d284826020860161476b565b91505092915050565b60006147e682614310565b9050919050565b6147f6816147db565b811461480157600080fd5b50565b600081359050614813816147ed565b92915050565b600080fd5b600080fd5b600061482e82614310565b9050919050565b61483e81614823565b811461484957600080fd5b50565b60008135905061485b81614835565b92915050565b600061486c82614310565b9050919050565b61487c81614861565b811461488757600080fd5b50565b60008135905061489981614873565b92915050565b60006148aa82614310565b9050919050565b6148ba8161489f565b81146148c557600080fd5b50565b6000813590506148d7816148b1565b92915050565b600067ffffffffffffffff8211156148f8576148f76146b0565b5b602082029050602081019050919050565b600080fd5b60006060828403121561492457614923614819565b5b61492e6060614710565b9050600061493e84828501614339565b600083015250602061495284828501614339565b602083015250604061496684828501614599565b60408301525092915050565b6000614985614980846148dd565b614710565b905080838252602082019050606084028301858111156149a8576149a7614909565b5b835b818110156149d157806149bd888261490e565b8452602084019350506060810190506149aa565b5050509392505050565b600082601f8301126149f0576149ef6146a6565b5b8135614a00848260208601614972565b91505092915050565b600060c08284031215614a1f57614a1e614819565b5b614a2960c0614710565b90506000614a398482850161484c565b6000830152506020614a4d8482850161488a565b6020830152506040614a61848285016148c8565b6040830152506060614a758482850161436f565b6060830152506080614a8984828501614599565b60808301525060a082013567ffffffffffffffff811115614aad57614aac61481e565b5b614ab9848285016149db565b60a08301525092915050565b60008060008060008060c08789031215614ae257614ae16142e6565b5b600087013567ffffffffffffffff811115614b0057614aff6142eb565b5b614b0c89828a016147ad565b965050602087013567ffffffffffffffff811115614b2d57614b2c6142eb565b5b614b3989828a016147ad565b9550506040614b4a89828a01614804565b9450506060614b5b89828a01614804565b9350506080614b6c89828a01614804565b92505060a087013567ffffffffffffffff811115614b8d57614b8c6142eb565b5b614b9989828a01614a09565b9150509295509295509295565b60008060408385031215614bbd57614bbc6142e6565b5b6000614bcb85828601614599565b9250506020614bdc85828601614599565b9150509250929050565b60008060408385031215614bfd57614bfc6142e6565b5b6000614c0b85828601614339565b9250506020614c1c85828601614339565b9150509250929050565b6000614c3182614450565b9050919050565b614c4181614c26565b82525050565b6000602082019050614c5c6000830184614c38565b92915050565b7f4e487b7100000000000000000000000000000000000000000000000000000000600052602260045260246000fd5b60006002820490506001821680614ca957607f821691505b602082108103614cbc57614cbb614c62565b5b50919050565b7f4e6f745573657200000000000000000000000000000000000000000000000000600082015250565b6000614cf8600783614235565b9150614d0382614cc2565b602082019050919050565b60006020820190508181036000830152614d2781614ceb565b9050919050565b7f5a65726f20616d6f756e74000000000000000000000000000000000000000000600082015250565b6000614d64600b83614235565b9150614d6f82614d2e565b602082019050919050565b60006020820190508181036000830152614d9381614d57565b9050919050565b614da381614310565b82525050565b6000604082019050614dbe6000830185614d9a565b614dcb60208301846143fa565b9392505050565b600081519050614de181614582565b92915050565b600060208284031215614dfd57614dfc6142e6565b5b6000614e0b84828501614dd2565b91505092915050565b7f5472616e73666572206661696c65640000000000000000000000000000000000600082015250565b6000614e4a600f83614235565b9150614e5582614e14565b602082019050919050565b60006020820190508181036000830152614e7981614e3d565b9050919050565b6000606082019050614e956000830186614d9a565b614ea260208301856143fa565b614eaf60408301846143fa565b949350505050565b7f6f776e657220616c726561647920736574000000000000000000000000000000600082015250565b6000614eed601183614235565b9150614ef882614eb7565b602082019050919050565b60006020820190508181036000830152614f1c81614ee0565b9050919050565b6000606082019050614f386000830186614d9a565b614f456020830185614d9a565b614f5260408301846143fa565b949350505050565b6000602082019050614f6f6000830184614d9a565b92915050565b600081519050614f8481614358565b92915050565b600060208284031215614fa057614f9f6142e6565b5b6000614fae84828501614f75565b91505092915050565b7f4e487b7100000000000000000000000000000000000000000000000000000000600052601160045260246000fd5b6000614ff18261434e565b9150614ffc8361434e565b925082820190508082111561501457615013614fb7565b5b92915050565b7f4e4f545f415554484f52495a4544000000000000000000000000000000000000600082015250565b6000615050600e83614235565b915061505b8261501a565b602082019050919050565b6000602082019050818103600083015261507f81615043565b9050919050565b60006150918261434e565b915061509c8361434e565b92508282026150aa8161434e565b915082820484148315176150c1576150c0614fb7565b5b5092915050565b7f6d696e696d616c20707269636500000000000000000000000000000000000000600082015250565b60006150fe600d83614235565b9150615109826150c8565b602082019050919050565b6000602082019050818103600083015261512d816150f1565b9050919050565b7f6d6178696d616c20707269636500000000000000000000000000000000000000600082015250565b600061516a600d83614235565b915061517582615134565b602082019050919050565b600060208201905081810360008301526151998161515d565b9050919050565b7f4e487b7100000000000000000000000000000000000000000000000000000000600052601260045260246000fd5b60006151da8261434e565b91506151e58361434e565b9250826151f5576151f46151a0565b5b828204905092915050565b6000819050919050565b600067ffffffffffffffff82169050919050565b600061523961523461522f84615200565b614424565b61520a565b9050919050565b6152498161521e565b82525050565b60006020820190506152646000830184615240565b92915050565b600060408201905061527f60008301856143fa565b61528c60208301846143fa565b9392505050565b600061529e8261434e565b91506152a98361434e565b92508282039050818111156152c1576152c0614fb7565b5b92915050565b600081549050919050565b600082825260208201905092915050565b60008190508160005260206000209050919050565b60008160001c9050919050565b600073ffffffffffffffffffffffffffffffffffffffff82169050919050565b6000615338615333836152f8565b615305565b9050919050565b61534881614310565b82525050565b60008160a01c9050919050565b600060ff82169050919050565b600061537b6153768361534e565b61535b565b9050919050565b61538b816143c4565b82525050565b6060820160008083015490506153a681615325565b6153b3600086018261533f565b50600183015490506153c481615325565b6153d1602086018261533f565b506153db81615368565b6153e86040860182615382565b5050505050565b60006153fb8383615391565b60608301905092915050565b6000600282019050919050565b600061541f826152c7565b61542981856152d2565b9350615434836152e3565b8060005b83811015615464578161544b88826153ef565b975061545683615407565b925050600181019050615438565b5085935050505092915050565b600060408201905061548660008301856143fa565b81810360208301526154988184615414565b90509392505050565b600067ffffffffffffffff8211156154bc576154bb6146b0565b5b602082029050602081019050919050565b60006154e06154db846154a1565b614710565b9050808382526020820190506020840283018581111561550357615502614909565b5b835b8181101561552c57806155188882614f75565b845260208401935050602081019050615505565b5050509392505050565b600082601f83011261554b5761554a6146a6565b5b815161555b8482602086016154cd565b91505092915050565b60006020828403121561557a576155796142e6565b5b600082015167ffffffffffffffff811115615598576155976142eb565b5b6155a484828501615536565b91505092915050565b7f4e487b7100000000000000000000000000000000000000000000000000000000600052603260045260246000fd5b60006080820190506155f16000830187614d9a565b6155fe6020830186614d9a565b61560b60408301856143d0565b61561860608301846143fa565b95945050505050565b60008060408385031215615638576156376142e6565b5b600061564685828601614f75565b925050602061565785828601614f75565b9150509250929050565b600061010082019050615677600083018b614d9a565b615684602083018a614d9a565b61569160408301896143d0565b61569e60608301886143fa565b6156ab60808301876143fa565b6156b860a08301866143fa565b6156c560c0830185614d9a565b6156d260e08301846143fa565b9998505050505050505050565b600081519050919050565b6000819050602082019050919050565b606082016000820151615710600085018261533f565b506020820151615723602085018261533f565b5060408201516157366040850182615382565b50505050565b600061574883836156fa565b60608301905092915050565b6000602082019050919050565b600061576c826156df565b61577681856152d2565b9350615781836156ea565b8060005b838110156157b2578151615799888261573c565b97506157a483615754565b925050600181019050615785565b5085935050505092915050565b600060a0820190506157d460008301886143fa565b6157e160208301876143fa565b81810360408301526157f38186615761565b90506158026060830185614d9a565b61580f60808301846143fa565b9695505050505050565b60008190508160005260206000209050919050565b60006020601f8301049050919050565b600082821b905092915050565b60006008830261587b7fffffffffffffffffffffffffffffffffffffffffffffffffffffffffffffffff8261583e565b615885868361583e565b95508019841693508086168417925050509392505050565b60006158b86158b36158ae8461434e565b614424565b61434e565b9050919050565b6000819050919050565b6158d28361589d565b6158e66158de826158bf565b84845461584b565b825550505050565b600090565b6158fb6158ee565b6159068184846158c9565b505050565b5b8181101561592a5761591f6000826158f3565b60018101905061590c565b5050565b601f82111561596f5761594081615819565b6159498461582e565b81016020851015615958578190505b61596c6159648561582e565b83018261590b565b50505b505050565b600082821c905092915050565b600061599260001984600802615974565b1980831691505092915050565b60006159ab8383615981565b9150826002028217905092915050565b6159c48261422a565b67ffffffffffffffff8111156159dd576159dc6146b0565b5b6159e78254614c91565b6159f282828561592e565b600060209050601f831160018114615a255760008415615a13578287015190505b615a1d858261599f565b865550615a85565b601f198416615a3386615819565b60005b82811015615a5b57848901518255600182019150602085019450602081019050615a36565b86831015615a785784890151615a74601f891682615981565b8355505b6001600288020188555050505b505050505050565b600060a082019050615aa260008301886143fa565b615aaf60208301876143fa565b8181036040830152615ac18186615414565b9050615ad06060830185614d9a565b615add60808301846143fa565b9695505050505050565b6000604082019050615afc60008301856143fa565b615b096020830184614d9a565b9392505050565b600060a082019050615b256000830188614d9a565b615b326020830187614d9a565b615b3f60408301866143d0565b615b4c60608301856143fa565b615b5960808301846143fa565b9695505050505050565b600080600060608486031215615b7c57615b7b6142e6565b5b6000615b8a86828701614f75565b9350506020615b9b86828701614f75565b9250506040615bac86828701614f75565b9150509250925092565b600061012082019050615bcc600083018c614d9a565b615bd9602083018b614d9a565b615be6604083018a6143d0565b615bf360608301896143fa565b615c0060808301886143fa565b615c0d60a08301876143fa565b615c1a60c08301866143fa565b615c2760e0830185614d9a565b615c356101008301846143fa565b9a995050505050505050505056fea2646970667358221220153fd3acf9960e967595d6f8d915721a813414d0165f258bf4be5a65f95c4d2764736f6c63430008180033",
  "devdoc": {
    "errors": {
      "ERC20InsufficientAllowance(address,uint256,uint256)": [
        {
          "details": "Indicates a failure with the `spender`s `allowance`. Used in transfers.",
          "params": {
            "allowance": "Amount of tokens a `spender` is allowed to operate with.",
            "needed": "Minimum amount required to perform a transfer.",
            "spender": "Address that may be allowed to operate on tokens without being their owner."
          }
        }
      ],
      "ERC20InsufficientBalance(address,uint256,uint256)": [
        {
          "details": "Indicates an error related to the current `balance` of a `sender`. Used in transfers.",
          "params": {
            "balance": "Current balance for the interacting account.",
            "needed": "Minimum amount required to perform a transfer.",
            "sender": "Address whose tokens are being transferred."
          }
        }
      ],
      "ERC20InvalidApprover(address)": [
        {
          "details": "Indicates a failure with the `approver` of a token to be approved. Used in approvals.",
          "params": {
            "approver": "Address initiating an approval operation."
          }
        }
      ],
      "ERC20InvalidReceiver(address)": [
        {
          "details": "Indicates a failure with the token `receiver`. Used in transfers.",
          "params": {
            "receiver": "Address to which tokens are being transferred."
          }
        }
      ],
      "ERC20InvalidSender(address)": [
        {
          "details": "Indicates a failure with the token `sender`. Used in transfers.",
          "params": {
            "sender": "Address whose tokens are being transferred."
          }
        }
      ],
      "ERC20InvalidSpender(address)": [
        {
          "details": "Indicates a failure with the `spender` to be approved. Used in approvals.",
          "params": {
            "spender": "Address that may be allowed to operate on tokens without being their owner."
          }
        }
      ],
      "InvalidInitialization()": [
        {
          "details": "The contract is already initialized."
        }
      ],
      "NotInitializing()": [
        {
          "details": "The contract is not initializing."
        }
      ]
    },
    "events": {
      "Approval(address,address,uint256)": {
        "details": "Emitted when the allowance of a `spender` for an `owner` is set by a call to {approve}. `value` is the new allowance."
      },
      "Initialized(uint64)": {
        "details": "Triggered when the contract has been initialized or reinitialized."
      },
      "Transfer(address,address,uint256)": {
        "details": "Emitted when `value` tokens are moved from one account (`from`) to another (`to`). Note that `value` may be zero."
      }
    },
    "kind": "dev",
    "methods": {
      "alarm(uint256,uint256)": {
        "params": {
          "maxOut": "Maximal price for the secondary -> primary conversion (e.g 1000100000000)",
          "minOut": "Minimal price for the secondary -> primary conversion (e.g 1010000000000)"
        }
      },
      "allowance(address,address)": {
        "details": "See {IERC20-allowance}."
      },
      "approve(address,uint256)": {
        "details": "See {IERC20-approve}. NOTE: If `value` is the maximum `uint256`, the allowance is not updated on `transferFrom`. This is semantically equivalent to an infinite approval. Requirements: - `spender` cannot be the zero address."
      },
      "balanceOf(address)": {
        "details": "See {IERC20-balanceOf}."
      },
      "decimals()": {
        "details": "Returns the number of decimals used to get its user representation. For example, if `decimals` equals `2`, a balance of `505` tokens should be displayed to a user as `5.05` (`505 / 10 ** 2`). Tokens usually opt for a value of 18, imitating the relationship between Ether and Wei. This is the default value returned by this function, unless it's overridden. NOTE: This information is only used for _display_ purposes: it in no way affects any of the arithmetic of the contract, including {IERC20-balanceOf} and {IERC20-transfer}."
      },
      "deposit(uint256)": {
        "details": "Deposits primary token and mints this token"
      },
      "name()": {
        "details": "Returns the name of the token."
      },
      "reinvest(bool,bool)": {
        "details": "it does it easy way - just exchanges everything to primary first and then runs part of deposit function"
      },
      "symbol()": {
        "details": "Returns the symbol of the token, usually a shorter version of the name."
      },
      "totalSupply()": {
        "details": "See {IERC20-totalSupply}."
      },
      "transfer(address,uint256)": {
        "details": "See {IERC20-transfer}. Requirements: - `to` cannot be the zero address. - the caller must have a balance of at least `value`."
      },
      "transferFrom(address,address,uint256)": {
        "details": "See {IERC20-transferFrom}. Emits an {Approval} event indicating the updated allowance. This is not required by the EIP. See the note at the beginning of {ERC20}. NOTE: Does not update the allowance if the current allowance is the maximum `uint256`. Requirements: - `from` and `to` cannot be the zero address. - `from` must have a balance of at least `value`. - the caller must have allowance for ``from``'s tokens of at least `value`."
      },
      "withdraw(uint256)": {
        "details": "Burns this token and withdraws primary investment token"
      }
    },
    "version": 1
  },
  "userdoc": {
    "kind": "user",
    "methods": {
      "alarm(uint256,uint256)": {
        "notice": "Invoked on depeg of the stablecoin"
      },
      "calculateValue(address)": {
        "notice": "calculates value for the wallet denominated in primary tokens"
      },
      "depositPooledLiquidity(uint256)": {
        "notice": "Deposit pooled liquidity (pair)"
      },
      "getRewardsValue()": {
        "notice": "Calculate total value of the rewards accumulated"
      },
      "reinvest(bool,bool)": {
        "notice": "Reinvests everything's owned into DEX (including rewards)"
      }
    },
    "version": 1
  },
  "storageLayout": {
    "storage": [
      {
        "astId": 3193,
        "contract": "contracts/v2/TokanDexInvestment.sol:TokanDexInvestment",
        "label": "primary",
        "offset": 0,
        "slot": "0",
        "type": "t_contract(IERC20)1646"
      },
      {
        "astId": 2528,
        "contract": "contracts/v2/TokanDexInvestment.sol:TokanDexInvestment",
        "label": "secondary",
        "offset": 0,
        "slot": "1",
        "type": "t_contract(IERC20)1646"
      },
      {
        "astId": 2531,
        "contract": "contracts/v2/TokanDexInvestment.sol:TokanDexInvestment",
        "label": "reward",
        "offset": 0,
        "slot": "2",
        "type": "t_contract(IERC20)1646"
      },
      {
        "astId": 3481,
        "contract": "contracts/v2/TokanDexInvestment.sol:TokanDexInvestment",
        "label": "router",
        "offset": 0,
        "slot": "3",
        "type": "t_contract(TokanRouter)1881"
      },
      {
        "astId": 3484,
        "contract": "contracts/v2/TokanDexInvestment.sol:TokanDexInvestment",
        "label": "pair",
        "offset": 0,
        "slot": "4",
        "type": "t_contract(TokanPair)1757"
      },
      {
        "astId": 3487,
        "contract": "contracts/v2/TokanDexInvestment.sol:TokanDexInvestment",
        "label": "gauge",
        "offset": 0,
        "slot": "5",
        "type": "t_contract(TokanGauge)1733"
      },
      {
        "astId": 3489,
        "contract": "contracts/v2/TokanDexInvestment.sol:TokanDexInvestment",
        "label": "stable",
        "offset": 20,
        "slot": "5",
        "type": "t_bool"
      },
      {
        "astId": 3491,
        "contract": "contracts/v2/TokanDexInvestment.sol:TokanDexInvestment",
        "label": "decimalsA",
        "offset": 0,
        "slot": "6",
        "type": "t_uint256"
      },
      {
        "astId": 3495,
        "contract": "contracts/v2/TokanDexInvestment.sol:TokanDexInvestment",
        "label": "rewardExchangeRoute",
        "offset": 0,
        "slot": "7",
        "type": "t_array(t_struct(Route)1766_storage)dyn_storage"
      },
      {
        "astId": 3499,
        "contract": "contracts/v2/TokanDexInvestment.sol:TokanDexInvestment",
        "label": "users",
        "offset": 0,
        "slot": "8",
        "type": "t_mapping(t_address,t_bool)"
      }
    ],
    "types": {
      "t_address": {
        "encoding": "inplace",
        "label": "address",
        "numberOfBytes": "20"
      },
      "t_array(t_struct(Route)1766_storage)dyn_storage": {
        "base": "t_struct(Route)1766_storage",
        "encoding": "dynamic_array",
        "label": "struct TokanRouter.Route[]",
        "numberOfBytes": "32"
      },
      "t_bool": {
        "encoding": "inplace",
        "label": "bool",
        "numberOfBytes": "1"
      },
      "t_contract(IERC20)1646": {
        "encoding": "inplace",
        "label": "contract IERC20",
        "numberOfBytes": "20"
      },
      "t_contract(TokanGauge)1733": {
        "encoding": "inplace",
        "label": "contract TokanGauge",
        "numberOfBytes": "20"
      },
      "t_contract(TokanPair)1757": {
        "encoding": "inplace",
        "label": "contract TokanPair",
        "numberOfBytes": "20"
      },
      "t_contract(TokanRouter)1881": {
        "encoding": "inplace",
        "label": "contract TokanRouter",
        "numberOfBytes": "20"
      },
      "t_mapping(t_address,t_bool)": {
        "encoding": "mapping",
        "key": "t_address",
        "label": "mapping(address => bool)",
        "numberOfBytes": "32",
        "value": "t_bool"
      },
      "t_struct(Route)1766_storage": {
        "encoding": "inplace",
        "label": "struct TokanRouter.Route",
        "members": [
          {
            "astId": 1761,
            "contract": "contracts/v2/TokanDexInvestment.sol:TokanDexInvestment",
            "label": "from",
            "offset": 0,
            "slot": "0",
            "type": "t_address"
          },
          {
            "astId": 1763,
            "contract": "contracts/v2/TokanDexInvestment.sol:TokanDexInvestment",
            "label": "to",
            "offset": 0,
            "slot": "1",
            "type": "t_address"
          },
          {
            "astId": 1765,
            "contract": "contracts/v2/TokanDexInvestment.sol:TokanDexInvestment",
            "label": "stable",
            "offset": 20,
            "slot": "1",
            "type": "t_bool"
          }
        ],
        "numberOfBytes": "64"
      },
      "t_uint256": {
        "encoding": "inplace",
        "label": "uint256",
        "numberOfBytes": "32"
      }
    }
  }
}