{
  "address": "0x84a879E454A75fe94660fe04f9Ea3cf4667442Eb",
  "abi": [
    {
      "inputs": [
        {
          "internalType": "address",
          "name": "spender",
          "type": "address"
        },
        {
          "internalType": "uint256",
          "name": "allowance",
          "type": "uint256"
        },
        {
          "internalType": "uint256",
          "name": "needed",
          "type": "uint256"
        }
      ],
      "name": "ERC20InsufficientAllowance",
      "type": "error"
    },
    {
      "inputs": [
        {
          "internalType": "address",
          "name": "sender",
          "type": "address"
        },
        {
          "internalType": "uint256",
          "name": "balance",
          "type": "uint256"
        },
        {
          "internalType": "uint256",
          "name": "needed",
          "type": "uint256"
        }
      ],
      "name": "ERC20InsufficientBalance",
      "type": "error"
    },
    {
      "inputs": [
        {
          "internalType": "address",
          "name": "approver",
          "type": "address"
        }
      ],
      "name": "ERC20InvalidApprover",
      "type": "error"
    },
    {
      "inputs": [
        {
          "internalType": "address",
          "name": "receiver",
          "type": "address"
        }
      ],
      "name": "ERC20InvalidReceiver",
      "type": "error"
    },
    {
      "inputs": [
        {
          "internalType": "address",
          "name": "sender",
          "type": "address"
        }
      ],
      "name": "ERC20InvalidSender",
      "type": "error"
    },
    {
      "inputs": [
        {
          "internalType": "address",
          "name": "spender",
          "type": "address"
        }
      ],
      "name": "ERC20InvalidSpender",
      "type": "error"
    },
    {
      "inputs": [],
      "name": "InvalidInitialization",
      "type": "error"
    },
    {
      "inputs": [],
      "name": "NotInitializing",
      "type": "error"
    },
    {
      "anonymous": false,
      "inputs": [
        {
          "indexed": true,
          "internalType": "address",
          "name": "owner",
          "type": "address"
        },
        {
          "indexed": true,
          "internalType": "address",
          "name": "spender",
          "type": "address"
        },
        {
          "indexed": false,
          "internalType": "uint256",
          "name": "value",
          "type": "uint256"
        }
      ],
      "name": "Approval",
      "type": "event"
    },
    {
      "anonymous": false,
      "inputs": [
        {
          "indexed": false,
          "internalType": "uint64",
          "name": "version",
          "type": "uint64"
        }
      ],
      "name": "Initialized",
      "type": "event"
    },
    {
      "anonymous": false,
      "inputs": [
        {
          "indexed": true,
          "internalType": "address",
          "name": "previousOwner",
          "type": "address"
        },
        {
          "indexed": true,
          "internalType": "address",
          "name": "newOwner",
          "type": "address"
        }
      ],
      "name": "OwnershipTransferred",
      "type": "event"
    },
    {
      "anonymous": false,
      "inputs": [
        {
          "indexed": true,
          "internalType": "address",
          "name": "from",
          "type": "address"
        },
        {
          "indexed": true,
          "internalType": "address",
          "name": "to",
          "type": "address"
        },
        {
          "indexed": false,
          "internalType": "uint256",
          "name": "value",
          "type": "uint256"
        }
      ],
      "name": "Transfer",
      "type": "event"
    },
    {
      "inputs": [
        {
          "internalType": "string",
          "name": "name_",
          "type": "string"
        },
        {
          "internalType": "string",
          "name": "symbol_",
          "type": "string"
        },
        {
          "internalType": "contract IERC20",
          "name": "_primary",
          "type": "address"
        },
        {
          "internalType": "contract IERC20",
          "name": "_secondary",
          "type": "address"
        },
        {
          "internalType": "contract IERC20",
          "name": "_reward",
          "type": "address"
        },
        {
          "components": [
            {
              "internalType": "contract TokanRouter",
              "name": "router",
              "type": "address"
            },
            {
              "internalType": "contract TokanPair",
              "name": "pair",
              "type": "address"
            },
            {
              "internalType": "contract TokanGauge",
              "name": "gauge",
              "type": "address"
            },
            {
              "internalType": "uint256",
              "name": "decimalsA",
              "type": "uint256"
            },
            {
              "internalType": "bool",
              "name": "stable",
              "type": "bool"
            },
            {
              "components": [
                {
                  "internalType": "address",
                  "name": "from",
                  "type": "address"
                },
                {
                  "internalType": "address",
                  "name": "to",
                  "type": "address"
                },
                {
                  "internalType": "bool",
                  "name": "stable",
                  "type": "bool"
                }
              ],
              "internalType": "struct TokanRouter.Route[]",
              "name": "rewardExchangeRoute",
              "type": "tuple[]"
            }
          ],
          "internalType": "struct TokanDexInvestment.TokanDexInvestmentConfig",
          "name": "config",
          "type": "tuple"
        }
      ],
      "name": "__TokanDexInvestment_init",
      "outputs": [],
      "stateMutability": "nonpayable",
      "type": "function"
    },
    {
      "inputs": [
        {
          "internalType": "uint256",
          "name": "minOut",
          "type": "uint256"
        },
        {
          "internalType": "uint256",
          "name": "maxOut",
          "type": "uint256"
        }
      ],
      "name": "alarm",
      "outputs": [
        {
          "internalType": "uint256",
          "name": "exchanged",
          "type": "uint256"
        }
      ],
      "stateMutability": "nonpayable",
      "type": "function"
    },
    {
      "inputs": [
        {
          "internalType": "address",
          "name": "owner",
          "type": "address"
        },
        {
          "internalType": "address",
          "name": "spender",
          "type": "address"
        }
      ],
      "name": "allowance",
      "outputs": [
        {
          "internalType": "uint256",
          "name": "",
          "type": "uint256"
        }
      ],
      "stateMutability": "view",
      "type": "function"
    },
    {
      "inputs": [
        {
          "internalType": "address",
          "name": "spender",
          "type": "address"
        },
        {
          "internalType": "uint256",
          "name": "value",
          "type": "uint256"
        }
      ],
      "name": "approve",
      "outputs": [
        {
          "internalType": "bool",
          "name": "",
          "type": "bool"
        }
      ],
      "stateMutability": "nonpayable",
      "type": "function"
    },
    {
      "inputs": [],
      "name": "approveAll",
      "outputs": [],
      "stateMutability": "nonpayable",
      "type": "function"
    },
    {
      "inputs": [
        {
          "internalType": "address",
          "name": "account",
          "type": "address"
        }
      ],
      "name": "balanceOf",
      "outputs": [
        {
          "internalType": "uint256",
          "name": "",
          "type": "uint256"
        }
      ],
      "stateMutability": "view",
      "type": "function"
    },
    {
      "inputs": [
        {
          "internalType": "address",
          "name": "wallet",
          "type": "address"
        }
      ],
      "name": "calculateValue",
      "outputs": [
        {
          "internalType": "uint256",
          "name": "value",
          "type": "uint256"
        }
      ],
      "stateMutability": "view",
      "type": "function"
    },
    {
      "inputs": [],
      "name": "claimOwner",
      "outputs": [],
      "stateMutability": "nonpayable",
      "type": "function"
    },
    {
      "inputs": [],
      "name": "decimals",
      "outputs": [
        {
          "internalType": "uint8",
          "name": "",
          "type": "uint8"
        }
      ],
      "stateMutability": "view",
      "type": "function"
    },
    {
      "inputs": [
        {
          "internalType": "uint256",
          "name": "amount",
          "type": "uint256"
        }
      ],
      "name": "deposit",
      "outputs": [
        {
          "internalType": "uint256",
          "name": "minted",
          "type": "uint256"
        }
      ],
      "stateMutability": "nonpayable",
      "type": "function"
    },
    {
      "inputs": [
        {
          "internalType": "uint256",
          "name": "liquidity",
          "type": "uint256"
        }
      ],
      "name": "depositPooledLiquidity",
      "outputs": [
        {
          "internalType": "uint256",
          "name": "minted",
          "type": "uint256"
        }
      ],
      "stateMutability": "nonpayable",
      "type": "function"
    },
    {
      "inputs": [],
      "name": "gauge",
      "outputs": [
        {
          "internalType": "contract TokanGauge",
          "name": "",
          "type": "address"
        }
      ],
      "stateMutability": "view",
      "type": "function"
    },
    {
      "inputs": [],
      "name": "name",
      "outputs": [
        {
          "internalType": "string",
          "name": "",
          "type": "string"
        }
      ],
      "stateMutability": "view",
      "type": "function"
    },
    {
      "inputs": [],
      "name": "pair",
      "outputs": [
        {
          "internalType": "contract TokanPair",
          "name": "",
          "type": "address"
        }
      ],
      "stateMutability": "view",
      "type": "function"
    },
    {
      "inputs": [],
      "name": "primary",
      "outputs": [
        {
          "internalType": "contract IERC20",
          "name": "",
          "type": "address"
        }
      ],
      "stateMutability": "view",
      "type": "function"
    },
    {
      "inputs": [
        {
          "internalType": "bool",
          "name": "reinvestSecondary",
          "type": "bool"
        },
        {
          "internalType": "bool",
          "name": "reinvestRewards",
          "type": "bool"
        }
      ],
      "name": "reinvest",
      "outputs": [],
      "stateMutability": "nonpayable",
      "type": "function"
    },
    {
      "inputs": [],
      "name": "reward",
      "outputs": [
        {
          "internalType": "contract IERC20",
          "name": "",
          "type": "address"
        }
      ],
      "stateMutability": "view",
      "type": "function"
    },
    {
      "inputs": [],
      "name": "router",
      "outputs": [
        {
          "internalType": "contract TokanRouter",
          "name": "",
          "type": "address"
        }
      ],
      "stateMutability": "view",
      "type": "function"
    },
    {
      "inputs": [],
      "name": "secondary",
      "outputs": [
        {
          "internalType": "contract IERC20",
          "name": "",
          "type": "address"
        }
      ],
      "stateMutability": "view",
      "type": "function"
    },
    {
      "inputs": [
        {
          "internalType": "address",
          "name": "account",
          "type": "address"
        },
        {
          "internalType": "bool",
          "name": "_user",
          "type": "bool"
        }
      ],
      "name": "setUser",
      "outputs": [],
      "stateMutability": "nonpayable",
      "type": "function"
    },
    {
      "inputs": [],
      "name": "symbol",
      "outputs": [
        {
          "internalType": "string",
          "name": "",
          "type": "string"
        }
      ],
      "stateMutability": "view",
      "type": "function"
    },
    {
      "inputs": [],
      "name": "totalSupply",
      "outputs": [
        {
          "internalType": "uint256",
          "name": "",
          "type": "uint256"
        }
      ],
      "stateMutability": "view",
      "type": "function"
    },
    {
      "inputs": [
        {
          "internalType": "address",
          "name": "to",
          "type": "address"
        },
        {
          "internalType": "uint256",
          "name": "value",
          "type": "uint256"
        }
      ],
      "name": "transfer",
      "outputs": [
        {
          "internalType": "bool",
          "name": "",
          "type": "bool"
        }
      ],
      "stateMutability": "nonpayable",
      "type": "function"
    },
    {
      "inputs": [
        {
          "internalType": "address",
          "name": "from",
          "type": "address"
        },
        {
          "internalType": "address",
          "name": "to",
          "type": "address"
        },
        {
          "internalType": "uint256",
          "name": "value",
          "type": "uint256"
        }
      ],
      "name": "transferFrom",
      "outputs": [
        {
          "internalType": "bool",
          "name": "",
          "type": "bool"
        }
      ],
      "stateMutability": "nonpayable",
      "type": "function"
    },
    {
      "inputs": [
        {
          "internalType": "uint256",
          "name": "amount",
          "type": "uint256"
        }
      ],
      "name": "withdraw",
      "outputs": [
        {
          "internalType": "uint256",
          "name": "withdrawn",
          "type": "uint256"
        }
      ],
      "stateMutability": "nonpayable",
      "type": "function"
    }
  ],
  "transactionHash": "0x88dbbcd4cfb8f183f2ebc88c50336a461b9953b5c5c726234edd59ccbef0439c",
  "args": [],
  "numDeployments": 12,
  "solcInputHash": "c1c0a9b3a22e2a990b04f6b82375550d",
  "bytecode": "0x608060405234801561001057600080fd5b506159c980620000216000396000f3fe608060405234801561001057600080fd5b50600436106101735760003560e01c80637b634b01116100de578063af79b2a611610097578063b7ae7e3911610071578063b7ae7e3914610464578063c6dbdf6114610480578063dd62ed3e1461049e578063f887ea40146104ce57610173565b8063af79b2a6146103e8578063b4d8b8c814610418578063b6b55f251461043457610173565b80637b634b011461031057806395d89b41146103405780639d3c8cc41461035e578063a6f19c841461037c578063a8aa1b311461039a578063a9059cbb146103b857610173565b8063313ce56711610130578063313ce56714610262578063380d0c08146102805780633bd1adec1461028a578063432075461461029457806370a08231146102c45780637a57a984146102f457610173565b806306fdde0314610178578063095ea7b31461019657806318160ddd146101c6578063228cb733146101e457806323b872dd146102025780632e1a7d4d14610232575b600080fd5b6101806104ec565b60405161018d9190614033565b60405180910390f35b6101b060048036038101906101ab91906140fd565b61058d565b6040516101bd9190614158565b60405180910390f35b6101ce6105b0565b6040516101db9190614182565b60405180910390f35b6101ec6105c8565b6040516101f991906141fc565b60405180910390f35b61021c60048036038101906102179190614217565b6105ee565b6040516102299190614158565b60405180910390f35b61024c6004803603810190610247919061426a565b61061d565b6040516102599190614182565b60405180910390f35b61026a6107c2565b60405161027791906142b3565b60405180910390f35b6102886107cb565b005b610292610c3a565b005b6102ae60048036038101906102a9919061426a565b610cc2565b6040516102bb9190614182565b60405180910390f35b6102de60048036038101906102d991906142ce565b610e77565b6040516102eb9190614182565b60405180910390f35b61030e60048036038101906103099190614327565b610ece565b005b61032a60048036038101906103259190614367565b610fa5565b6040516103379190614182565b60405180910390f35b61034861114f565b6040516103559190614033565b60405180910390f35b6103666111f0565b60405161037391906141fc565b60405180910390f35b610384611216565b60405161039191906143c8565b60405180910390f35b6103a261123c565b6040516103af9190614404565b60405180910390f35b6103d260048036038101906103cd91906140fd565b611262565b6040516103df9190614158565b60405180910390f35b61040260048036038101906103fd91906142ce565b611285565b60405161040f9190614182565b60405180910390f35b610432600480360381019061042d919061483e565b6112cc565b005b61044e6004803603810190610449919061426a565b61148d565b60405161045b9190614182565b60405180910390f35b61047e6004803603810190610479919061491f565b611626565b005b6104886118ec565b60405161049591906141fc565b60405180910390f35b6104b860048036038101906104b3919061495f565b611910565b6040516104c59190614182565b60405180910390f35b6104d66119a5565b6040516104e391906149c0565b60405180910390f35b606060006104f86119cb565b905080600301805461050990614a0a565b80601f016020809104026020016040519081016040528092919081815260200182805461053590614a0a565b80156105825780601f1061055757610100808354040283529160200191610582565b820191906000526020600020905b81548152906001019060200180831161056557829003601f168201915b505050505091505090565b6000806105986119f3565b90506105a58185856119fb565b600191505092915050565b6000806105bb6119cb565b9050806002015491505090565b600260009054906101000a900473ffffffffffffffffffffffffffffffffffffffff1681565b6000806105f96119f3565b9050610606858285611a0d565b610611858585611aa1565b60019150509392505050565b6000610627611b95565b610666576040517f08c379a000000000000000000000000000000000000000000000000000000000815260040161065d90614a87565b60405180910390fd5b600082116106a9576040517f08c379a00000000000000000000000000000000000000000000000000000000081526004016106a090614af3565b60405180910390fd5b60006106b36105b0565b90506106c66106c06119f3565b84611bf0565b60006106d28483611c72565b905060008054906101000a900473ffffffffffffffffffffffffffffffffffffffff1673ffffffffffffffffffffffffffffffffffffffff1663a9059cbb6107186119f3565b836040518363ffffffff1660e01b8152600401610736929190614b22565b6020604051808303816000875af1158015610755573d6000803e3d6000fd5b505050506040513d601f19601f820116820180604052508101906107799190614b60565b6107b8576040517f08c379a00000000000000000000000000000000000000000000000000000000081526004016107af90614bd9565b60405180910390fd5b8092505050919050565b60006012905090565b60008054906101000a900473ffffffffffffffffffffffffffffffffffffffff1673ffffffffffffffffffffffffffffffffffffffff1663095ea7b3600360009054906101000a900473ffffffffffffffffffffffffffffffffffffffff167fffffffffffffffffffffffffffffffffffffffffffffffffffffffffffffffff6040518363ffffffff1660e01b8152600401610868929190614b22565b6020604051808303816000875af1158015610887573d6000803e3d6000fd5b505050506040513d601f19601f820116820180604052508101906108ab9190614b60565b50600160009054906101000a900473ffffffffffffffffffffffffffffffffffffffff1673ffffffffffffffffffffffffffffffffffffffff1663095ea7b3600360009054906101000a900473ffffffffffffffffffffffffffffffffffffffff167fffffffffffffffffffffffffffffffffffffffffffffffffffffffffffffffff6040518363ffffffff1660e01b815260040161094b929190614b22565b6020604051808303816000875af115801561096a573d6000803e3d6000fd5b505050506040513d601f19601f8201168201806040525081019061098e9190614b60565b50600460009054906101000a900473ffffffffffffffffffffffffffffffffffffffff1673ffffffffffffffffffffffffffffffffffffffff1663095ea7b3600560009054906101000a900473ffffffffffffffffffffffffffffffffffffffff167fffffffffffffffffffffffffffffffffffffffffffffffffffffffffffffffff6040518363ffffffff1660e01b8152600401610a2e929190614b22565b6020604051808303816000875af1158015610a4d573d6000803e3d6000fd5b505050506040513d601f19601f82011682018060405250810190610a719190614b60565b50600460009054906101000a900473ffffffffffffffffffffffffffffffffffffffff1673ffffffffffffffffffffffffffffffffffffffff1663095ea7b3600360009054906101000a900473ffffffffffffffffffffffffffffffffffffffff167fffffffffffffffffffffffffffffffffffffffffffffffffffffffffffffffff6040518363ffffffff1660e01b8152600401610b11929190614b22565b6020604051808303816000875af1158015610b30573d6000803e3d6000fd5b505050506040513d601f19601f82011682018060405250810190610b549190614b60565b50600260009054906101000a900473ffffffffffffffffffffffffffffffffffffffff1673ffffffffffffffffffffffffffffffffffffffff1663095ea7b3600360009054906101000a900473ffffffffffffffffffffffffffffffffffffffff167fffffffffffffffffffffffffffffffffffffffffffffffffffffffffffffffff6040518363ffffffff1660e01b8152600401610bf4929190614b22565b6020604051808303816000875af1158015610c13573d6000803e3d6000fd5b505050506040513d601f19601f82011682018060405250810190610c379190614b60565b50565b600073ffffffffffffffffffffffffffffffffffffffff16610c5a611f59565b73ffffffffffffffffffffffffffffffffffffffff1614610cb0576040517f08c379a0000000000000000000000000000000000000000000000000000000008152600401610ca790614c45565b60405180910390fd5b610cc0610cbb6119f3565b611f82565b565b6000610ccc611b95565b610d0b576040517f08c379a0000000000000000000000000000000000000000000000000000000008152600401610d0290614a87565b60405180910390fd5b600460009054906101000a900473ffffffffffffffffffffffffffffffffffffffff1673ffffffffffffffffffffffffffffffffffffffff166323b872dd610d516119f3565b30856040518463ffffffff1660e01b8152600401610d7193929190614c65565b6020604051808303816000875af1158015610d90573d6000803e3d6000fd5b505050506040513d601f19601f82011682018060405250810190610db49190614b60565b50600560009054906101000a900473ffffffffffffffffffffffffffffffffffffffff1673ffffffffffffffffffffffffffffffffffffffff1663b6b55f25836040518263ffffffff1660e01b8152600401610e109190614182565b600060405180830381600087803b158015610e2a57600080fd5b505af1158015610e3e573d6000803e3d6000fd5b505050506000610e4d8361200f565b90506000610e5a8261203e565b9050610e6d610e676119f3565b826120bf565b8092505050919050565b600080610e826119cb565b90508060000160008473ffffffffffffffffffffffffffffffffffffffff1673ffffffffffffffffffffffffffffffffffffffff16815260200190815260200160002054915050919050565b610ed6611f59565b73ffffffffffffffffffffffffffffffffffffffff16610ef46119f3565b73ffffffffffffffffffffffffffffffffffffffff1614610f4a576040517f08c379a0000000000000000000000000000000000000000000000000000000008152600401610f4190614ce8565b60405180910390fd5b80600860008473ffffffffffffffffffffffffffffffffffffffff1673ffffffffffffffffffffffffffffffffffffffff16815260200190815260200160002060006101000a81548160ff0219169083151502179055505050565b6000610faf611b95565b610fee576040517f08c379a0000000000000000000000000000000000000000000000000000000008152600401610fe590614a87565b60405180910390fd5b610ff9606480612141565b50506000600160009054906101000a900473ffffffffffffffffffffffffffffffffffffffff1673ffffffffffffffffffffffffffffffffffffffff166370a08231306040518263ffffffff1660e01b81526004016110589190614d08565b602060405180830381865afa158015611075573d6000803e3d6000fd5b505050506040513d601f19601f820116820180604052508101906110999190614d38565b905060006110a682612495565b90508185826110b59190614d94565b10156110f6576040517f08c379a00000000000000000000000000000000000000000000000000000000081526004016110ed90614e22565b60405180910390fd5b8184826111039190614d94565b1115611144576040517f08c379a000000000000000000000000000000000000000000000000000000000815260040161113b90614e8e565b60405180910390fd5b809250505092915050565b6060600061115b6119cb565b905080600401805461116c90614a0a565b80601f016020809104026020016040519081016040528092919081815260200182805461119890614a0a565b80156111e55780601f106111ba576101008083540402835291602001916111e5565b820191906000526020600020905b8154815290600101906020018083116111c857829003601f168201915b505050505091505090565b600160009054906101000a900473ffffffffffffffffffffffffffffffffffffffff1681565b600560009054906101000a900473ffffffffffffffffffffffffffffffffffffffff1681565b600460009054906101000a900473ffffffffffffffffffffffffffffffffffffffff1681565b60008061126d6119f3565b905061127a818585611aa1565b600191505092915050565b6000806112906105b0565b9050600061129d84610e77565b905060006112a9612684565b90508282826112b89190614d94565b6112c29190614edd565b9350505050919050565b60006112d66126c7565b905060008160000160089054906101000a900460ff1615905060008260000160009054906101000a900467ffffffffffffffff1690506000808267ffffffffffffffff161480156113245750825b9050600060018367ffffffffffffffff16148015611359575060003073ffffffffffffffffffffffffffffffffffffffff163b145b905081158015611367575080155b1561139e576040517ff92ee8a900000000000000000000000000000000000000000000000000000000815260040160405180910390fd5b60018560000160006101000a81548167ffffffffffffffff021916908367ffffffffffffffff16021790555083156113ee5760018560000160086101000a81548160ff0219169083151502179055505b6113f66126ef565b6114008b8b6126f9565b61140989612736565b6114138888612781565b61141c8661280f565b6114246107cb565b83156114805760008560000160086101000a81548160ff0219169083151502179055507fc7f505b2f371ae2175ee4913f4499e1f2633a7b5936321eed1cdaeb6115181d260016040516114779190614f5d565b60405180910390a15b5050505050505050505050565b6000611497611b95565b6114d6576040517f08c379a00000000000000000000000000000000000000000000000000000000081526004016114cd90614a87565b60405180910390fd5b60008211611519576040517f08c379a000000000000000000000000000000000000000000000000000000000815260040161151090614af3565b60405180910390fd5b60008054906101000a900473ffffffffffffffffffffffffffffffffffffffff1673ffffffffffffffffffffffffffffffffffffffff166323b872dd61155d6119f3565b30856040518463ffffffff1660e01b815260040161157d93929190614c65565b6020604051808303816000875af115801561159c573d6000803e3d6000fd5b505050506040513d601f19601f820116820180604052508101906115c09190614b60565b6115ff576040517f08c379a00000000000000000000000000000000000000000000000000000000081526004016115f690614bd9565b60405180910390fd5b600061160a83612a30565b905061161d6116176119f3565b826120bf565b80915050919050565b61162e611b95565b61166d576040517f08c379a000000000000000000000000000000000000000000000000000000000815260040161166490614a87565b60405180910390fd5b811561171f576000600160009054906101000a900473ffffffffffffffffffffffffffffffffffffffff1673ffffffffffffffffffffffffffffffffffffffff166370a08231306040518263ffffffff1660e01b81526004016116d09190614d08565b602060405180830381865afa1580156116ed573d6000803e3d6000fd5b505050506040513d601f19601f820116820180604052508101906117119190614d38565b905061171c81612495565b50505b80801561177b5750600073ffffffffffffffffffffffffffffffffffffffff16600260009054906101000a900473ffffffffffffffffffffffffffffffffffffffff1673ffffffffffffffffffffffffffffffffffffffff1614155b1561183d57611788612a72565b6000600260009054906101000a900473ffffffffffffffffffffffffffffffffffffffff1673ffffffffffffffffffffffffffffffffffffffff166370a08231306040518263ffffffff1660e01b81526004016117e59190614d08565b602060405180830381865afa158015611802573d6000803e3d6000fd5b505050506040513d601f19601f820116820180604052508101906118269190614d38565b90506000811461183b5761183981612af6565b505b505b60008060009054906101000a900473ffffffffffffffffffffffffffffffffffffffff1673ffffffffffffffffffffffffffffffffffffffff166370a08231306040518263ffffffff1660e01b81526004016118999190614d08565b602060405180830381865afa1580156118b6573d6000803e3d6000fd5b505050506040513d601f19601f820116820180604052508101906118da9190614d38565b90506118e581612bdd565b5050505050565b60008054906101000a900473ffffffffffffffffffffffffffffffffffffffff1681565b60008061191b6119cb565b90508060010160008573ffffffffffffffffffffffffffffffffffffffff1673ffffffffffffffffffffffffffffffffffffffff16815260200190815260200160002060008473ffffffffffffffffffffffffffffffffffffffff1673ffffffffffffffffffffffffffffffffffffffff1681526020019081526020016000205491505092915050565b600360009054906101000a900473ffffffffffffffffffffffffffffffffffffffff1681565b60007f52c63247e1f47db19d5ce0460030c497f067ca4cebf71ba98eeadabe20bace00905090565b600033905090565b611a088383836001612c28565b505050565b6000611a198484611910565b90507fffffffffffffffffffffffffffffffffffffffffffffffffffffffffffffffff8114611a9b5781811015611a8b578281836040517ffb8f41b2000000000000000000000000000000000000000000000000000000008152600401611a8293929190614f78565b60405180910390fd5b611a9a84848484036000612c28565b5b50505050565b600073ffffffffffffffffffffffffffffffffffffffff168373ffffffffffffffffffffffffffffffffffffffff1603611b135760006040517f96c6fd1e000000000000000000000000000000000000000000000000000000008152600401611b0a9190614d08565b60405180910390fd5b600073ffffffffffffffffffffffffffffffffffffffff168273ffffffffffffffffffffffffffffffffffffffff1603611b855760006040517fec442f05000000000000000000000000000000000000000000000000000000008152600401611b7c9190614d08565b60405180910390fd5b611b90838383612e0e565b505050565b600060086000611ba36119f3565b73ffffffffffffffffffffffffffffffffffffffff1673ffffffffffffffffffffffffffffffffffffffff16815260200190815260200160002060009054906101000a900460ff16905090565b600073ffffffffffffffffffffffffffffffffffffffff168273ffffffffffffffffffffffffffffffffffffffff1603611c625760006040517f96c6fd1e000000000000000000000000000000000000000000000000000000008152600401611c599190614d08565b60405180910390fd5b611c6e82600083612e0e565b5050565b600080828460008054906101000a900473ffffffffffffffffffffffffffffffffffffffff1673ffffffffffffffffffffffffffffffffffffffff166370a08231306040518263ffffffff1660e01b8152600401611cd09190614d08565b602060405180830381865afa158015611ced573d6000803e3d6000fd5b505050506040513d601f19601f82011682018060405250810190611d119190614d38565b611d1b9190614d94565b611d259190614edd565b905060008385600160009054906101000a900473ffffffffffffffffffffffffffffffffffffffff1673ffffffffffffffffffffffffffffffffffffffff166370a08231306040518263ffffffff1660e01b8152600401611d869190614d08565b602060405180830381865afa158015611da3573d6000803e3d6000fd5b505050506040513d601f19601f82011682018060405250810190611dc79190614d38565b611dd19190614d94565b611ddb9190614edd565b9050600080611dea8787612141565b915091508184611dfa9190614faf565b9450611e108184611e0b9190614faf565b612495565b85611e1b9190614faf565b9450600073ffffffffffffffffffffffffffffffffffffffff16600260009054906101000a900473ffffffffffffffffffffffffffffffffffffffff1673ffffffffffffffffffffffffffffffffffffffff1614611f4f57611e7b612a72565b6000600260009054906101000a900473ffffffffffffffffffffffffffffffffffffffff1673ffffffffffffffffffffffffffffffffffffffff166370a08231306040518263ffffffff1660e01b8152600401611ed89190614d08565b602060405180830381865afa158015611ef5573d6000803e3d6000fd5b505050506040513d601f19601f82011682018060405250810190611f199190614d38565b90506000878983611f2a9190614d94565b611f349190614edd565b9050611f3f81612af6565b87611f4a9190614faf565b965050505b5050505092915050565b60007fb53127684a568b3173ae13b9f8a6016e243e63b6e8ee1178d6a717850b5d610354905090565b6000611f8c611f59565b9050817fb53127684a568b3173ae13b9f8a6016e243e63b6e8ee1178d6a717850b5d6103558173ffffffffffffffffffffffffffffffffffffffff168173ffffffffffffffffffffffffffffffffffffffff167f8be0079c531659141344cd1fd0a4f28419497f9722a3daafe3b4186f6b6457e060405160405180910390a35050565b600080600061201d8461304d565b9150915061202a816132a2565b826120359190614faf565b92505050919050565b6000806120496105b0565b9050600081036120805761205b61336b565b670de0b6b3a76400008461206f9190614d94565b6120799190614edd565b91506120b9565b600061208a612684565b905083816120989190614fe3565b6120a06105b0565b856120ab9190614d94565b6120b59190614edd565b9250505b50919050565b600073ffffffffffffffffffffffffffffffffffffffff168273ffffffffffffffffffffffffffffffffffffffff16036121315760006040517fec442f050000000000000000000000000000000000000000000000000000000081526004016121289190614d08565b60405180910390fd5b61213d60008383612e0e565b5050565b60008060008385600560009054906101000a900473ffffffffffffffffffffffffffffffffffffffff1673ffffffffffffffffffffffffffffffffffffffff166370a08231306040518263ffffffff1660e01b81526004016121a39190614d08565b602060405180830381865afa1580156121c0573d6000803e3d6000fd5b505050506040513d601f19601f820116820180604052508101906121e49190614d38565b6121ee9190614d94565b6121f89190614edd565b9050600560009054906101000a900473ffffffffffffffffffffffffffffffffffffffff1673ffffffffffffffffffffffffffffffffffffffff16632e1a7d4d826040518263ffffffff1660e01b81526004016122559190614182565b600060405180830381600087803b15801561226f57600080fd5b505af1158015612283573d6000803e3d6000fd5b50505050600080600360009054906101000a900473ffffffffffffffffffffffffffffffffffffffff1673ffffffffffffffffffffffffffffffffffffffff16634386e63c60008054906101000a900473ffffffffffffffffffffffffffffffffffffffff16600160009054906101000a900473ffffffffffffffffffffffffffffffffffffffff16600560149054906101000a900460ff16876040518563ffffffff1660e01b815260040161233c9493929190615017565b6040805180830381865afa158015612358573d6000803e3d6000fd5b505050506040513d601f19601f8201168201806040525081019061237c919061505c565b91509150600080600360009054906101000a900473ffffffffffffffffffffffffffffffffffffffff1673ffffffffffffffffffffffffffffffffffffffff16630dede6c460008054906101000a900473ffffffffffffffffffffffffffffffffffffffff16600160009054906101000a900473ffffffffffffffffffffffffffffffffffffffff16600560149054906101000a900460ff1689898930426040518963ffffffff1660e01b815260040161243d98979695949392919061509c565b60408051808303816000875af115801561245b573d6000803e3d6000fd5b505050506040513d601f19601f8201168201806040525081019061247f919061505c565b9150915081965080955050505050509250929050565b600080600167ffffffffffffffff8111156124b3576124b2614429565b5b6040519080825280602002602001820160405280156124ec57816020015b6124d9613f54565b8152602001906001900390816124d15790505b5090506040518060600160405280600160009054906101000a900473ffffffffffffffffffffffffffffffffffffffff1673ffffffffffffffffffffffffffffffffffffffff16815260200160008054906101000a900473ffffffffffffffffffffffffffffffffffffffff1673ffffffffffffffffffffffffffffffffffffffff168152602001600560149054906101000a900460ff1615158152508160008151811061259d5761259c61511a565b5b60200260200101819052506000600360009054906101000a900473ffffffffffffffffffffffffffffffffffffffff1673ffffffffffffffffffffffffffffffffffffffff1663f41766d8856125f2876132a2565b8530426040518663ffffffff1660e01b8152600401612615959493929190615258565b6000604051808303816000875af1158015612634573d6000803e3d6000fd5b505050506040513d6000823e3d601f19601f8201168201806040525081019061265d9190615375565b9050806001815181106126735761267261511a565b5b602002602001015192505050919050565b600080600080612692613375565b9250925092506126a18161350a565b6126aa836132a2565b846126b59190614faf565b6126bf9190614faf565b935050505090565b60007ff0c57e16840df040f15088dc2f81fe391c3923bec73e23a9662efc9c229c6a00905090565b6126f76135e3565b565b6127016135e3565b600061270b6119cb565b90508281600301908161271e9190615560565b50818160040190816127309190615560565b50505050565b61273e6135e3565b806000806101000a81548173ffffffffffffffffffffffffffffffffffffffff021916908373ffffffffffffffffffffffffffffffffffffffff16021790555050565b6127896135e3565b81600160006101000a81548173ffffffffffffffffffffffffffffffffffffffff021916908373ffffffffffffffffffffffffffffffffffffffff16021790555080600260006101000a81548173ffffffffffffffffffffffffffffffffffffffff021916908373ffffffffffffffffffffffffffffffffffffffff1602179055505050565b6128176135e3565b8060000151600360006101000a81548173ffffffffffffffffffffffffffffffffffffffff021916908373ffffffffffffffffffffffffffffffffffffffff1602179055508060200151600460006101000a81548173ffffffffffffffffffffffffffffffffffffffff021916908373ffffffffffffffffffffffffffffffffffffffff1602179055508060400151600560006101000a81548173ffffffffffffffffffffffffffffffffffffffff021916908373ffffffffffffffffffffffffffffffffffffffff16021790555080606001516006819055508060800151600560146101000a81548160ff02191690831515021790555060005b8160a0015151811015612a2c5760008260a0015182815181106129385761293761511a565b5b60200260200101519050600781908060018154018082558091505060019003906000526020600020906002020160009091909190915060008201518160000160006101000a81548173ffffffffffffffffffffffffffffffffffffffff021916908373ffffffffffffffffffffffffffffffffffffffff16021790555060208201518160010160006101000a81548173ffffffffffffffffffffffffffffffffffffffff021916908373ffffffffffffffffffffffffffffffffffffffff16021790555060408201518160010160146101000a81548160ff0219169083151502179055505050508080600101915050612912565b5050565b6000806000612a3e84612bdd565b91509150612a69612a4e826132a2565b8386612a5a9190614fe3565b612a649190614faf565b61203e565b92505050919050565b600560009054906101000a900473ffffffffffffffffffffffffffffffffffffffff1673ffffffffffffffffffffffffffffffffffffffff16633d18b9126040518163ffffffff1660e01b8152600401600060405180830381600087803b158015612adc57600080fd5b505af1158015612af0573d6000803e3d6000fd5b50505050565b600080612b028361350a565b90506000600360009054906101000a900473ffffffffffffffffffffffffffffffffffffffff1673ffffffffffffffffffffffffffffffffffffffff1663f41766d88584600730426040518663ffffffff1660e01b8152600401612b6a9594939291906157ad565b6000604051808303816000875af1158015612b89573d6000803e3d6000fd5b505050506040513d6000823e3d601f19601f82011682018060405250810190612bb29190615375565b90508060078054905081518110612bcc57612bcb61511a565b5b602002602001015192505050919050565b60008060008314612c1a57612bf183613623565b9150612bfc8261368f565b9050612c138284612c0d9190614fe3565b8261387e565b5050612c23565b60009150600090505b915091565b6000612c326119cb565b9050600073ffffffffffffffffffffffffffffffffffffffff168573ffffffffffffffffffffffffffffffffffffffff1603612ca65760006040517fe602df05000000000000000000000000000000000000000000000000000000008152600401612c9d9190614d08565b60405180910390fd5b600073ffffffffffffffffffffffffffffffffffffffff168473ffffffffffffffffffffffffffffffffffffffff1603612d185760006040517f94280d62000000000000000000000000000000000000000000000000000000008152600401612d0f9190614d08565b60405180910390fd5b828160010160008773ffffffffffffffffffffffffffffffffffffffff1673ffffffffffffffffffffffffffffffffffffffff16815260200190815260200160002060008673ffffffffffffffffffffffffffffffffffffffff1673ffffffffffffffffffffffffffffffffffffffff168152602001908152602001600020819055508115612e07578373ffffffffffffffffffffffffffffffffffffffff168573ffffffffffffffffffffffffffffffffffffffff167f8c5be1e5ebec7d5bd14f71427d1e84f3dd0314c0f7b2291e5b200ac8c7c3b92585604051612dfe9190614182565b60405180910390a35b5050505050565b6000612e186119cb565b9050600073ffffffffffffffffffffffffffffffffffffffff168473ffffffffffffffffffffffffffffffffffffffff1603612e6e5781816002016000828254612e629190614faf565b92505081905550612f47565b60008160000160008673ffffffffffffffffffffffffffffffffffffffff1673ffffffffffffffffffffffffffffffffffffffff16815260200190815260200160002054905082811015612efd578481846040517fe450d38c000000000000000000000000000000000000000000000000000000008152600401612ef493929190614f78565b60405180910390fd5b8281038260000160008773ffffffffffffffffffffffffffffffffffffffff1673ffffffffffffffffffffffffffffffffffffffff16815260200190815260200160002081905550505b600073ffffffffffffffffffffffffffffffffffffffff168373ffffffffffffffffffffffffffffffffffffffff1603612f9257818160020160008282540392505081905550612fe2565b818160000160008573ffffffffffffffffffffffffffffffffffffffff1673ffffffffffffffffffffffffffffffffffffffff168152602001908152602001600020600082825401925050819055505b8273ffffffffffffffffffffffffffffffffffffffff168473ffffffffffffffffffffffffffffffffffffffff167fddf252ad1be2c89b69c2b068fc378daa952ba7f163c4a11628f55a4df523b3ef8460405161303f9190614182565b60405180910390a350505050565b60008060008060009054906101000a900473ffffffffffffffffffffffffffffffffffffffff1673ffffffffffffffffffffffffffffffffffffffff166370a08231600460009054906101000a900473ffffffffffffffffffffffffffffffffffffffff166040518263ffffffff1660e01b81526004016130ce9190614d08565b602060405180830381865afa1580156130eb573d6000803e3d6000fd5b505050506040513d601f19601f8201168201806040525081019061310f9190614d38565b90506000600160009054906101000a900473ffffffffffffffffffffffffffffffffffffffff1673ffffffffffffffffffffffffffffffffffffffff166370a08231600460009054906101000a900473ffffffffffffffffffffffffffffffffffffffff166040518263ffffffff1660e01b81526004016131909190614d08565b602060405180830381865afa1580156131ad573d6000803e3d6000fd5b505050506040513d601f19601f820116820180604052508101906131d19190614d38565b90506000600460009054906101000a900473ffffffffffffffffffffffffffffffffffffffff1673ffffffffffffffffffffffffffffffffffffffff166318160ddd6040518163ffffffff1660e01b8152600401602060405180830381865afa158015613242573d6000803e3d6000fd5b505050506040513d601f19601f820116820180604052508101906132669190614d38565b90508083876132759190614d94565b61327f9190614edd565b945080828761328e9190614d94565b6132989190614edd565b9350505050915091565b6000600460009054906101000a900473ffffffffffffffffffffffffffffffffffffffff1673ffffffffffffffffffffffffffffffffffffffff1663f140a35a83600160009054906101000a900473ffffffffffffffffffffffffffffffffffffffff166040518363ffffffff1660e01b8152600401613323929190615807565b602060405180830381865afa158015613340573d6000803e3d6000fd5b505050506040513d601f19601f820116820180604052508101906133649190614d38565b9050919050565b6000600654905090565b60008060008060008054906101000a900473ffffffffffffffffffffffffffffffffffffffff1673ffffffffffffffffffffffffffffffffffffffff166370a08231306040518263ffffffff1660e01b81526004016133d49190614d08565b602060405180830381865afa1580156133f1573d6000803e3d6000fd5b505050506040513d601f19601f820116820180604052508101906134159190614d38565b90506000600160009054906101000a900473ffffffffffffffffffffffffffffffffffffffff1673ffffffffffffffffffffffffffffffffffffffff166370a08231306040518263ffffffff1660e01b81526004016134749190614d08565b602060405180830381865afa158015613491573d6000803e3d6000fd5b505050506040513d601f19601f820116820180604052508101906134b59190614d38565b90506000806134c2613b5e565b915091506000806134d1613c17565b9150915083866134e19190614faf565b985082856134ef9190614faf565b975080826134fd9190614faf565b9650505050505050909192565b600080600360009054906101000a900473ffffffffffffffffffffffffffffffffffffffff1673ffffffffffffffffffffffffffffffffffffffff16639881fcb48460076040518363ffffffff1660e01b815260040161356b929190615830565b600060405180830381865afa158015613588573d6000803e3d6000fd5b505050506040513d6000823e3d601f19601f820116820180604052508101906135b19190615375565b905080600182516135c29190614fe3565b815181106135d3576135d261511a565b5b6020026020010151915050919050565b6135eb613d2a565b613621576040517fd7e6bcf800000000000000000000000000000000000000000000000000000000815260040160405180910390fd5b565b60008061362e61336b565b9050600061363b82613d4a565b9050600080613648613e11565b915091508084848461365a9190614d94565b6136649190614edd565b61366e9190614faf565b818761367a9190614d94565b6136849190614edd565b945050505050919050565b600080600167ffffffffffffffff8111156136ad576136ac614429565b5b6040519080825280602002602001820160405280156136e657816020015b6136d3613f54565b8152602001906001900390816136cb5790505b509050604051806060016040528060008054906101000a900473ffffffffffffffffffffffffffffffffffffffff1673ffffffffffffffffffffffffffffffffffffffff168152602001600160009054906101000a900473ffffffffffffffffffffffffffffffffffffffff1673ffffffffffffffffffffffffffffffffffffffff168152602001600560149054906101000a900460ff161515815250816000815181106137975761379661511a565b5b60200260200101819052506000600360009054906101000a900473ffffffffffffffffffffffffffffffffffffffff1673ffffffffffffffffffffffffffffffffffffffff1663f41766d8856137ec87613d4a565b8530426040518663ffffffff1660e01b815260040161380f959493929190615258565b6000604051808303816000875af115801561382e573d6000803e3d6000fd5b505050506040513d6000823e3d601f19601f820116820180604052508101906138579190615375565b90508060018151811061386d5761386c61511a565b5b602002602001015192505050919050565b6000806000600560149054906101000a900460ff169050600080600360009054906101000a900473ffffffffffffffffffffffffffffffffffffffff1673ffffffffffffffffffffffffffffffffffffffff166398a0fb3c60008054906101000a900473ffffffffffffffffffffffffffffffffffffffff16600160009054906101000a900473ffffffffffffffffffffffffffffffffffffffff16868b8b6040518663ffffffff1660e01b815260040161393d959493929190615860565b606060405180830381865afa15801561395a573d6000803e3d6000fd5b505050506040513d601f19601f8201168201806040525081019061397e91906158b3565b509150915060006103e86103e7846139969190614d94565b6139a09190614edd565b905060006103e86103e7846139b59190614d94565b6139bf9190614edd565b90506000806000600360009054906101000a900473ffffffffffffffffffffffffffffffffffffffff1673ffffffffffffffffffffffffffffffffffffffff16635a47ddc360008054906101000a900473ffffffffffffffffffffffffffffffffffffffff16600160009054906101000a900473ffffffffffffffffffffffffffffffffffffffff168b8b8b8b8b30426040518a63ffffffff1660e01b8152600401613a7399989796959493929190615906565b6060604051808303816000875af1158015613a92573d6000803e3d6000fd5b505050506040513d601f19601f82011682018060405250810190613ab691906158b3565b925092509250829950819850600560009054906101000a900473ffffffffffffffffffffffffffffffffffffffff1673ffffffffffffffffffffffffffffffffffffffff1663b6b55f25826040518263ffffffff1660e01b8152600401613b1d9190614182565b600060405180830381600087803b158015613b3757600080fd5b505af1158015613b4b573d6000803e3d6000fd5b5050505050505050505050509250929050565b6000806000600560009054906101000a900473ffffffffffffffffffffffffffffffffffffffff1673ffffffffffffffffffffffffffffffffffffffff166370a08231306040518263ffffffff1660e01b8152600401613bbe9190614d08565b602060405180830381865afa158015613bdb573d6000803e3d6000fd5b505050506040513d601f19601f82011682018060405250810190613bff9190614d38565b9050613c0a8161304d565b8093508194505050509091565b600080600073ffffffffffffffffffffffffffffffffffffffff16600260009054906101000a900473ffffffffffffffffffffffffffffffffffffffff1673ffffffffffffffffffffffffffffffffffffffff1603613c7d576000915060009050613d26565b600260009054906101000a900473ffffffffffffffffffffffffffffffffffffffff1673ffffffffffffffffffffffffffffffffffffffff166370a08231306040518263ffffffff1660e01b8152600401613cd89190614d08565b602060405180830381865afa158015613cf5573d6000803e3d6000fd5b505050506040513d601f19601f82011682018060405250810190613d199190614d38565b9150613d23613eb2565b90505b9091565b6000613d346126c7565b60000160089054906101000a900460ff16905090565b6000600460009054906101000a900473ffffffffffffffffffffffffffffffffffffffff1673ffffffffffffffffffffffffffffffffffffffff1663f140a35a8360008054906101000a900473ffffffffffffffffffffffffffffffffffffffff166040518363ffffffff1660e01b8152600401613dc9929190615807565b602060405180830381865afa158015613de6573d6000803e3d6000fd5b505050506040513d601f19601f82011682018060405250810190613e0a9190614d38565b9050919050565b600080600460009054906101000a900473ffffffffffffffffffffffffffffffffffffffff1673ffffffffffffffffffffffffffffffffffffffff16630902f1ac6040518163ffffffff1660e01b8152600401606060405180830381865afa158015613e81573d6000803e3d6000fd5b505050506040513d601f19601f82011682018060405250810190613ea591906158b3565b5080925081935050509091565b6000600560009054906101000a900473ffffffffffffffffffffffffffffffffffffffff1673ffffffffffffffffffffffffffffffffffffffff16628cc262306040518263ffffffff1660e01b8152600401613f0e9190614d08565b602060405180830381865afa158015613f2b573d6000803e3d6000fd5b505050506040513d601f19601f82011682018060405250810190613f4f9190614d38565b905090565b6040518060600160405280600073ffffffffffffffffffffffffffffffffffffffff168152602001600073ffffffffffffffffffffffffffffffffffffffff1681526020016000151581525090565b600081519050919050565b600082825260208201905092915050565b60005b83811015613fdd578082015181840152602081019050613fc2565b60008484015250505050565b6000601f19601f8301169050919050565b600061400582613fa3565b61400f8185613fae565b935061401f818560208601613fbf565b61402881613fe9565b840191505092915050565b6000602082019050818103600083015261404d8184613ffa565b905092915050565b6000604051905090565b600080fd5b600080fd5b600073ffffffffffffffffffffffffffffffffffffffff82169050919050565b600061409482614069565b9050919050565b6140a481614089565b81146140af57600080fd5b50565b6000813590506140c18161409b565b92915050565b6000819050919050565b6140da816140c7565b81146140e557600080fd5b50565b6000813590506140f7816140d1565b92915050565b600080604083850312156141145761411361405f565b5b6000614122858286016140b2565b9250506020614133858286016140e8565b9150509250929050565b60008115159050919050565b6141528161413d565b82525050565b600060208201905061416d6000830184614149565b92915050565b61417c816140c7565b82525050565b60006020820190506141976000830184614173565b92915050565b6000819050919050565b60006141c26141bd6141b884614069565b61419d565b614069565b9050919050565b60006141d4826141a7565b9050919050565b60006141e6826141c9565b9050919050565b6141f6816141db565b82525050565b600060208201905061421160008301846141ed565b92915050565b6000806000606084860312156142305761422f61405f565b5b600061423e868287016140b2565b935050602061424f868287016140b2565b9250506040614260868287016140e8565b9150509250925092565b6000602082840312156142805761427f61405f565b5b600061428e848285016140e8565b91505092915050565b600060ff82169050919050565b6142ad81614297565b82525050565b60006020820190506142c860008301846142a4565b92915050565b6000602082840312156142e4576142e361405f565b5b60006142f2848285016140b2565b91505092915050565b6143048161413d565b811461430f57600080fd5b50565b600081359050614321816142fb565b92915050565b6000806040838503121561433e5761433d61405f565b5b600061434c858286016140b2565b925050602061435d85828601614312565b9150509250929050565b6000806040838503121561437e5761437d61405f565b5b600061438c858286016140e8565b925050602061439d858286016140e8565b9150509250929050565b60006143b2826141c9565b9050919050565b6143c2816143a7565b82525050565b60006020820190506143dd60008301846143b9565b92915050565b60006143ee826141c9565b9050919050565b6143fe816143e3565b82525050565b600060208201905061441960008301846143f5565b92915050565b600080fd5b600080fd5b7f4e487b7100000000000000000000000000000000000000000000000000000000600052604160045260246000fd5b61446182613fe9565b810181811067ffffffffffffffff821117156144805761447f614429565b5b80604052505050565b6000614493614055565b905061449f8282614458565b919050565b600067ffffffffffffffff8211156144bf576144be614429565b5b6144c882613fe9565b9050602081019050919050565b82818337600083830152505050565b60006144f76144f2846144a4565b614489565b90508281526020810184848401111561451357614512614424565b5b61451e8482856144d5565b509392505050565b600082601f83011261453b5761453a61441f565b5b813561454b8482602086016144e4565b91505092915050565b600061455f82614089565b9050919050565b61456f81614554565b811461457a57600080fd5b50565b60008135905061458c81614566565b92915050565b600080fd5b600080fd5b60006145a782614089565b9050919050565b6145b78161459c565b81146145c257600080fd5b50565b6000813590506145d4816145ae565b92915050565b60006145e582614089565b9050919050565b6145f5816145da565b811461460057600080fd5b50565b600081359050614612816145ec565b92915050565b600061462382614089565b9050919050565b61463381614618565b811461463e57600080fd5b50565b6000813590506146508161462a565b92915050565b600067ffffffffffffffff82111561467157614670614429565b5b602082029050602081019050919050565b600080fd5b60006060828403121561469d5761469c614592565b5b6146a76060614489565b905060006146b7848285016140b2565b60008301525060206146cb848285016140b2565b60208301525060406146df84828501614312565b60408301525092915050565b60006146fe6146f984614656565b614489565b9050808382526020820190506060840283018581111561472157614720614682565b5b835b8181101561474a57806147368882614687565b845260208401935050606081019050614723565b5050509392505050565b600082601f8301126147695761476861441f565b5b81356147798482602086016146eb565b91505092915050565b600060c0828403121561479857614797614592565b5b6147a260c0614489565b905060006147b2848285016145c5565b60008301525060206147c684828501614603565b60208301525060406147da84828501614641565b60408301525060606147ee848285016140e8565b606083015250608061480284828501614312565b60808301525060a082013567ffffffffffffffff81111561482657614825614597565b5b61483284828501614754565b60a08301525092915050565b60008060008060008060c0878903121561485b5761485a61405f565b5b600087013567ffffffffffffffff81111561487957614878614064565b5b61488589828a01614526565b965050602087013567ffffffffffffffff8111156148a6576148a5614064565b5b6148b289828a01614526565b95505060406148c389828a0161457d565b94505060606148d489828a0161457d565b93505060806148e589828a0161457d565b92505060a087013567ffffffffffffffff81111561490657614905614064565b5b61491289828a01614782565b9150509295509295509295565b600080604083850312156149365761493561405f565b5b600061494485828601614312565b925050602061495585828601614312565b9150509250929050565b600080604083850312156149765761497561405f565b5b6000614984858286016140b2565b9250506020614995858286016140b2565b9150509250929050565b60006149aa826141c9565b9050919050565b6149ba8161499f565b82525050565b60006020820190506149d560008301846149b1565b92915050565b7f4e487b7100000000000000000000000000000000000000000000000000000000600052602260045260246000fd5b60006002820490506001821680614a2257607f821691505b602082108103614a3557614a346149db565b5b50919050565b7f4e6f745573657200000000000000000000000000000000000000000000000000600082015250565b6000614a71600783613fae565b9150614a7c82614a3b565b602082019050919050565b60006020820190508181036000830152614aa081614a64565b9050919050565b7f5a65726f20616d6f756e74000000000000000000000000000000000000000000600082015250565b6000614add600b83613fae565b9150614ae882614aa7565b602082019050919050565b60006020820190508181036000830152614b0c81614ad0565b9050919050565b614b1c81614089565b82525050565b6000604082019050614b376000830185614b13565b614b446020830184614173565b9392505050565b600081519050614b5a816142fb565b92915050565b600060208284031215614b7657614b7561405f565b5b6000614b8484828501614b4b565b91505092915050565b7f5472616e73666572206661696c65640000000000000000000000000000000000600082015250565b6000614bc3600f83613fae565b9150614bce82614b8d565b602082019050919050565b60006020820190508181036000830152614bf281614bb6565b9050919050565b7f6f776e657220616c726561647920736574000000000000000000000000000000600082015250565b6000614c2f601183613fae565b9150614c3a82614bf9565b602082019050919050565b60006020820190508181036000830152614c5e81614c22565b9050919050565b6000606082019050614c7a6000830186614b13565b614c876020830185614b13565b614c946040830184614173565b949350505050565b7f4e4f545f415554484f52495a4544000000000000000000000000000000000000600082015250565b6000614cd2600e83613fae565b9150614cdd82614c9c565b602082019050919050565b60006020820190508181036000830152614d0181614cc5565b9050919050565b6000602082019050614d1d6000830184614b13565b92915050565b600081519050614d32816140d1565b92915050565b600060208284031215614d4e57614d4d61405f565b5b6000614d5c84828501614d23565b91505092915050565b7f4e487b7100000000000000000000000000000000000000000000000000000000600052601160045260246000fd5b6000614d9f826140c7565b9150614daa836140c7565b9250828202614db8816140c7565b91508282048414831517614dcf57614dce614d65565b5b5092915050565b7f6d696e696d616c20707269636500000000000000000000000000000000000000600082015250565b6000614e0c600d83613fae565b9150614e1782614dd6565b602082019050919050565b60006020820190508181036000830152614e3b81614dff565b9050919050565b7f6d6178696d616c20707269636500000000000000000000000000000000000000600082015250565b6000614e78600d83613fae565b9150614e8382614e42565b602082019050919050565b60006020820190508181036000830152614ea781614e6b565b9050919050565b7f4e487b7100000000000000000000000000000000000000000000000000000000600052601260045260246000fd5b6000614ee8826140c7565b9150614ef3836140c7565b925082614f0357614f02614eae565b5b828204905092915050565b6000819050919050565b600067ffffffffffffffff82169050919050565b6000614f47614f42614f3d84614f0e565b61419d565b614f18565b9050919050565b614f5781614f2c565b82525050565b6000602082019050614f726000830184614f4e565b92915050565b6000606082019050614f8d6000830186614b13565b614f9a6020830185614173565b614fa76040830184614173565b949350505050565b6000614fba826140c7565b9150614fc5836140c7565b9250828201905080821115614fdd57614fdc614d65565b5b92915050565b6000614fee826140c7565b9150614ff9836140c7565b925082820390508181111561501157615010614d65565b5b92915050565b600060808201905061502c6000830187614b13565b6150396020830186614b13565b6150466040830185614149565b6150536060830184614173565b95945050505050565b600080604083850312156150735761507261405f565b5b600061508185828601614d23565b925050602061509285828601614d23565b9150509250929050565b6000610100820190506150b2600083018b614b13565b6150bf602083018a614b13565b6150cc6040830189614149565b6150d96060830188614173565b6150e66080830187614173565b6150f360a0830186614173565b61510060c0830185614b13565b61510d60e0830184614173565b9998505050505050505050565b7f4e487b7100000000000000000000000000000000000000000000000000000000600052603260045260246000fd5b600081519050919050565b600082825260208201905092915050565b6000819050602082019050919050565b61517e81614089565b82525050565b61518d8161413d565b82525050565b6060820160008201516151a96000850182615175565b5060208201516151bc6020850182615175565b5060408201516151cf6040850182615184565b50505050565b60006151e18383615193565b60608301905092915050565b6000602082019050919050565b600061520582615149565b61520f8185615154565b935061521a83615165565b8060005b8381101561524b57815161523288826151d5565b975061523d836151ed565b92505060018101905061521e565b5085935050505092915050565b600060a08201905061526d6000830188614173565b61527a6020830187614173565b818103604083015261528c81866151fa565b905061529b6060830185614b13565b6152a86080830184614173565b9695505050505050565b600067ffffffffffffffff8211156152cd576152cc614429565b5b602082029050602081019050919050565b60006152f16152ec846152b2565b614489565b9050808382526020820190506020840283018581111561531457615313614682565b5b835b8181101561533d57806153298882614d23565b845260208401935050602081019050615316565b5050509392505050565b600082601f83011261535c5761535b61441f565b5b815161536c8482602086016152de565b91505092915050565b60006020828403121561538b5761538a61405f565b5b600082015167ffffffffffffffff8111156153a9576153a8614064565b5b6153b584828501615347565b91505092915050565b60008190508160005260206000209050919050565b60006020601f8301049050919050565b600082821b905092915050565b6000600883026154207fffffffffffffffffffffffffffffffffffffffffffffffffffffffffffffffff826153e3565b61542a86836153e3565b95508019841693508086168417925050509392505050565b600061545d615458615453846140c7565b61419d565b6140c7565b9050919050565b6000819050919050565b61547783615442565b61548b61548382615464565b8484546153f0565b825550505050565b600090565b6154a0615493565b6154ab81848461546e565b505050565b5b818110156154cf576154c4600082615498565b6001810190506154b1565b5050565b601f821115615514576154e5816153be565b6154ee846153d3565b810160208510156154fd578190505b615511615509856153d3565b8301826154b0565b50505b505050565b600082821c905092915050565b600061553760001984600802615519565b1980831691505092915050565b60006155508383615526565b9150826002028217905092915050565b61556982613fa3565b67ffffffffffffffff81111561558257615581614429565b5b61558c8254614a0a565b6155978282856154d3565b600060209050601f8311600181146155ca57600084156155b8578287015190505b6155c28582615544565b86555061562a565b601f1984166155d8866153be565b60005b82811015615600578489015182556001820191506020850194506020810190506155db565b8683101561561d5784890151615619601f891682615526565b8355505b6001600288020188555050505b505050505050565b600081549050919050565b60008190508160005260206000209050919050565b60008160001c9050919050565b600073ffffffffffffffffffffffffffffffffffffffff82169050919050565b600061569261568d83615652565b61565f565b9050919050565b60008160a01c9050919050565b600060ff82169050919050565b60006156c66156c183615699565b6156a6565b9050919050565b6060820160008083015490506156e28161567f565b6156ef6000860182615175565b50600183015490506157008161567f565b61570d6020860182615175565b50615717816156b3565b6157246040860182615184565b5050505050565b600061573783836156cd565b60608301905092915050565b6000600282019050919050565b600061575b82615632565b6157658185615154565b93506157708361563d565b8060005b838110156157a05781615787888261572b565b975061579283615743565b925050600181019050615774565b5085935050505092915050565b600060a0820190506157c26000830188614173565b6157cf6020830187614173565b81810360408301526157e18186615750565b90506157f06060830185614b13565b6157fd6080830184614173565b9695505050505050565b600060408201905061581c6000830185614173565b6158296020830184614b13565b9392505050565b60006040820190506158456000830185614173565b81810360208301526158578184615750565b90509392505050565b600060a0820190506158756000830188614b13565b6158826020830187614b13565b61588f6040830186614149565b61589c6060830185614173565b6158a96080830184614173565b9695505050505050565b6000806000606084860312156158cc576158cb61405f565b5b60006158da86828701614d23565b93505060206158eb86828701614d23565b92505060406158fc86828701614d23565b9150509250925092565b60006101208201905061591c600083018c614b13565b615929602083018b614b13565b615936604083018a614149565b6159436060830189614173565b6159506080830188614173565b61595d60a0830187614173565b61596a60c0830186614173565b61597760e0830185614b13565b615985610100830184614173565b9a995050505050505050505056fea2646970667358221220d038bc066f8224a74dadc6a65ec4baa506edf9fb75315e96cf0ea26cd6919b2264736f6c63430008180033",
  "devdoc": {
    "errors": {
      "ERC20InsufficientAllowance(address,uint256,uint256)": [
        {
          "details": "Indicates a failure with the `spender`s `allowance`. Used in transfers.",
          "params": {
            "allowance": "Amount of tokens a `spender` is allowed to operate with.",
            "needed": "Minimum amount required to perform a transfer.",
            "spender": "Address that may be allowed to operate on tokens without being their owner."
          }
        }
      ],
      "ERC20InsufficientBalance(address,uint256,uint256)": [
        {
          "details": "Indicates an error related to the current `balance` of a `sender`. Used in transfers.",
          "params": {
            "balance": "Current balance for the interacting account.",
            "needed": "Minimum amount required to perform a transfer.",
            "sender": "Address whose tokens are being transferred."
          }
        }
      ],
      "ERC20InvalidApprover(address)": [
        {
          "details": "Indicates a failure with the `approver` of a token to be approved. Used in approvals.",
          "params": {
            "approver": "Address initiating an approval operation."
          }
        }
      ],
      "ERC20InvalidReceiver(address)": [
        {
          "details": "Indicates a failure with the token `receiver`. Used in transfers.",
          "params": {
            "receiver": "Address to which tokens are being transferred."
          }
        }
      ],
      "ERC20InvalidSender(address)": [
        {
          "details": "Indicates a failure with the token `sender`. Used in transfers.",
          "params": {
            "sender": "Address whose tokens are being transferred."
          }
        }
      ],
      "ERC20InvalidSpender(address)": [
        {
          "details": "Indicates a failure with the `spender` to be approved. Used in approvals.",
          "params": {
            "spender": "Address that may be allowed to operate on tokens without being their owner."
          }
        }
      ],
      "InvalidInitialization()": [
        {
          "details": "The contract is already initialized."
        }
      ],
      "NotInitializing()": [
        {
          "details": "The contract is not initializing."
        }
      ]
    },
    "events": {
      "Approval(address,address,uint256)": {
        "details": "Emitted when the allowance of a `spender` for an `owner` is set by a call to {approve}. `value` is the new allowance."
      },
      "Initialized(uint64)": {
        "details": "Triggered when the contract has been initialized or reinitialized."
      },
      "Transfer(address,address,uint256)": {
        "details": "Emitted when `value` tokens are moved from one account (`from`) to another (`to`). Note that `value` may be zero."
      }
    },
    "kind": "dev",
    "methods": {
      "alarm(uint256,uint256)": {
        "params": {
          "maxOut": "Maximal price for the secondary -> primary conversion (e.g 1000100000000)",
          "minOut": "Minimal price for the secondary -> primary conversion (e.g 1010000000000)"
        }
      },
      "allowance(address,address)": {
        "details": "See {IERC20-allowance}."
      },
      "approve(address,uint256)": {
        "details": "See {IERC20-approve}. NOTE: If `value` is the maximum `uint256`, the allowance is not updated on `transferFrom`. This is semantically equivalent to an infinite approval. Requirements: - `spender` cannot be the zero address."
      },
      "balanceOf(address)": {
        "details": "See {IERC20-balanceOf}."
      },
      "decimals()": {
        "details": "Returns the number of decimals used to get its user representation. For example, if `decimals` equals `2`, a balance of `505` tokens should be displayed to a user as `5.05` (`505 / 10 ** 2`). Tokens usually opt for a value of 18, imitating the relationship between Ether and Wei. This is the default value returned by this function, unless it's overridden. NOTE: This information is only used for _display_ purposes: it in no way affects any of the arithmetic of the contract, including {IERC20-balanceOf} and {IERC20-transfer}."
      },
      "deposit(uint256)": {
        "details": "Deposits primary token and mints this token"
      },
      "name()": {
        "details": "Returns the name of the token."
      },
      "reinvest(bool,bool)": {
        "details": "it does it easy way - just exchanges everything to primary first and then runs part of deposit function"
      },
      "symbol()": {
        "details": "Returns the symbol of the token, usually a shorter version of the name."
      },
      "totalSupply()": {
        "details": "See {IERC20-totalSupply}."
      },
      "transfer(address,uint256)": {
        "details": "See {IERC20-transfer}. Requirements: - `to` cannot be the zero address. - the caller must have a balance of at least `value`."
      },
      "transferFrom(address,address,uint256)": {
        "details": "See {IERC20-transferFrom}. Emits an {Approval} event indicating the updated allowance. This is not required by the EIP. See the note at the beginning of {ERC20}. NOTE: Does not update the allowance if the current allowance is the maximum `uint256`. Requirements: - `from` and `to` cannot be the zero address. - `from` must have a balance of at least `value`. - the caller must have allowance for ``from``'s tokens of at least `value`."
      },
      "withdraw(uint256)": {
        "details": "Burns this token and withdraws primary investment token"
      }
    },
    "version": 1
  },
  "userdoc": {
    "kind": "user",
    "methods": {
      "alarm(uint256,uint256)": {
        "notice": "Invoked on depeg of the stablecoin"
      },
      "calculateValue(address)": {
        "notice": "calculates value for the wallet denominated in primary tokens"
      },
      "depositPooledLiquidity(uint256)": {
        "notice": "Deposit pooled liquidity (pair)"
      },
      "reinvest(bool,bool)": {
        "notice": "Reinvests everything's owned into DEX (including rewards)"
      }
    },
    "version": 1
  },
  "storageLayout": {
    "storage": [
      {
        "astId": 1954,
        "contract": "contracts/v2/TokanDexInvestment.sol:TokanDexInvestment",
        "label": "primary",
        "offset": 0,
        "slot": "0",
        "type": "t_contract(IERC20)1131"
      },
      {
        "astId": 1346,
        "contract": "contracts/v2/TokanDexInvestment.sol:TokanDexInvestment",
        "label": "secondary",
        "offset": 0,
        "slot": "1",
        "type": "t_contract(IERC20)1131"
      },
      {
        "astId": 1349,
        "contract": "contracts/v2/TokanDexInvestment.sol:TokanDexInvestment",
        "label": "reward",
        "offset": 0,
        "slot": "2",
        "type": "t_contract(IERC20)1131"
      },
      {
        "astId": 2199,
        "contract": "contracts/v2/TokanDexInvestment.sol:TokanDexInvestment",
        "label": "router",
        "offset": 0,
        "slot": "3",
        "type": "t_contract(TokanRouter)1336"
      },
      {
        "astId": 2202,
        "contract": "contracts/v2/TokanDexInvestment.sol:TokanDexInvestment",
        "label": "pair",
        "offset": 0,
        "slot": "4",
        "type": "t_contract(TokanPair)1212"
      },
      {
        "astId": 2205,
        "contract": "contracts/v2/TokanDexInvestment.sol:TokanDexInvestment",
        "label": "gauge",
        "offset": 0,
        "slot": "5",
        "type": "t_contract(TokanGauge)1188"
      },
      {
        "astId": 2207,
        "contract": "contracts/v2/TokanDexInvestment.sol:TokanDexInvestment",
        "label": "stable",
        "offset": 20,
        "slot": "5",
        "type": "t_bool"
      },
      {
        "astId": 2209,
        "contract": "contracts/v2/TokanDexInvestment.sol:TokanDexInvestment",
        "label": "decimalsA",
        "offset": 0,
        "slot": "6",
        "type": "t_uint256"
      },
      {
        "astId": 2213,
        "contract": "contracts/v2/TokanDexInvestment.sol:TokanDexInvestment",
        "label": "rewardExchangeRoute",
        "offset": 0,
        "slot": "7",
        "type": "t_array(t_struct(Route)1221_storage)dyn_storage"
      },
      {
        "astId": 2217,
        "contract": "contracts/v2/TokanDexInvestment.sol:TokanDexInvestment",
        "label": "users",
        "offset": 0,
        "slot": "8",
        "type": "t_mapping(t_address,t_bool)"
      }
    ],
    "types": {
      "t_address": {
        "encoding": "inplace",
        "label": "address",
        "numberOfBytes": "20"
      },
      "t_array(t_struct(Route)1221_storage)dyn_storage": {
        "base": "t_struct(Route)1221_storage",
        "encoding": "dynamic_array",
        "label": "struct TokanRouter.Route[]",
        "numberOfBytes": "32"
      },
      "t_bool": {
        "encoding": "inplace",
        "label": "bool",
        "numberOfBytes": "1"
      },
      "t_contract(IERC20)1131": {
        "encoding": "inplace",
        "label": "contract IERC20",
        "numberOfBytes": "20"
      },
      "t_contract(TokanGauge)1188": {
        "encoding": "inplace",
        "label": "contract TokanGauge",
        "numberOfBytes": "20"
      },
      "t_contract(TokanPair)1212": {
        "encoding": "inplace",
        "label": "contract TokanPair",
        "numberOfBytes": "20"
      },
      "t_contract(TokanRouter)1336": {
        "encoding": "inplace",
        "label": "contract TokanRouter",
        "numberOfBytes": "20"
      },
      "t_mapping(t_address,t_bool)": {
        "encoding": "mapping",
        "key": "t_address",
        "label": "mapping(address => bool)",
        "numberOfBytes": "32",
        "value": "t_bool"
      },
      "t_struct(Route)1221_storage": {
        "encoding": "inplace",
        "label": "struct TokanRouter.Route",
        "members": [
          {
            "astId": 1216,
            "contract": "contracts/v2/TokanDexInvestment.sol:TokanDexInvestment",
            "label": "from",
            "offset": 0,
            "slot": "0",
            "type": "t_address"
          },
          {
            "astId": 1218,
            "contract": "contracts/v2/TokanDexInvestment.sol:TokanDexInvestment",
            "label": "to",
            "offset": 0,
            "slot": "1",
            "type": "t_address"
          },
          {
            "astId": 1220,
            "contract": "contracts/v2/TokanDexInvestment.sol:TokanDexInvestment",
            "label": "stable",
            "offset": 20,
            "slot": "1",
            "type": "t_bool"
          }
        ],
        "numberOfBytes": "64"
      },
      "t_uint256": {
        "encoding": "inplace",
        "label": "uint256",
        "numberOfBytes": "32"
      }
    }
  }
}